{"contracts/BTNGGoldToken.sol":{"BTNGGoldToken":{"abi":[{"inputs":[{"internalType":"address","name":"initialCustody","type":"address"}],"stateMutability":"nonpayable","type":"constructor"},{"inputs":[{"internalType":"address","name":"spender","type":"address"},{"internalType":"uint256","name":"allowance","type":"uint256"},{"internalType":"uint256","name":"needed","type":"uint256"}],"name":"ERC20InsufficientAllowance","type":"error"},{"inputs":[{"internalType":"address","name":"sender","type":"address"},{"internalType":"uint256","name":"balance","type":"uint256"},{"internalType":"uint256","name":"needed","type":"uint256"}],"name":"ERC20InsufficientBalance","type":"error"},{"inputs":[{"internalType":"address","name":"approver","type":"address"}],"name":"ERC20InvalidApprover","type":"error"},{"inputs":[{"internalType":"address","name":"receiver","type":"address"}],"name":"ERC20InvalidReceiver","type":"error"},{"inputs":[{"internalType":"address","name":"sender","type":"address"}],"name":"ERC20InvalidSender","type":"error"},{"inputs":[{"internalType":"address","name":"spender","type":"address"}],"name":"ERC20InvalidSpender","type":"error"},{"inputs":[],"name":"EnforcedPause","type":"error"},{"inputs":[],"name":"ExpectedPause","type":"error"},{"inputs":[{"internalType":"address","name":"owner","type":"address"}],"name":"OwnableInvalidOwner","type":"error"},{"inputs":[{"internalType":"address","name":"account","type":"address"}],"name":"OwnableUnauthorizedAccount","type":"error"},{"inputs":[],"name":"ReentrancyGuardReentrantCall","type":"error"},{"anonymous":false,"inputs":[{"indexed":true,"internalType":"address","name":"owner","type":"address"},{"indexed":true,"internalType":"address","name":"spender","type":"address"},{"indexed":false,"internalType":"uint256","name":"value","type":"uint256"}],"name":"Approval","type":"event"},{"anonymous":false,"inputs":[{"indexed":true,"internalType":"address","name":"oldCustody","type":"address"},{"indexed":true,"internalType":"address","name":"newCustody","type":"address"}],"name":"CustodyContractUpdated","type":"event"},{"anonymous":false,"inputs":[{"indexed":true,"internalType":"address","name":"to","type":"address"},{"indexed":false,"internalType":"uint256","name":"amount","type":"uint256"},{"indexed":false,"internalType":"string","name":"goldBatchId","type":"string"}],"name":"GoldMinted","type":"event"},{"anonymous":false,"inputs":[{"indexed":true,"internalType":"address","name":"from","type":"address"},{"indexed":false,"internalType":"uint256","name":"amount","type":"uint256"},{"indexed":false,"internalType":"string","name":"redemptionId","type":"string"}],"name":"GoldRedeemed","type":"event"},{"anonymous":false,"inputs":[{"indexed":true,"internalType":"address","name":"previousOwner","type":"address"},{"indexed":true,"internalType":"address","name":"newOwner","type":"address"}],"name":"OwnershipTransferred","type":"event"},{"anonymous":false,"inputs":[{"indexed":false,"internalType":"address","name":"account","type":"address"}],"name":"Paused","type":"event"},{"anonymous":false,"inputs":[{"indexed":true,"internalType":"address","name":"from","type":"address"},{"indexed":true,"internalType":"address","name":"to","type":"address"},{"indexed":false,"internalType":"uint256","name":"value","type":"uint256"}],"name":"Transfer","type":"event"},{"anonymous":false,"inputs":[{"indexed":false,"internalType":"address","name":"account","type":"address"}],"name":"Unpaused","type":"event"},{"inputs":[],"name":"GRAMS_PER_BTNG","outputs":[{"internalType":"uint256","name":"","type":"uint256"}],"stateMutability":"view","type":"function"},{"inputs":[],"name":"MAX_SUPPLY","outputs":[{"internalType":"uint256","name":"","type":"uint256"}],"stateMutability":"view","type":"function"},{"inputs":[{"internalType":"address","name":"owner","type":"address"},{"internalType":"address","name":"spender","type":"address"}],"name":"allowance","outputs":[{"internalType":"uint256","name":"","type":"uint256"}],"stateMutability":"view","type":"function"},{"inputs":[{"internalType":"address","name":"spender","type":"address"},{"internalType":"uint256","name":"value","type":"uint256"}],"name":"approve","outputs":[{"internalType":"bool","name":"","type":"bool"}],"stateMutability":"nonpayable","type":"function"},{"inputs":[{"internalType":"address","name":"account","type":"address"}],"name":"balanceOf","outputs":[{"internalType":"uint256","name":"","type":"uint256"}],"stateMutability":"view","type":"function"},{"inputs":[{"internalType":"uint256","name":"value","type":"uint256"}],"name":"burn","outputs":[],"stateMutability":"nonpayable","type":"function"},{"inputs":[{"internalType":"address","name":"account","type":"address"},{"internalType":"uint256","name":"value","type":"uint256"}],"name":"burnFrom","outputs":[],"stateMutability":"nonpayable","type":"function"},{"inputs":[],"name":"custodyContract","outputs":[{"internalType":"address","name":"","type":"address"}],"stateMutability":"view","type":"function"},{"inputs":[],"name":"decimals","outputs":[{"internalType":"uint8","name":"","type":"uint8"}],"stateMutability":"view","type":"function"},{"inputs":[{"internalType":"address","name":"account","type":"address"}],"name":"getGoldBacking","outputs":[{"internalType":"uint256","name":"","type":"uint256"}],"stateMutability":"view","type":"function"},{"inputs":[],"name":"getTotalGoldBacking","outputs":[{"internalType":"uint256","name":"","type":"uint256"}],"stateMutability":"view","type":"function"},{"inputs":[{"internalType":"address","name":"","type":"address"}],"name":"goldBalance","outputs":[{"internalType":"uint256","name":"","type":"uint256"}],"stateMutability":"view","type":"function"},{"inputs":[{"internalType":"address","name":"to","type":"address"},{"internalType":"uint256","name":"amount","type":"uint256"},{"internalType":"string","name":"goldBatchId","type":"string"},{"internalType":"uint256","name":"goldGrams","type":"uint256"}],"name":"mintGoldBacked","outputs":[],"stateMutability":"nonpayable","type":"function"},{"inputs":[],"name":"name","outputs":[{"internalType":"string","name":"","type":"string"}],"stateMutability":"view","type":"function"},{"inputs":[],"name":"owner","outputs":[{"internalType":"address","name":"","type":"address"}],"stateMutability":"view","type":"function"},{"inputs":[],"name":"pause","outputs":[],"stateMutability":"nonpayable","type":"function"},{"inputs":[],"name":"paused","outputs":[{"internalType":"bool","name":"","type":"bool"}],"stateMutability":"view","type":"function"},{"inputs":[{"internalType":"string","name":"","type":"string"}],"name":"processedGoldBatches","outputs":[{"internalType":"bool","name":"","type":"bool"}],"stateMutability":"view","type":"function"},{"inputs":[{"internalType":"string","name":"","type":"string"}],"name":"processedRedemptions","outputs":[{"internalType":"bool","name":"","type":"bool"}],"stateMutability":"view","type":"function"},{"inputs":[{"internalType":"uint256","name":"amount","type":"uint256"},{"internalType":"string","name":"redemptionId","type":"string"}],"name":"redeemGold","outputs":[],"stateMutability":"nonpayable","type":"function"},{"inputs":[],"name":"renounceOwnership","outputs":[],"stateMutability":"nonpayable","type":"function"},{"inputs":[],"name":"symbol","outputs":[{"internalType":"string","name":"","type":"string"}],"stateMutability":"view","type":"function"},{"inputs":[],"name":"totalGoldBacked","outputs":[{"internalType":"uint256","name":"","type":"uint256"}],"stateMutability":"view","type":"function"},{"inputs":[],"name":"totalSupply","outputs":[{"internalType":"uint256","name":"","type":"uint256"}],"stateMutability":"view","type":"function"},{"inputs":[{"internalType":"address","name":"to","type":"address"},{"internalType":"uint256","name":"amount","type":"uint256"}],"name":"transfer","outputs":[{"internalType":"bool","name":"","type":"bool"}],"stateMutability":"nonpayable","type":"function"},{"inputs":[{"internalType":"address","name":"from","type":"address"},{"internalType":"address","name":"to","type":"address"},{"internalType":"uint256","name":"amount","type":"uint256"}],"name":"transferFrom","outputs":[{"internalType":"bool","name":"","type":"bool"}],"stateMutability":"nonpayable","type":"function"},{"inputs":[{"internalType":"address","name":"newOwner","type":"address"}],"name":"transferOwnership","outputs":[],"stateMutability":"nonpayable","type":"function"},{"inputs":[],"name":"unpause","outputs":[],"stateMutability":"nonpayable","type":"function"},{"inputs":[{"internalType":"address","name":"newCustody","type":"address"}],"name":"updateCustodyContract","outputs":[],"stateMutability":"nonpayable","type":"function"},{"inputs":[],"name":"verifyGoldBacking","outputs":[{"internalType":"bool","name":"","type":"bool"}],"stateMutability":"view","type":"function"}],"evm":{"bytecode":{"linkReferences":{},"object":"60806040523480156200001157600080fd5b5060405162001a7838038062001a788339810160408190526200003491620001bd565b336040518060400160405280600f81526020016e212a27239023b7b632102a37b5b2b760891b8152506040518060400160405280600481526020016342544e4760e01b81525081600390816200008b919062000294565b5060046200009a828262000294565b5050506001600160a01b038116620000cd57604051631e4fbdf760e01b8152600060048201526024015b60405180910390fd5b620000d8816200016b565b5060016006556001600160a01b038116620001455760405162461bcd60e51b815260206004820152602660248201527f42544e47476f6c64546f6b656e3a20696e76616c696420637573746f6479206160448201526564647265737360d01b6064820152608401620000c4565b600780546001600160a01b0319166001600160a01b039290921691909117905562000360565b600580546001600160a01b038381166001600160a01b0319831681179093556040519116919082907f8be0079c531659141344cd1fd0a4f28419497f9722a3daafe3b4186f6b6457e090600090a35050565b600060208284031215620001d057600080fd5b81516001600160a01b0381168114620001e857600080fd5b9392505050565b634e487b7160e01b600052604160045260246000fd5b600181811c908216806200021a57607f821691505b6020821081036200023b57634e487b7160e01b600052602260045260246000fd5b50919050565b601f8211156200028f57600081815260208120601f850160051c810160208610156200026a5750805b601f850160051c820191505b818110156200028b5782815560010162000276565b5050505b505050565b81516001600160401b03811115620002b057620002b0620001ef565b620002c881620002c1845462000205565b8462000241565b602080601f831160018114620003005760008415620002e75750858301515b600019600386901b1c1916600185901b1785556200028b565b600085815260208120601f198616915b82811015620003315788860151825594840194600190910190840162000310565b5085821015620003505787850151600019600388901b60f8161c191681555b5050505050600190811b01905550565b61170880620003706000396000f3fe608060405234801561001057600080fd5b50600436106101da5760003560e01c8063716aef1b116101045780639a88a756116100a2578063dd62ed3e11610071578063dd62ed3e146103f3578063e1b5655b1461042c578063eec4c5521461043f578063f2fde38b1461046d57600080fd5b80639a88a756146103b1578063a9059cbb146103ba578063b8428ca1146103cd578063cbbfbdc1146103e057600080fd5b80638456cb59116100de5780638456cb59146103745780638da5cb5b1461037c578063911b9bfc146103a157806395d89b41146103a957600080fd5b8063716aef1b1461032557806371dbd5601461034e57806379cc67901461036157600080fd5b806332cb6b0c1161017c5780635c975abb1161014b5780635c975abb146102c25780636d02423f146102d457806370a08231146102f4578063715018a61461031d57600080fd5b806332cb6b0c1461028a5780633f4ba83a1461029d57806342966c68146102a757806359150da3146102ba57600080fd5b806318160ddd116101b857806318160ddd1461024e57806323b872dd14610260578063242824c314610273578063313ce5671461027b57600080fd5b806306fdde03146101df578063095ea7b3146101fd5780630aa8df4b14610220575b600080fd5b6101e7610480565b6040516101f491906112b0565b60405180910390f35b61021061020b36600461131a565b610512565b60405190151581526020016101f4565b61021061022e36600461135a565b805160208183018101805160098252928201919093012091525460ff1681565b6002545b6040519081526020016101f4565b61021061026e36600461140b565b61052c565b610252600181565b604051601281526020016101f4565b6102526b01b24513071a43532d00000081565b6102a56105fd565b005b6102a56102b5366004611447565b61060f565b600854610252565b600554600160a01b900460ff16610210565b6102526102e2366004611460565b600b6020526000908152604090205481565b610252610302366004611460565b6001600160a01b031660009081526020819052604090205490565b6102a561061c565b610252610333366004611460565b6001600160a01b03166000908152600b602052604090205490565b6102a561035c366004611460565b61062e565b6102a561036f36600461131a565b6106ed565b6102a5610706565b6005546001600160a01b03165b6040516001600160a01b0390911681526020016101f4565b610210610716565b6101e761073d565b61025260085481565b6102106103c836600461131a565b61074c565b6102a56103db3660046114cb565b610800565b6102a56103ee366004611517565b610a26565b610252610401366004611579565b6001600160a01b03918216600090815260016020908152604080832093909416825291909152205490565b600754610389906001600160a01b031681565b61021061044d36600461135a565b8051602081830181018051600a8252928201919093012091525460ff1681565b6102a561047b366004611460565b610d57565b60606003805461048f906115ac565b80601f01602080910402602001604051908101604052809291908181526020018280546104bb906115ac565b80156105085780601f106104dd57610100808354040283529160200191610508565b820191906000526020600020905b8154815290600101906020018083116104eb57829003601f168201915b5050505050905090565b600033610520818585610d92565b60019150505b92915050565b6000610536610d9f565b600061054a670de0b6b3a7640000846115fc565b6001600160a01b0386166000908152600b602052604090205490915081111561058e5760405162461bcd60e51b81526004016105859061161e565b60405180910390fd5b6001600160a01b0385166000908152600b6020526040812080548392906105b6908490611666565b90915550506001600160a01b0384166000908152600b6020526040812080548392906105e3908490611679565b909155506105f49050858585610dca565b95945050505050565b610605610dee565b61060d610e1b565b565b6106193382610e70565b50565b610624610dee565b61060d6000610ea6565b610636610dee565b6001600160a01b03811661069b5760405162461bcd60e51b815260206004820152602660248201527f42544e47476f6c64546f6b656e3a20696e76616c696420637573746f6479206160448201526564647265737360d01b6064820152608401610585565b600780546001600160a01b038381166001600160a01b0319831681179093556040519116919082907f755e356008e46f7f9733fedde8b72fdbe111d6956c3166ed6960a130b7208dac90600090a35050565b6106f8823383610ef8565b6107028282610e70565b5050565b61070e610dee565b61060d610f77565b6000670de0b6b3a764000061072a60025490565b61073491906115fc565b60085414905090565b60606004805461048f906115ac565b6000610756610d9f565b600061076a670de0b6b3a7640000846115fc565b336000908152600b602052604090205490915081111561079c5760405162461bcd60e51b81526004016105859061161e565b336000908152600b6020526040812080548392906107bb908490611666565b90915550506001600160a01b0384166000908152600b6020526040812080548392906107e8908490611679565b909155506107f890508484610fba565b949350505050565b610808610d9f565b610810610fc8565b600a828260405161082292919061168c565b9081526040519081900360200190205460ff16156108965760405162461bcd60e51b815260206004820152602b60248201527f42544e47476f6c64546f6b656e3a20726564656d7074696f6e20616c7265616460448201526a1e481c1c9bd8d95cdcd95960aa1b6064820152608401610585565b336000908152602081905260409020548311156109015760405162461bcd60e51b815260206004820152602360248201527f42544e47476f6c64546f6b656e3a20696e73756666696369656e742062616c616044820152626e636560e81b6064820152608401610585565b610913670de0b6b3a7640000846115fc565b336000908152600b602052604090205410156109415760405162461bcd60e51b81526004016105859061161e565b6001600a838360405161095592919061168c565b908152604051908190036020019020805491151560ff199092169190911790556000610989670de0b6b3a7640000856115fc565b9050806008600082825461099d9190611666565b9091555050336000908152600b6020526040812080548392906109c1908490611666565b909155506109d190503385610e70565b336001600160a01b03167f87e5ad42c3dc976c4282f20db8f08e6de3ed90e3d6550d99b728198447032b67858585604051610a0e9392919061169c565b60405180910390a250610a216001600655565b505050565b6007546001600160a01b03163314610a965760405162461bcd60e51b815260206004820152602d60248201527f42544e47476f6c64546f6b656e3a2063616c6c6572206973206e6f742063757360448201526c1d1bd91e4818dbdb9d1c9858dd609a1b6064820152608401610585565b610a9e610d9f565b8360008111610afe5760405162461bcd60e51b815260206004820152602660248201527f42544e47476f6c64546f6b656e3a20616d6f756e74206d75737420626520706f60448201526573697469766560d01b6064820152608401610585565b600254610b17906b01b24513071a43532d000000611666565b811115610b705760405162461bcd60e51b815260206004820152602160248201527f42544e47476f6c64546f6b656e3a2065786365656473206d617820737570706c6044820152607960f81b6064820152608401610585565b610b78610fc8565b60098484604051610b8a92919061168c565b9081526040519081900360200190205460ff1615610bfe5760405162461bcd60e51b815260206004820152602b60248201527f42544e47476f6c64546f6b656e3a20676f6c6420626174636820616c7265616460448201526a1e481c1c9bd8d95cdcd95960aa1b6064820152608401610585565b610c10670de0b6b3a7640000866115fc565b8214610c785760405162461bcd60e51b815260206004820152603160248201527f42544e47476f6c64546f6b656e3a20676f6c64206772616d73206d757374206d604482015270185d18da081d1bdad95b88185b5bdd5b9d607a1b6064820152608401610585565b600160098585604051610c8c92919061168c565b908152602001604051809103902060006101000a81548160ff0219169083151502179055508160086000828254610cc39190611679565b90915550506001600160a01b0386166000908152600b602052604081208054849290610cf0908490611679565b90915550610d0090508686610ff2565b856001600160a01b03167f5c6182ed76486d13a3d29be1bcd623409823e33da7738d8c29066ed63c677325868686604051610d3d9392919061169c565b60405180910390a2610d4f6001600655565b505050505050565b610d5f610dee565b6001600160a01b038116610d8957604051631e4fbdf760e01b815260006004820152602401610585565b61061981610ea6565b610a218383836001611028565b600554600160a01b900460ff161561060d5760405163d93c066560e01b815260040160405180910390fd5b600033610dd8858285610ef8565b610de38585856110fd565b506001949350505050565b6005546001600160a01b0316331461060d5760405163118cdaa760e01b8152336004820152602401610585565b610e2361115c565b6005805460ff60a01b191690557f5db9ee0a495bf2e6ff9c91a7834c1ba4fdd244a5e8aa4e537bd38aeae4b073aa335b6040516001600160a01b03909116815260200160405180910390a1565b6001600160a01b038216610e9a57604051634b637e8f60e11b815260006004820152602401610585565b61070282600083611186565b600580546001600160a01b038381166001600160a01b0319831681179093556040519116919082907f8be0079c531659141344cd1fd0a4f28419497f9722a3daafe3b4186f6b6457e090600090a35050565b6001600160a01b03838116600090815260016020908152604080832093861683529290522054600019811015610f715781811015610f6257604051637dc7a0d960e11b81526001600160a01b03841660048201526024810182905260448101839052606401610585565b610f7184848484036000611028565b50505050565b610f7f610d9f565b6005805460ff60a01b1916600160a01b1790557f62e78cea01bee320cd4e420270b5ea74000d11b0c9f74754ebdbfc544b05a258610e533390565b6000336105208185856110fd565b600260065403610feb57604051633ee5aeb560e01b815260040160405180910390fd5b6002600655565b6001600160a01b03821661101c5760405163ec442f0560e01b815260006004820152602401610585565b61070260008383611186565b6001600160a01b0384166110525760405163e602df0560e01b815260006004820152602401610585565b6001600160a01b03831661107c57604051634a1406b160e11b815260006004820152602401610585565b6001600160a01b0380851660009081526001602090815260408083209387168352929052208290558015610f7157826001600160a01b0316846001600160a01b03167f8c5be1e5ebec7d5bd14f71427d1e84f3dd0314c0f7b2291e5b200ac8c7c3b925846040516110ef91815260200190565b60405180910390a350505050565b6001600160a01b03831661112757604051634b637e8f60e11b815260006004820152602401610585565b6001600160a01b0382166111515760405163ec442f0560e01b815260006004820152602401610585565b610a21838383611186565b600554600160a01b900460ff1661060d57604051638dfc202b60e01b815260040160405180910390fd5b6001600160a01b0383166111b15780600260008282546111a69190611679565b909155506112239050565b6001600160a01b038316600090815260208190526040902054818110156112045760405163391434e360e21b81526001600160a01b03851660048201526024810182905260448101839052606401610585565b6001600160a01b03841660009081526020819052604090209082900390555b6001600160a01b03821661123f5760028054829003905561125e565b6001600160a01b03821660009081526020819052604090208054820190555b816001600160a01b0316836001600160a01b03167fddf252ad1be2c89b69c2b068fc378daa952ba7f163c4a11628f55a4df523b3ef836040516112a391815260200190565b60405180910390a3505050565b600060208083528351808285015260005b818110156112dd578581018301518582016040015282016112c1565b506000604082860101526040601f19601f8301168501019250505092915050565b80356001600160a01b038116811461131557600080fd5b919050565b6000806040838503121561132d57600080fd5b611336836112fe565b946020939093013593505050565b634e487b7160e01b600052604160045260246000fd5b60006020828403121561136c57600080fd5b813567ffffffffffffffff8082111561138457600080fd5b818401915084601f83011261139857600080fd5b8135818111156113aa576113aa611344565b604051601f8201601f19908116603f011681019083821181831017156113d2576113d2611344565b816040528281528760208487010111156113eb57600080fd5b826020860160208301376000928101602001929092525095945050505050565b60008060006060848603121561142057600080fd5b611429846112fe565b9250611437602085016112fe565b9150604084013590509250925092565b60006020828403121561145957600080fd5b5035919050565b60006020828403121561147257600080fd5b61147b826112fe565b9392505050565b60008083601f84011261149457600080fd5b50813567ffffffffffffffff8111156114ac57600080fd5b6020830191508360208285010111156114c457600080fd5b9250929050565b6000806000604084860312156114e057600080fd5b83359250602084013567ffffffffffffffff8111156114fe57600080fd5b61150a86828701611482565b9497909650939450505050565b60008060008060006080868803121561152f57600080fd5b611538866112fe565b945060208601359350604086013567ffffffffffffffff81111561155b57600080fd5b61156788828901611482565b96999598509660600135949350505050565b6000806040838503121561158c57600080fd5b611595836112fe565b91506115a3602084016112fe565b90509250929050565b600181811c908216806115c057607f821691505b6020821081036115e057634e487b7160e01b600052602260045260246000fd5b50919050565b634e487b7160e01b600052601160045260246000fd5b60008261161957634e487b7160e01b600052601260045260246000fd5b500490565b60208082526028908201527f42544e47476f6c64546f6b656e3a20696e73756666696369656e7420676f6c64604082015267206261636b696e6760c01b606082015260800190565b81810381811115610526576105266115e6565b80820180821115610526576105266115e6565b8183823760009101908152919050565b83815260406020820152816040820152818360608301376000818301606090810191909152601f909201601f191601019291505056fea264697066735822122088b14fbbbe9ec4245c066950e3c194a55b9a652945a0d20ad260c02d078bcad564736f6c63430008140033","opcodes":"PUSH1 0x80 PUSH1 0x40 MSTORE CALLVALUE DUP1 ISZERO PUSH3 0x11 JUMPI PUSH1 0x0 DUP1 REVERT JUMPDEST POP PUSH1 0x40 MLOAD PUSH3 0x1A78 CODESIZE SUB DUP1 PUSH3 0x1A78 DUP4 CODECOPY DUP2 ADD PUSH1 0x40 DUP2 SWAP1 MSTORE PUSH3 0x34 SWAP2 PUSH3 0x1BD JUMP JUMPDEST CALLER PUSH1 0x40 MLOAD DUP1 PUSH1 0x40 ADD PUSH1 0x40 MSTORE DUP1 PUSH1 0xF DUP2 MSTORE PUSH1 0x20 ADD PUSH15 0x212A27239023B7B632102A37B5B2B7 PUSH1 0x89 SHL DUP2 MSTORE POP PUSH1 0x40 MLOAD DUP1 PUSH1 0x40 ADD PUSH1 0x40 MSTORE DUP1 PUSH1 0x4 DUP2 MSTORE PUSH1 0x20 ADD PUSH4 0x42544E47 PUSH1 0xE0 SHL DUP2 MSTORE POP DUP2 PUSH1 0x3 SWAP1 DUP2 PUSH3 0x8B SWAP2 SWAP1 PUSH3 0x294 JUMP JUMPDEST POP PUSH1 0x4 PUSH3 0x9A DUP3 DUP3 PUSH3 0x294 JUMP JUMPDEST POP POP POP PUSH1 0x1 PUSH1 0x1 PUSH1 0xA0 SHL SUB DUP2 AND PUSH3 0xCD JUMPI PUSH1 0x40 MLOAD PUSH4 0x1E4FBDF7 PUSH1 0xE0 SHL DUP2 MSTORE PUSH1 0x0 PUSH1 0x4 DUP3 ADD MSTORE PUSH1 0x24 ADD JUMPDEST PUSH1 0x40 MLOAD DUP1 SWAP2 SUB SWAP1 REVERT JUMPDEST PUSH3 0xD8 DUP2 PUSH3 0x16B JUMP JUMPDEST POP PUSH1 0x1 PUSH1 0x6 SSTORE PUSH1 0x1 PUSH1 0x1 PUSH1 0xA0 SHL SUB DUP2 AND PUSH3 0x145 JUMPI PUSH1 0x40 MLOAD PUSH3 0x461BCD PUSH1 0xE5 SHL DUP2 MSTORE PUSH1 0x20 PUSH1 0x4 DUP3 ADD MSTORE PUSH1 0x26 PUSH1 0x24 DUP3 ADD MSTORE PUSH32 0x42544E47476F6C64546F6B656E3A20696E76616C696420637573746F64792061 PUSH1 0x44 DUP3 ADD MSTORE PUSH6 0x646472657373 PUSH1 0xD0 SHL PUSH1 0x64 DUP3 ADD MSTORE PUSH1 0x84 ADD PUSH3 0xC4 JUMP JUMPDEST PUSH1 0x7 DUP1 SLOAD PUSH1 0x1 PUSH1 0x1 PUSH1 0xA0 SHL SUB NOT AND PUSH1 0x1 PUSH1 0x1 PUSH1 0xA0 SHL SUB SWAP3 SWAP1 SWAP3 AND SWAP2 SWAP1 SWAP2 OR SWAP1 SSTORE PUSH3 0x360 JUMP JUMPDEST PUSH1 0x5 DUP1 SLOAD PUSH1 0x1 PUSH1 0x1 PUSH1 0xA0 SHL SUB DUP4 DUP2 AND PUSH1 0x1 PUSH1 0x1 PUSH1 0xA0 SHL SUB NOT DUP4 AND DUP2 OR SWAP1 SWAP4 SSTORE PUSH1 0x40 MLOAD SWAP2 AND SWAP2 SWAP1 DUP3 SWAP1 PUSH32 0x8BE0079C531659141344CD1FD0A4F28419497F9722A3DAAFE3B4186F6B6457E0 SWAP1 PUSH1 0x0 SWAP1 LOG3 POP POP JUMP JUMPDEST PUSH1 0x0 PUSH1 0x20 DUP3 DUP5 SUB SLT ISZERO PUSH3 0x1D0 JUMPI PUSH1 0x0 DUP1 REVERT JUMPDEST DUP2 MLOAD PUSH1 0x1 PUSH1 0x1 PUSH1 0xA0 SHL SUB DUP2 AND DUP2 EQ PUSH3 0x1E8 JUMPI PUSH1 0x0 DUP1 REVERT JUMPDEST SWAP4 SWAP3 POP POP POP JUMP JUMPDEST PUSH4 0x4E487B71 PUSH1 0xE0 SHL PUSH1 0x0 MSTORE PUSH1 0x41 PUSH1 0x4 MSTORE PUSH1 0x24 PUSH1 0x0 REVERT JUMPDEST PUSH1 0x1 DUP2 DUP2 SHR SWAP1 DUP3 AND DUP1 PUSH3 0x21A JUMPI PUSH1 0x7F DUP3 AND SWAP2 POP JUMPDEST PUSH1 0x20 DUP3 LT DUP2 SUB PUSH3 0x23B JUMPI PUSH4 0x4E487B71 PUSH1 0xE0 SHL PUSH1 0x0 MSTORE PUSH1 0x22 PUSH1 0x4 MSTORE PUSH1 0x24 PUSH1 0x0 REVERT JUMPDEST POP SWAP2 SWAP1 POP JUMP JUMPDEST PUSH1 0x1F DUP3 GT ISZERO PUSH3 0x28F JUMPI PUSH1 0x0 DUP2 DUP2 MSTORE PUSH1 0x20 DUP2 KECCAK256 PUSH1 0x1F DUP6 ADD PUSH1 0x5 SHR DUP2 ADD PUSH1 0x20 DUP7 LT ISZERO PUSH3 0x26A JUMPI POP DUP1 JUMPDEST PUSH1 0x1F DUP6 ADD PUSH1 0x5 SHR DUP3 ADD SWAP2 POP JUMPDEST DUP2 DUP2 LT ISZERO PUSH3 0x28B JUMPI DUP3 DUP2 SSTORE PUSH1 0x1 ADD PUSH3 0x276 JUMP JUMPDEST POP POP POP JUMPDEST POP POP POP JUMP JUMPDEST DUP2 MLOAD PUSH1 0x1 PUSH1 0x1 PUSH1 0x40 SHL SUB DUP2 GT ISZERO PUSH3 0x2B0 JUMPI PUSH3 0x2B0 PUSH3 0x1EF JUMP JUMPDEST PUSH3 0x2C8 DUP2 PUSH3 0x2C1 DUP5 SLOAD PUSH3 0x205 JUMP JUMPDEST DUP5 PUSH3 0x241 JUMP JUMPDEST PUSH1 0x20 DUP1 PUSH1 0x1F DUP4 GT PUSH1 0x1 DUP2 EQ PUSH3 0x300 JUMPI PUSH1 0x0 DUP5 ISZERO PUSH3 0x2E7 JUMPI POP DUP6 DUP4 ADD MLOAD JUMPDEST PUSH1 0x0 NOT PUSH1 0x3 DUP7 SWAP1 SHL SHR NOT AND PUSH1 0x1 DUP6 SWAP1 SHL OR DUP6 SSTORE PUSH3 0x28B JUMP JUMPDEST PUSH1 0x0 DUP6 DUP2 MSTORE PUSH1 0x20 DUP2 KECCAK256 PUSH1 0x1F NOT DUP7 AND SWAP2 JUMPDEST DUP3 DUP2 LT ISZERO PUSH3 0x331 JUMPI DUP9 DUP7 ADD MLOAD DUP3 SSTORE SWAP5 DUP5 ADD SWAP5 PUSH1 0x1 SWAP1 SWAP2 ADD SWAP1 DUP5 ADD PUSH3 0x310 JUMP JUMPDEST POP DUP6 DUP3 LT ISZERO PUSH3 0x350 JUMPI DUP8 DUP6 ADD MLOAD PUSH1 0x0 NOT PUSH1 0x3 DUP9 SWAP1 SHL PUSH1 0xF8 AND SHR NOT AND DUP2 SSTORE JUMPDEST POP POP POP POP POP PUSH1 0x1 SWAP1 DUP2 SHL ADD SWAP1 SSTORE POP JUMP JUMPDEST PUSH2 0x1708 DUP1 PUSH3 0x370 PUSH1 0x0 CODECOPY PUSH1 0x0 RETURN INVALID PUSH1 0x80 PUSH1 0x40 MSTORE CALLVALUE DUP1 ISZERO PUSH2 0x10 JUMPI PUSH1 0x0 DUP1 REVERT JUMPDEST POP PUSH1 0x4 CALLDATASIZE LT PUSH2 0x1DA JUMPI PUSH1 0x0 CALLDATALOAD PUSH1 0xE0 SHR DUP1 PUSH4 0x716AEF1B GT PUSH2 0x104 JUMPI DUP1 PUSH4 0x9A88A756 GT PUSH2 0xA2 JUMPI DUP1 PUSH4 0xDD62ED3E GT PUSH2 0x71 JUMPI DUP1 PUSH4 0xDD62ED3E EQ PUSH2 0x3F3 JUMPI DUP1 PUSH4 0xE1B5655B EQ PUSH2 0x42C JUMPI DUP1 PUSH4 0xEEC4C552 EQ PUSH2 0x43F JUMPI DUP1 PUSH4 0xF2FDE38B EQ PUSH2 0x46D JUMPI PUSH1 0x0 DUP1 REVERT JUMPDEST DUP1 PUSH4 0x9A88A756 EQ PUSH2 0x3B1 JUMPI DUP1 PUSH4 0xA9059CBB EQ PUSH2 0x3BA JUMPI DUP1 PUSH4 0xB8428CA1 EQ PUSH2 0x3CD JUMPI DUP1 PUSH4 0xCBBFBDC1 EQ PUSH2 0x3E0 JUMPI PUSH1 0x0 DUP1 REVERT JUMPDEST DUP1 PUSH4 0x8456CB59 GT PUSH2 0xDE JUMPI DUP1 PUSH4 0x8456CB59 EQ PUSH2 0x374 JUMPI DUP1 PUSH4 0x8DA5CB5B EQ PUSH2 0x37C JUMPI DUP1 PUSH4 0x911B9BFC EQ PUSH2 0x3A1 JUMPI DUP1 PUSH4 0x95D89B41 EQ PUSH2 0x3A9 JUMPI PUSH1 0x0 DUP1 REVERT JUMPDEST DUP1 PUSH4 0x716AEF1B EQ PUSH2 0x325 JUMPI DUP1 PUSH4 0x71DBD560 EQ PUSH2 0x34E JUMPI DUP1 PUSH4 0x79CC6790 EQ PUSH2 0x361 JUMPI PUSH1 0x0 DUP1 REVERT JUMPDEST DUP1 PUSH4 0x32CB6B0C GT PUSH2 0x17C JUMPI DUP1 PUSH4 0x5C975ABB GT PUSH2 0x14B JUMPI DUP1 PUSH4 0x5C975ABB EQ PUSH2 0x2C2 JUMPI DUP1 PUSH4 0x6D02423F EQ PUSH2 0x2D4 JUMPI DUP1 PUSH4 0x70A08231 EQ PUSH2 0x2F4 JUMPI DUP1 PUSH4 0x715018A6 EQ PUSH2 0x31D JUMPI PUSH1 0x0 DUP1 REVERT JUMPDEST DUP1 PUSH4 0x32CB6B0C EQ PUSH2 0x28A JUMPI DUP1 PUSH4 0x3F4BA83A EQ PUSH2 0x29D JUMPI DUP1 PUSH4 0x42966C68 EQ PUSH2 0x2A7 JUMPI DUP1 PUSH4 0x59150DA3 EQ PUSH2 0x2BA JUMPI PUSH1 0x0 DUP1 REVERT JUMPDEST DUP1 PUSH4 0x18160DDD GT PUSH2 0x1B8 JUMPI DUP1 PUSH4 0x18160DDD EQ PUSH2 0x24E JUMPI DUP1 PUSH4 0x23B872DD EQ PUSH2 0x260 JUMPI DUP1 PUSH4 0x242824C3 EQ PUSH2 0x273 JUMPI DUP1 PUSH4 0x313CE567 EQ PUSH2 0x27B JUMPI PUSH1 0x0 DUP1 REVERT JUMPDEST DUP1 PUSH4 0x6FDDE03 EQ PUSH2 0x1DF JUMPI DUP1 PUSH4 0x95EA7B3 EQ PUSH2 0x1FD JUMPI DUP1 PUSH4 0xAA8DF4B EQ PUSH2 0x220 JUMPI JUMPDEST PUSH1 0x0 DUP1 REVERT JUMPDEST PUSH2 0x1E7 PUSH2 0x480 JUMP JUMPDEST PUSH1 0x40 MLOAD PUSH2 0x1F4 SWAP2 SWAP1 PUSH2 0x12B0 JUMP JUMPDEST PUSH1 0x40 MLOAD DUP1 SWAP2 SUB SWAP1 RETURN JUMPDEST PUSH2 0x210 PUSH2 0x20B CALLDATASIZE PUSH1 0x4 PUSH2 0x131A JUMP JUMPDEST PUSH2 0x512 JUMP JUMPDEST PUSH1 0x40 MLOAD SWAP1 ISZERO ISZERO DUP2 MSTORE PUSH1 0x20 ADD PUSH2 0x1F4 JUMP JUMPDEST PUSH2 0x210 PUSH2 0x22E CALLDATASIZE PUSH1 0x4 PUSH2 0x135A JUMP JUMPDEST DUP1 MLOAD PUSH1 0x20 DUP2 DUP4 ADD DUP2 ADD DUP1 MLOAD PUSH1 0x9 DUP3 MSTORE SWAP3 DUP3 ADD SWAP2 SWAP1 SWAP4 ADD KECCAK256 SWAP2 MSTORE SLOAD PUSH1 0xFF AND DUP2 JUMP JUMPDEST PUSH1 0x2 SLOAD JUMPDEST PUSH1 0x40 MLOAD SWAP1 DUP2 MSTORE PUSH1 0x20 ADD PUSH2 0x1F4 JUMP JUMPDEST PUSH2 0x210 PUSH2 0x26E CALLDATASIZE PUSH1 0x4 PUSH2 0x140B JUMP JUMPDEST PUSH2 0x52C JUMP JUMPDEST PUSH2 0x252 PUSH1 0x1 DUP2 JUMP JUMPDEST PUSH1 0x40 MLOAD PUSH1 0x12 DUP2 MSTORE PUSH1 0x20 ADD PUSH2 0x1F4 JUMP JUMPDEST PUSH2 0x252 PUSH12 0x1B24513071A43532D000000 DUP2 JUMP JUMPDEST PUSH2 0x2A5 PUSH2 0x5FD JUMP JUMPDEST STOP JUMPDEST PUSH2 0x2A5 PUSH2 0x2B5 CALLDATASIZE PUSH1 0x4 PUSH2 0x1447 JUMP JUMPDEST PUSH2 0x60F JUMP JUMPDEST PUSH1 0x8 SLOAD PUSH2 0x252 JUMP JUMPDEST PUSH1 0x5 SLOAD PUSH1 0x1 PUSH1 0xA0 SHL SWAP1 DIV PUSH1 0xFF AND PUSH2 0x210 JUMP JUMPDEST PUSH2 0x252 PUSH2 0x2E2 CALLDATASIZE PUSH1 0x4 PUSH2 0x1460 JUMP JUMPDEST PUSH1 0xB PUSH1 0x20 MSTORE PUSH1 0x0 SWAP1 DUP2 MSTORE PUSH1 0x40 SWAP1 KECCAK256 SLOAD DUP2 JUMP JUMPDEST PUSH2 0x252 PUSH2 0x302 CALLDATASIZE PUSH1 0x4 PUSH2 0x1460 JUMP JUMPDEST PUSH1 0x1 PUSH1 0x1 PUSH1 0xA0 SHL SUB AND PUSH1 0x0 SWAP1 DUP2 MSTORE PUSH1 0x20 DUP2 SWAP1 MSTORE PUSH1 0x40 SWAP1 KECCAK256 SLOAD SWAP1 JUMP JUMPDEST PUSH2 0x2A5 PUSH2 0x61C JUMP JUMPDEST PUSH2 0x252 PUSH2 0x333 CALLDATASIZE PUSH1 0x4 PUSH2 0x1460 JUMP JUMPDEST PUSH1 0x1 PUSH1 0x1 PUSH1 0xA0 SHL SUB AND PUSH1 0x0 SWAP1 DUP2 MSTORE PUSH1 0xB PUSH1 0x20 MSTORE PUSH1 0x40 SWAP1 KECCAK256 SLOAD SWAP1 JUMP JUMPDEST PUSH2 0x2A5 PUSH2 0x35C CALLDATASIZE PUSH1 0x4 PUSH2 0x1460 JUMP JUMPDEST PUSH2 0x62E JUMP JUMPDEST PUSH2 0x2A5 PUSH2 0x36F CALLDATASIZE PUSH1 0x4 PUSH2 0x131A JUMP JUMPDEST PUSH2 0x6ED JUMP JUMPDEST PUSH2 0x2A5 PUSH2 0x706 JUMP JUMPDEST PUSH1 0x5 SLOAD PUSH1 0x1 PUSH1 0x1 PUSH1 0xA0 SHL SUB AND JUMPDEST PUSH1 0x40 MLOAD PUSH1 0x1 PUSH1 0x1 PUSH1 0xA0 SHL SUB SWAP1 SWAP2 AND DUP2 MSTORE PUSH1 0x20 ADD PUSH2 0x1F4 JUMP JUMPDEST PUSH2 0x210 PUSH2 0x716 JUMP JUMPDEST PUSH2 0x1E7 PUSH2 0x73D JUMP JUMPDEST PUSH2 0x252 PUSH1 0x8 SLOAD DUP2 JUMP JUMPDEST PUSH2 0x210 PUSH2 0x3C8 CALLDATASIZE PUSH1 0x4 PUSH2 0x131A JUMP JUMPDEST PUSH2 0x74C JUMP JUMPDEST PUSH2 0x2A5 PUSH2 0x3DB CALLDATASIZE PUSH1 0x4 PUSH2 0x14CB JUMP JUMPDEST PUSH2 0x800 JUMP JUMPDEST PUSH2 0x2A5 PUSH2 0x3EE CALLDATASIZE PUSH1 0x4 PUSH2 0x1517 JUMP JUMPDEST PUSH2 0xA26 JUMP JUMPDEST PUSH2 0x252 PUSH2 0x401 CALLDATASIZE PUSH1 0x4 PUSH2 0x1579 JUMP JUMPDEST PUSH1 0x1 PUSH1 0x1 PUSH1 0xA0 SHL SUB SWAP2 DUP3 AND PUSH1 0x0 SWAP1 DUP2 MSTORE PUSH1 0x1 PUSH1 0x20 SWAP1 DUP2 MSTORE PUSH1 0x40 DUP1 DUP4 KECCAK256 SWAP4 SWAP1 SWAP5 AND DUP3 MSTORE SWAP2 SWAP1 SWAP2 MSTORE KECCAK256 SLOAD SWAP1 JUMP JUMPDEST PUSH1 0x7 SLOAD PUSH2 0x389 SWAP1 PUSH1 0x1 PUSH1 0x1 PUSH1 0xA0 SHL SUB AND DUP2 JUMP JUMPDEST PUSH2 0x210 PUSH2 0x44D CALLDATASIZE PUSH1 0x4 PUSH2 0x135A JUMP JUMPDEST DUP1 MLOAD PUSH1 0x20 DUP2 DUP4 ADD DUP2 ADD DUP1 MLOAD PUSH1 0xA DUP3 MSTORE SWAP3 DUP3 ADD SWAP2 SWAP1 SWAP4 ADD KECCAK256 SWAP2 MSTORE SLOAD PUSH1 0xFF AND DUP2 JUMP JUMPDEST PUSH2 0x2A5 PUSH2 0x47B CALLDATASIZE PUSH1 0x4 PUSH2 0x1460 JUMP JUMPDEST PUSH2 0xD57 JUMP JUMPDEST PUSH1 0x60 PUSH1 0x3 DUP1 SLOAD PUSH2 0x48F SWAP1 PUSH2 0x15AC JUMP JUMPDEST DUP1 PUSH1 0x1F ADD PUSH1 0x20 DUP1 SWAP2 DIV MUL PUSH1 0x20 ADD PUSH1 0x40 MLOAD SWAP1 DUP2 ADD PUSH1 0x40 MSTORE DUP1 SWAP3 SWAP2 SWAP1 DUP2 DUP2 MSTORE PUSH1 0x20 ADD DUP3 DUP1 SLOAD PUSH2 0x4BB SWAP1 PUSH2 0x15AC JUMP JUMPDEST DUP1 ISZERO PUSH2 0x508 JUMPI DUP1 PUSH1 0x1F LT PUSH2 0x4DD JUMPI PUSH2 0x100 DUP1 DUP4 SLOAD DIV MUL DUP4 MSTORE SWAP2 PUSH1 0x20 ADD SWAP2 PUSH2 0x508 JUMP JUMPDEST DUP3 ADD SWAP2 SWAP1 PUSH1 0x0 MSTORE PUSH1 0x20 PUSH1 0x0 KECCAK256 SWAP1 JUMPDEST DUP2 SLOAD DUP2 MSTORE SWAP1 PUSH1 0x1 ADD SWAP1 PUSH1 0x20 ADD DUP1 DUP4 GT PUSH2 0x4EB JUMPI DUP3 SWAP1 SUB PUSH1 0x1F AND DUP3 ADD SWAP2 JUMPDEST POP POP POP POP POP SWAP1 POP SWAP1 JUMP JUMPDEST PUSH1 0x0 CALLER PUSH2 0x520 DUP2 DUP6 DUP6 PUSH2 0xD92 JUMP JUMPDEST PUSH1 0x1 SWAP2 POP POP JUMPDEST SWAP3 SWAP2 POP POP JUMP JUMPDEST PUSH1 0x0 PUSH2 0x536 PUSH2 0xD9F JUMP JUMPDEST PUSH1 0x0 PUSH2 0x54A PUSH8 0xDE0B6B3A7640000 DUP5 PUSH2 0x15FC JUMP JUMPDEST PUSH1 0x1 PUSH1 0x1 PUSH1 0xA0 SHL SUB DUP7 AND PUSH1 0x0 SWAP1 DUP2 MSTORE PUSH1 0xB PUSH1 0x20 MSTORE PUSH1 0x40 SWAP1 KECCAK256 SLOAD SWAP1 SWAP2 POP DUP2 GT ISZERO PUSH2 0x58E JUMPI PUSH1 0x40 MLOAD PUSH3 0x461BCD PUSH1 0xE5 SHL DUP2 MSTORE PUSH1 0x4 ADD PUSH2 0x585 SWAP1 PUSH2 0x161E JUMP JUMPDEST PUSH1 0x40 MLOAD DUP1 SWAP2 SUB SWAP1 REVERT JUMPDEST PUSH1 0x1 PUSH1 0x1 PUSH1 0xA0 SHL SUB DUP6 AND PUSH1 0x0 SWAP1 DUP2 MSTORE PUSH1 0xB PUSH1 0x20 MSTORE PUSH1 0x40 DUP2 KECCAK256 DUP1 SLOAD DUP4 SWAP3 SWAP1 PUSH2 0x5B6 SWAP1 DUP5 SWAP1 PUSH2 0x1666 JUMP JUMPDEST SWAP1 SWAP2 SSTORE POP POP PUSH1 0x1 PUSH1 0x1 PUSH1 0xA0 SHL SUB DUP5 AND PUSH1 0x0 SWAP1 DUP2 MSTORE PUSH1 0xB PUSH1 0x20 MSTORE PUSH1 0x40 DUP2 KECCAK256 DUP1 SLOAD DUP4 SWAP3 SWAP1 PUSH2 0x5E3 SWAP1 DUP5 SWAP1 PUSH2 0x1679 JUMP JUMPDEST SWAP1 SWAP2 SSTORE POP PUSH2 0x5F4 SWAP1 POP DUP6 DUP6 DUP6 PUSH2 0xDCA JUMP JUMPDEST SWAP6 SWAP5 POP POP POP POP POP JUMP JUMPDEST PUSH2 0x605 PUSH2 0xDEE JUMP JUMPDEST PUSH2 0x60D PUSH2 0xE1B JUMP JUMPDEST JUMP JUMPDEST PUSH2 0x619 CALLER DUP3 PUSH2 0xE70 JUMP JUMPDEST POP JUMP JUMPDEST PUSH2 0x624 PUSH2 0xDEE JUMP JUMPDEST PUSH2 0x60D PUSH1 0x0 PUSH2 0xEA6 JUMP JUMPDEST PUSH2 0x636 PUSH2 0xDEE JUMP JUMPDEST PUSH1 0x1 PUSH1 0x1 PUSH1 0xA0 SHL SUB DUP2 AND PUSH2 0x69B JUMPI PUSH1 0x40 MLOAD PUSH3 0x461BCD PUSH1 0xE5 SHL DUP2 MSTORE PUSH1 0x20 PUSH1 0x4 DUP3 ADD MSTORE PUSH1 0x26 PUSH1 0x24 DUP3 ADD MSTORE PUSH32 0x42544E47476F6C64546F6B656E3A20696E76616C696420637573746F64792061 PUSH1 0x44 DUP3 ADD MSTORE PUSH6 0x646472657373 PUSH1 0xD0 SHL PUSH1 0x64 DUP3 ADD MSTORE PUSH1 0x84 ADD PUSH2 0x585 JUMP JUMPDEST PUSH1 0x7 DUP1 SLOAD PUSH1 0x1 PUSH1 0x1 PUSH1 0xA0 SHL SUB DUP4 DUP2 AND PUSH1 0x1 PUSH1 0x1 PUSH1 0xA0 SHL SUB NOT DUP4 AND DUP2 OR SWAP1 SWAP4 SSTORE PUSH1 0x40 MLOAD SWAP2 AND SWAP2 SWAP1 DUP3 SWAP1 PUSH32 0x755E356008E46F7F9733FEDDE8B72FDBE111D6956C3166ED6960A130B7208DAC SWAP1 PUSH1 0x0 SWAP1 LOG3 POP POP JUMP JUMPDEST PUSH2 0x6F8 DUP3 CALLER DUP4 PUSH2 0xEF8 JUMP JUMPDEST PUSH2 0x702 DUP3 DUP3 PUSH2 0xE70 JUMP JUMPDEST POP POP JUMP JUMPDEST PUSH2 0x70E PUSH2 0xDEE JUMP JUMPDEST PUSH2 0x60D PUSH2 0xF77 JUMP JUMPDEST PUSH1 0x0 PUSH8 0xDE0B6B3A7640000 PUSH2 0x72A PUSH1 0x2 SLOAD SWAP1 JUMP JUMPDEST PUSH2 0x734 SWAP2 SWAP1 PUSH2 0x15FC JUMP JUMPDEST PUSH1 0x8 SLOAD EQ SWAP1 POP SWAP1 JUMP JUMPDEST PUSH1 0x60 PUSH1 0x4 DUP1 SLOAD PUSH2 0x48F SWAP1 PUSH2 0x15AC JUMP JUMPDEST PUSH1 0x0 PUSH2 0x756 PUSH2 0xD9F JUMP JUMPDEST PUSH1 0x0 PUSH2 0x76A PUSH8 0xDE0B6B3A7640000 DUP5 PUSH2 0x15FC JUMP JUMPDEST CALLER PUSH1 0x0 SWAP1 DUP2 MSTORE PUSH1 0xB PUSH1 0x20 MSTORE PUSH1 0x40 SWAP1 KECCAK256 SLOAD SWAP1 SWAP2 POP DUP2 GT ISZERO PUSH2 0x79C JUMPI PUSH1 0x40 MLOAD PUSH3 0x461BCD PUSH1 0xE5 SHL DUP2 MSTORE PUSH1 0x4 ADD PUSH2 0x585 SWAP1 PUSH2 0x161E JUMP JUMPDEST CALLER PUSH1 0x0 SWAP1 DUP2 MSTORE PUSH1 0xB PUSH1 0x20 MSTORE PUSH1 0x40 DUP2 KECCAK256 DUP1 SLOAD DUP4 SWAP3 SWAP1 PUSH2 0x7BB SWAP1 DUP5 SWAP1 PUSH2 0x1666 JUMP JUMPDEST SWAP1 SWAP2 SSTORE POP POP PUSH1 0x1 PUSH1 0x1 PUSH1 0xA0 SHL SUB DUP5 AND PUSH1 0x0 SWAP1 DUP2 MSTORE PUSH1 0xB PUSH1 0x20 MSTORE PUSH1 0x40 DUP2 KECCAK256 DUP1 SLOAD DUP4 SWAP3 SWAP1 PUSH2 0x7E8 SWAP1 DUP5 SWAP1 PUSH2 0x1679 JUMP JUMPDEST SWAP1 SWAP2 SSTORE POP PUSH2 0x7F8 SWAP1 POP DUP5 DUP5 PUSH2 0xFBA JUMP JUMPDEST SWAP5 SWAP4 POP POP POP POP JUMP JUMPDEST PUSH2 0x808 PUSH2 0xD9F JUMP JUMPDEST PUSH2 0x810 PUSH2 0xFC8 JUMP JUMPDEST PUSH1 0xA DUP3 DUP3 PUSH1 0x40 MLOAD PUSH2 0x822 SWAP3 SWAP2 SWAP1 PUSH2 0x168C JUMP JUMPDEST SWAP1 DUP2 MSTORE PUSH1 0x40 MLOAD SWAP1 DUP2 SWAP1 SUB PUSH1 0x20 ADD SWAP1 KECCAK256 SLOAD PUSH1 0xFF AND ISZERO PUSH2 0x896 JUMPI PUSH1 0x40 MLOAD PUSH3 0x461BCD PUSH1 0xE5 SHL DUP2 MSTORE PUSH1 0x20 PUSH1 0x4 DUP3 ADD MSTORE PUSH1 0x2B PUSH1 0x24 DUP3 ADD MSTORE PUSH32 0x42544E47476F6C64546F6B656E3A20726564656D7074696F6E20616C72656164 PUSH1 0x44 DUP3 ADD MSTORE PUSH11 0x1E481C1C9BD8D95CDCD959 PUSH1 0xAA SHL PUSH1 0x64 DUP3 ADD MSTORE PUSH1 0x84 ADD PUSH2 0x585 JUMP JUMPDEST CALLER PUSH1 0x0 SWAP1 DUP2 MSTORE PUSH1 0x20 DUP2 SWAP1 MSTORE PUSH1 0x40 SWAP1 KECCAK256 SLOAD DUP4 GT ISZERO PUSH2 0x901 JUMPI PUSH1 0x40 MLOAD PUSH3 0x461BCD PUSH1 0xE5 SHL DUP2 MSTORE PUSH1 0x20 PUSH1 0x4 DUP3 ADD MSTORE PUSH1 0x23 PUSH1 0x24 DUP3 ADD MSTORE PUSH32 0x42544E47476F6C64546F6B656E3A20696E73756666696369656E742062616C61 PUSH1 0x44 DUP3 ADD MSTORE PUSH3 0x6E6365 PUSH1 0xE8 SHL PUSH1 0x64 DUP3 ADD MSTORE PUSH1 0x84 ADD PUSH2 0x585 JUMP JUMPDEST PUSH2 0x913 PUSH8 0xDE0B6B3A7640000 DUP5 PUSH2 0x15FC JUMP JUMPDEST CALLER PUSH1 0x0 SWAP1 DUP2 MSTORE PUSH1 0xB PUSH1 0x20 MSTORE PUSH1 0x40 SWAP1 KECCAK256 SLOAD LT ISZERO PUSH2 0x941 JUMPI PUSH1 0x40 MLOAD PUSH3 0x461BCD PUSH1 0xE5 SHL DUP2 MSTORE PUSH1 0x4 ADD PUSH2 0x585 SWAP1 PUSH2 0x161E JUMP JUMPDEST PUSH1 0x1 PUSH1 0xA DUP4 DUP4 PUSH1 0x40 MLOAD PUSH2 0x955 SWAP3 SWAP2 SWAP1 PUSH2 0x168C JUMP JUMPDEST SWAP1 DUP2 MSTORE PUSH1 0x40 MLOAD SWAP1 DUP2 SWAP1 SUB PUSH1 0x20 ADD SWAP1 KECCAK256 DUP1 SLOAD SWAP2 ISZERO ISZERO PUSH1 0xFF NOT SWAP1 SWAP3 AND SWAP2 SWAP1 SWAP2 OR SWAP1 SSTORE PUSH1 0x0 PUSH2 0x989 PUSH8 0xDE0B6B3A7640000 DUP6 PUSH2 0x15FC JUMP JUMPDEST SWAP1 POP DUP1 PUSH1 0x8 PUSH1 0x0 DUP3 DUP3 SLOAD PUSH2 0x99D SWAP2 SWAP1 PUSH2 0x1666 JUMP JUMPDEST SWAP1 SWAP2 SSTORE POP POP CALLER PUSH1 0x0 SWAP1 DUP2 MSTORE PUSH1 0xB PUSH1 0x20 MSTORE PUSH1 0x40 DUP2 KECCAK256 DUP1 SLOAD DUP4 SWAP3 SWAP1 PUSH2 0x9C1 SWAP1 DUP5 SWAP1 PUSH2 0x1666 JUMP JUMPDEST SWAP1 SWAP2 SSTORE POP PUSH2 0x9D1 SWAP1 POP CALLER DUP6 PUSH2 0xE70 JUMP JUMPDEST CALLER PUSH1 0x1 PUSH1 0x1 PUSH1 0xA0 SHL SUB AND PUSH32 0x87E5AD42C3DC976C4282F20DB8F08E6DE3ED90E3D6550D99B728198447032B67 DUP6 DUP6 DUP6 PUSH1 0x40 MLOAD PUSH2 0xA0E SWAP4 SWAP3 SWAP2 SWAP1 PUSH2 0x169C JUMP JUMPDEST PUSH1 0x40 MLOAD DUP1 SWAP2 SUB SWAP1 LOG2 POP PUSH2 0xA21 PUSH1 0x1 PUSH1 0x6 SSTORE JUMP JUMPDEST POP POP POP JUMP JUMPDEST PUSH1 0x7 SLOAD PUSH1 0x1 PUSH1 0x1 PUSH1 0xA0 SHL SUB AND CALLER EQ PUSH2 0xA96 JUMPI PUSH1 0x40 MLOAD PUSH3 0x461BCD PUSH1 0xE5 SHL DUP2 MSTORE PUSH1 0x20 PUSH1 0x4 DUP3 ADD MSTORE PUSH1 0x2D PUSH1 0x24 DUP3 ADD MSTORE PUSH32 0x42544E47476F6C64546F6B656E3A2063616C6C6572206973206E6F7420637573 PUSH1 0x44 DUP3 ADD MSTORE PUSH13 0x1D1BD91E4818DBDB9D1C9858DD PUSH1 0x9A SHL PUSH1 0x64 DUP3 ADD MSTORE PUSH1 0x84 ADD PUSH2 0x585 JUMP JUMPDEST PUSH2 0xA9E PUSH2 0xD9F JUMP JUMPDEST DUP4 PUSH1 0x0 DUP2 GT PUSH2 0xAFE JUMPI PUSH1 0x40 MLOAD PUSH3 0x461BCD PUSH1 0xE5 SHL DUP2 MSTORE PUSH1 0x20 PUSH1 0x4 DUP3 ADD MSTORE PUSH1 0x26 PUSH1 0x24 DUP3 ADD MSTORE PUSH32 0x42544E47476F6C64546F6B656E3A20616D6F756E74206D75737420626520706F PUSH1 0x44 DUP3 ADD MSTORE PUSH6 0x736974697665 PUSH1 0xD0 SHL PUSH1 0x64 DUP3 ADD MSTORE PUSH1 0x84 ADD PUSH2 0x585 JUMP JUMPDEST PUSH1 0x2 SLOAD PUSH2 0xB17 SWAP1 PUSH12 0x1B24513071A43532D000000 PUSH2 0x1666 JUMP JUMPDEST DUP2 GT ISZERO PUSH2 0xB70 JUMPI PUSH1 0x40 MLOAD PUSH3 0x461BCD PUSH1 0xE5 SHL DUP2 MSTORE PUSH1 0x20 PUSH1 0x4 DUP3 ADD MSTORE PUSH1 0x21 PUSH1 0x24 DUP3 ADD MSTORE PUSH32 0x42544E47476F6C64546F6B656E3A2065786365656473206D617820737570706C PUSH1 0x44 DUP3 ADD MSTORE PUSH1 0x79 PUSH1 0xF8 SHL PUSH1 0x64 DUP3 ADD MSTORE PUSH1 0x84 ADD PUSH2 0x585 JUMP JUMPDEST PUSH2 0xB78 PUSH2 0xFC8 JUMP JUMPDEST PUSH1 0x9 DUP5 DUP5 PUSH1 0x40 MLOAD PUSH2 0xB8A SWAP3 SWAP2 SWAP1 PUSH2 0x168C JUMP JUMPDEST SWAP1 DUP2 MSTORE PUSH1 0x40 MLOAD SWAP1 DUP2 SWAP1 SUB PUSH1 0x20 ADD SWAP1 KECCAK256 SLOAD PUSH1 0xFF AND ISZERO PUSH2 0xBFE JUMPI PUSH1 0x40 MLOAD PUSH3 0x461BCD PUSH1 0xE5 SHL DUP2 MSTORE PUSH1 0x20 PUSH1 0x4 DUP3 ADD MSTORE PUSH1 0x2B PUSH1 0x24 DUP3 ADD MSTORE PUSH32 0x42544E47476F6C64546F6B656E3A20676F6C6420626174636820616C72656164 PUSH1 0x44 DUP3 ADD MSTORE PUSH11 0x1E481C1C9BD8D95CDCD959 PUSH1 0xAA SHL PUSH1 0x64 DUP3 ADD MSTORE PUSH1 0x84 ADD PUSH2 0x585 JUMP JUMPDEST PUSH2 0xC10 PUSH8 0xDE0B6B3A7640000 DUP7 PUSH2 0x15FC JUMP JUMPDEST DUP3 EQ PUSH2 0xC78 JUMPI PUSH1 0x40 MLOAD PUSH3 0x461BCD PUSH1 0xE5 SHL DUP2 MSTORE PUSH1 0x20 PUSH1 0x4 DUP3 ADD MSTORE PUSH1 0x31 PUSH1 0x24 DUP3 ADD MSTORE PUSH32 0x42544E47476F6C64546F6B656E3A20676F6C64206772616D73206D757374206D PUSH1 0x44 DUP3 ADD MSTORE PUSH17 0x185D18DA081D1BDAD95B88185B5BDD5B9D PUSH1 0x7A SHL PUSH1 0x64 DUP3 ADD MSTORE PUSH1 0x84 ADD PUSH2 0x585 JUMP JUMPDEST PUSH1 0x1 PUSH1 0x9 DUP6 DUP6 PUSH1 0x40 MLOAD PUSH2 0xC8C SWAP3 SWAP2 SWAP1 PUSH2 0x168C JUMP JUMPDEST SWAP1 DUP2 MSTORE PUSH1 0x20 ADD PUSH1 0x40 MLOAD DUP1 SWAP2 SUB SWAP1 KECCAK256 PUSH1 0x0 PUSH2 0x100 EXP DUP2 SLOAD DUP2 PUSH1 0xFF MUL NOT AND SWAP1 DUP4 ISZERO ISZERO MUL OR SWAP1 SSTORE POP DUP2 PUSH1 0x8 PUSH1 0x0 DUP3 DUP3 SLOAD PUSH2 0xCC3 SWAP2 SWAP1 PUSH2 0x1679 JUMP JUMPDEST SWAP1 SWAP2 SSTORE POP POP PUSH1 0x1 PUSH1 0x1 PUSH1 0xA0 SHL SUB DUP7 AND PUSH1 0x0 SWAP1 DUP2 MSTORE PUSH1 0xB PUSH1 0x20 MSTORE PUSH1 0x40 DUP2 KECCAK256 DUP1 SLOAD DUP5 SWAP3 SWAP1 PUSH2 0xCF0 SWAP1 DUP5 SWAP1 PUSH2 0x1679 JUMP JUMPDEST SWAP1 SWAP2 SSTORE POP PUSH2 0xD00 SWAP1 POP DUP7 DUP7 PUSH2 0xFF2 JUMP JUMPDEST DUP6 PUSH1 0x1 PUSH1 0x1 PUSH1 0xA0 SHL SUB AND PUSH32 0x5C6182ED76486D13A3D29BE1BCD623409823E33DA7738D8C29066ED63C677325 DUP7 DUP7 DUP7 PUSH1 0x40 MLOAD PUSH2 0xD3D SWAP4 SWAP3 SWAP2 SWAP1 PUSH2 0x169C JUMP JUMPDEST PUSH1 0x40 MLOAD DUP1 SWAP2 SUB SWAP1 LOG2 PUSH2 0xD4F PUSH1 0x1 PUSH1 0x6 SSTORE JUMP JUMPDEST POP POP POP POP POP POP JUMP JUMPDEST PUSH2 0xD5F PUSH2 0xDEE JUMP JUMPDEST PUSH1 0x1 PUSH1 0x1 PUSH1 0xA0 SHL SUB DUP2 AND PUSH2 0xD89 JUMPI PUSH1 0x40 MLOAD PUSH4 0x1E4FBDF7 PUSH1 0xE0 SHL DUP2 MSTORE PUSH1 0x0 PUSH1 0x4 DUP3 ADD MSTORE PUSH1 0x24 ADD PUSH2 0x585 JUMP JUMPDEST PUSH2 0x619 DUP2 PUSH2 0xEA6 JUMP JUMPDEST PUSH2 0xA21 DUP4 DUP4 DUP4 PUSH1 0x1 PUSH2 0x1028 JUMP JUMPDEST PUSH1 0x5 SLOAD PUSH1 0x1 PUSH1 0xA0 SHL SWAP1 DIV PUSH1 0xFF AND ISZERO PUSH2 0x60D JUMPI PUSH1 0x40 MLOAD PUSH4 0xD93C0665 PUSH1 0xE0 SHL DUP2 MSTORE PUSH1 0x4 ADD PUSH1 0x40 MLOAD DUP1 SWAP2 SUB SWAP1 REVERT JUMPDEST PUSH1 0x0 CALLER PUSH2 0xDD8 DUP6 DUP3 DUP6 PUSH2 0xEF8 JUMP JUMPDEST PUSH2 0xDE3 DUP6 DUP6 DUP6 PUSH2 0x10FD JUMP JUMPDEST POP PUSH1 0x1 SWAP5 SWAP4 POP POP POP POP JUMP JUMPDEST PUSH1 0x5 SLOAD PUSH1 0x1 PUSH1 0x1 PUSH1 0xA0 SHL SUB AND CALLER EQ PUSH2 0x60D JUMPI PUSH1 0x40 MLOAD PUSH4 0x118CDAA7 PUSH1 0xE0 SHL DUP2 MSTORE CALLER PUSH1 0x4 DUP3 ADD MSTORE PUSH1 0x24 ADD PUSH2 0x585 JUMP JUMPDEST PUSH2 0xE23 PUSH2 0x115C JUMP JUMPDEST PUSH1 0x5 DUP1 SLOAD PUSH1 0xFF PUSH1 0xA0 SHL NOT AND SWAP1 SSTORE PUSH32 0x5DB9EE0A495BF2E6FF9C91A7834C1BA4FDD244A5E8AA4E537BD38AEAE4B073AA CALLER JUMPDEST PUSH1 0x40 MLOAD PUSH1 0x1 PUSH1 0x1 PUSH1 0xA0 SHL SUB SWAP1 SWAP2 AND DUP2 MSTORE PUSH1 0x20 ADD PUSH1 0x40 MLOAD DUP1 SWAP2 SUB SWAP1 LOG1 JUMP JUMPDEST PUSH1 0x1 PUSH1 0x1 PUSH1 0xA0 SHL SUB DUP3 AND PUSH2 0xE9A JUMPI PUSH1 0x40 MLOAD PUSH4 0x4B637E8F PUSH1 0xE1 SHL DUP2 MSTORE PUSH1 0x0 PUSH1 0x4 DUP3 ADD MSTORE PUSH1 0x24 ADD PUSH2 0x585 JUMP JUMPDEST PUSH2 0x702 DUP3 PUSH1 0x0 DUP4 PUSH2 0x1186 JUMP JUMPDEST PUSH1 0x5 DUP1 SLOAD PUSH1 0x1 PUSH1 0x1 PUSH1 0xA0 SHL SUB DUP4 DUP2 AND PUSH1 0x1 PUSH1 0x1 PUSH1 0xA0 SHL SUB NOT DUP4 AND DUP2 OR SWAP1 SWAP4 SSTORE PUSH1 0x40 MLOAD SWAP2 AND SWAP2 SWAP1 DUP3 SWAP1 PUSH32 0x8BE0079C531659141344CD1FD0A4F28419497F9722A3DAAFE3B4186F6B6457E0 SWAP1 PUSH1 0x0 SWAP1 LOG3 POP POP JUMP JUMPDEST PUSH1 0x1 PUSH1 0x1 PUSH1 0xA0 SHL SUB DUP4 DUP2 AND PUSH1 0x0 SWAP1 DUP2 MSTORE PUSH1 0x1 PUSH1 0x20 SWAP1 DUP2 MSTORE PUSH1 0x40 DUP1 DUP4 KECCAK256 SWAP4 DUP7 AND DUP4 MSTORE SWAP3 SWAP1 MSTORE KECCAK256 SLOAD PUSH1 0x0 NOT DUP2 LT ISZERO PUSH2 0xF71 JUMPI DUP2 DUP2 LT ISZERO PUSH2 0xF62 JUMPI PUSH1 0x40 MLOAD PUSH4 0x7DC7A0D9 PUSH1 0xE1 SHL DUP2 MSTORE PUSH1 0x1 PUSH1 0x1 PUSH1 0xA0 SHL SUB DUP5 AND PUSH1 0x4 DUP3 ADD MSTORE PUSH1 0x24 DUP2 ADD DUP3 SWAP1 MSTORE PUSH1 0x44 DUP2 ADD DUP4 SWAP1 MSTORE PUSH1 0x64 ADD PUSH2 0x585 JUMP JUMPDEST PUSH2 0xF71 DUP5 DUP5 DUP5 DUP5 SUB PUSH1 0x0 PUSH2 0x1028 JUMP JUMPDEST POP POP POP POP JUMP JUMPDEST PUSH2 0xF7F PUSH2 0xD9F JUMP JUMPDEST PUSH1 0x5 DUP1 SLOAD PUSH1 0xFF PUSH1 0xA0 SHL NOT AND PUSH1 0x1 PUSH1 0xA0 SHL OR SWAP1 SSTORE PUSH32 0x62E78CEA01BEE320CD4E420270B5EA74000D11B0C9F74754EBDBFC544B05A258 PUSH2 0xE53 CALLER SWAP1 JUMP JUMPDEST PUSH1 0x0 CALLER PUSH2 0x520 DUP2 DUP6 DUP6 PUSH2 0x10FD JUMP JUMPDEST PUSH1 0x2 PUSH1 0x6 SLOAD SUB PUSH2 0xFEB JUMPI PUSH1 0x40 MLOAD PUSH4 0x3EE5AEB5 PUSH1 0xE0 SHL DUP2 MSTORE PUSH1 0x4 ADD PUSH1 0x40 MLOAD DUP1 SWAP2 SUB SWAP1 REVERT JUMPDEST PUSH1 0x2 PUSH1 0x6 SSTORE JUMP JUMPDEST PUSH1 0x1 PUSH1 0x1 PUSH1 0xA0 SHL SUB DUP3 AND PUSH2 0x101C JUMPI PUSH1 0x40 MLOAD PUSH4 0xEC442F05 PUSH1 0xE0 SHL DUP2 MSTORE PUSH1 0x0 PUSH1 0x4 DUP3 ADD MSTORE PUSH1 0x24 ADD PUSH2 0x585 JUMP JUMPDEST PUSH2 0x702 PUSH1 0x0 DUP4 DUP4 PUSH2 0x1186 JUMP JUMPDEST PUSH1 0x1 PUSH1 0x1 PUSH1 0xA0 SHL SUB DUP5 AND PUSH2 0x1052 JUMPI PUSH1 0x40 MLOAD PUSH4 0xE602DF05 PUSH1 0xE0 SHL DUP2 MSTORE PUSH1 0x0 PUSH1 0x4 DUP3 ADD MSTORE PUSH1 0x24 ADD PUSH2 0x585 JUMP JUMPDEST PUSH1 0x1 PUSH1 0x1 PUSH1 0xA0 SHL SUB DUP4 AND PUSH2 0x107C JUMPI PUSH1 0x40 MLOAD PUSH4 0x4A1406B1 PUSH1 0xE1 SHL DUP2 MSTORE PUSH1 0x0 PUSH1 0x4 DUP3 ADD MSTORE PUSH1 0x24 ADD PUSH2 0x585 JUMP JUMPDEST PUSH1 0x1 PUSH1 0x1 PUSH1 0xA0 SHL SUB DUP1 DUP6 AND PUSH1 0x0 SWAP1 DUP2 MSTORE PUSH1 0x1 PUSH1 0x20 SWAP1 DUP2 MSTORE PUSH1 0x40 DUP1 DUP4 KECCAK256 SWAP4 DUP8 AND DUP4 MSTORE SWAP3 SWAP1 MSTORE KECCAK256 DUP3 SWAP1 SSTORE DUP1 ISZERO PUSH2 0xF71 JUMPI DUP3 PUSH1 0x1 PUSH1 0x1 PUSH1 0xA0 SHL SUB AND DUP5 PUSH1 0x1 PUSH1 0x1 PUSH1 0xA0 SHL SUB AND PUSH32 0x8C5BE1E5EBEC7D5BD14F71427D1E84F3DD0314C0F7B2291E5B200AC8C7C3B925 DUP5 PUSH1 0x40 MLOAD PUSH2 0x10EF SWAP2 DUP2 MSTORE PUSH1 0x20 ADD SWAP1 JUMP JUMPDEST PUSH1 0x40 MLOAD DUP1 SWAP2 SUB SWAP1 LOG3 POP POP POP POP JUMP JUMPDEST PUSH1 0x1 PUSH1 0x1 PUSH1 0xA0 SHL SUB DUP4 AND PUSH2 0x1127 JUMPI PUSH1 0x40 MLOAD PUSH4 0x4B637E8F PUSH1 0xE1 SHL DUP2 MSTORE PUSH1 0x0 PUSH1 0x4 DUP3 ADD MSTORE PUSH1 0x24 ADD PUSH2 0x585 JUMP JUMPDEST PUSH1 0x1 PUSH1 0x1 PUSH1 0xA0 SHL SUB DUP3 AND PUSH2 0x1151 JUMPI PUSH1 0x40 MLOAD PUSH4 0xEC442F05 PUSH1 0xE0 SHL DUP2 MSTORE PUSH1 0x0 PUSH1 0x4 DUP3 ADD MSTORE PUSH1 0x24 ADD PUSH2 0x585 JUMP JUMPDEST PUSH2 0xA21 DUP4 DUP4 DUP4 PUSH2 0x1186 JUMP JUMPDEST PUSH1 0x5 SLOAD PUSH1 0x1 PUSH1 0xA0 SHL SWAP1 DIV PUSH1 0xFF AND PUSH2 0x60D JUMPI PUSH1 0x40 MLOAD PUSH4 0x8DFC202B PUSH1 0xE0 SHL DUP2 MSTORE PUSH1 0x4 ADD PUSH1 0x40 MLOAD DUP1 SWAP2 SUB SWAP1 REVERT JUMPDEST PUSH1 0x1 PUSH1 0x1 PUSH1 0xA0 SHL SUB DUP4 AND PUSH2 0x11B1 JUMPI DUP1 PUSH1 0x2 PUSH1 0x0 DUP3 DUP3 SLOAD PUSH2 0x11A6 SWAP2 SWAP1 PUSH2 0x1679 JUMP JUMPDEST SWAP1 SWAP2 SSTORE POP PUSH2 0x1223 SWAP1 POP JUMP JUMPDEST PUSH1 0x1 PUSH1 0x1 PUSH1 0xA0 SHL SUB DUP4 AND PUSH1 0x0 SWAP1 DUP2 MSTORE PUSH1 0x20 DUP2 SWAP1 MSTORE PUSH1 0x40 SWAP1 KECCAK256 SLOAD DUP2 DUP2 LT ISZERO PUSH2 0x1204 JUMPI PUSH1 0x40 MLOAD PUSH4 0x391434E3 PUSH1 0xE2 SHL DUP2 MSTORE PUSH1 0x1 PUSH1 0x1 PUSH1 0xA0 SHL SUB DUP6 AND PUSH1 0x4 DUP3 ADD MSTORE PUSH1 0x24 DUP2 ADD DUP3 SWAP1 MSTORE PUSH1 0x44 DUP2 ADD DUP4 SWAP1 MSTORE PUSH1 0x64 ADD PUSH2 0x585 JUMP JUMPDEST PUSH1 0x1 PUSH1 0x1 PUSH1 0xA0 SHL SUB DUP5 AND PUSH1 0x0 SWAP1 DUP2 MSTORE PUSH1 0x20 DUP2 SWAP1 MSTORE PUSH1 0x40 SWAP1 KECCAK256 SWAP1 DUP3 SWAP1 SUB SWAP1 SSTORE JUMPDEST PUSH1 0x1 PUSH1 0x1 PUSH1 0xA0 SHL SUB DUP3 AND PUSH2 0x123F JUMPI PUSH1 0x2 DUP1 SLOAD DUP3 SWAP1 SUB SWAP1 SSTORE PUSH2 0x125E JUMP JUMPDEST PUSH1 0x1 PUSH1 0x1 PUSH1 0xA0 SHL SUB DUP3 AND PUSH1 0x0 SWAP1 DUP2 MSTORE PUSH1 0x20 DUP2 SWAP1 MSTORE PUSH1 0x40 SWAP1 KECCAK256 DUP1 SLOAD DUP3 ADD SWAP1 SSTORE JUMPDEST DUP2 PUSH1 0x1 PUSH1 0x1 PUSH1 0xA0 SHL SUB AND DUP4 PUSH1 0x1 PUSH1 0x1 PUSH1 0xA0 SHL SUB AND PUSH32 0xDDF252AD1BE2C89B69C2B068FC378DAA952BA7F163C4A11628F55A4DF523B3EF DUP4 PUSH1 0x40 MLOAD PUSH2 0x12A3 SWAP2 DUP2 MSTORE PUSH1 0x20 ADD SWAP1 JUMP JUMPDEST PUSH1 0x40 MLOAD DUP1 SWAP2 SUB SWAP1 LOG3 POP POP POP JUMP JUMPDEST PUSH1 0x0 PUSH1 0x20 DUP1 DUP4 MSTORE DUP4 MLOAD DUP1 DUP3 DUP6 ADD MSTORE PUSH1 0x0 JUMPDEST DUP2 DUP2 LT ISZERO PUSH2 0x12DD JUMPI DUP6 DUP2 ADD DUP4 ADD MLOAD DUP6 DUP3 ADD PUSH1 0x40 ADD MSTORE DUP3 ADD PUSH2 0x12C1 JUMP JUMPDEST POP PUSH1 0x0 PUSH1 0x40 DUP3 DUP7 ADD ADD MSTORE PUSH1 0x40 PUSH1 0x1F NOT PUSH1 0x1F DUP4 ADD AND DUP6 ADD ADD SWAP3 POP POP POP SWAP3 SWAP2 POP POP JUMP JUMPDEST DUP1 CALLDATALOAD PUSH1 0x1 PUSH1 0x1 PUSH1 0xA0 SHL SUB DUP2 AND DUP2 EQ PUSH2 0x1315 JUMPI PUSH1 0x0 DUP1 REVERT JUMPDEST SWAP2 SWAP1 POP JUMP JUMPDEST PUSH1 0x0 DUP1 PUSH1 0x40 DUP4 DUP6 SUB SLT ISZERO PUSH2 0x132D JUMPI PUSH1 0x0 DUP1 REVERT JUMPDEST PUSH2 0x1336 DUP4 PUSH2 0x12FE JUMP JUMPDEST SWAP5 PUSH1 0x20 SWAP4 SWAP1 SWAP4 ADD CALLDATALOAD SWAP4 POP POP POP JUMP JUMPDEST PUSH4 0x4E487B71 PUSH1 0xE0 SHL PUSH1 0x0 MSTORE PUSH1 0x41 PUSH1 0x4 MSTORE PUSH1 0x24 PUSH1 0x0 REVERT JUMPDEST PUSH1 0x0 PUSH1 0x20 DUP3 DUP5 SUB SLT ISZERO PUSH2 0x136C JUMPI PUSH1 0x0 DUP1 REVERT JUMPDEST DUP2 CALLDATALOAD PUSH8 0xFFFFFFFFFFFFFFFF DUP1 DUP3 GT ISZERO PUSH2 0x1384 JUMPI PUSH1 0x0 DUP1 REVERT JUMPDEST DUP2 DUP5 ADD SWAP2 POP DUP5 PUSH1 0x1F DUP4 ADD SLT PUSH2 0x1398 JUMPI PUSH1 0x0 DUP1 REVERT JUMPDEST DUP2 CALLDATALOAD DUP2 DUP2 GT ISZERO PUSH2 0x13AA JUMPI PUSH2 0x13AA PUSH2 0x1344 JUMP JUMPDEST PUSH1 0x40 MLOAD PUSH1 0x1F DUP3 ADD PUSH1 0x1F NOT SWAP1 DUP2 AND PUSH1 0x3F ADD AND DUP2 ADD SWAP1 DUP4 DUP3 GT DUP2 DUP4 LT OR ISZERO PUSH2 0x13D2 JUMPI PUSH2 0x13D2 PUSH2 0x1344 JUMP JUMPDEST DUP2 PUSH1 0x40 MSTORE DUP3 DUP2 MSTORE DUP8 PUSH1 0x20 DUP5 DUP8 ADD ADD GT ISZERO PUSH2 0x13EB JUMPI PUSH1 0x0 DUP1 REVERT JUMPDEST DUP3 PUSH1 0x20 DUP7 ADD PUSH1 0x20 DUP4 ADD CALLDATACOPY PUSH1 0x0 SWAP3 DUP2 ADD PUSH1 0x20 ADD SWAP3 SWAP1 SWAP3 MSTORE POP SWAP6 SWAP5 POP POP POP POP POP JUMP JUMPDEST PUSH1 0x0 DUP1 PUSH1 0x0 PUSH1 0x60 DUP5 DUP7 SUB SLT ISZERO PUSH2 0x1420 JUMPI PUSH1 0x0 DUP1 REVERT JUMPDEST PUSH2 0x1429 DUP5 PUSH2 0x12FE JUMP JUMPDEST SWAP3 POP PUSH2 0x1437 PUSH1 0x20 DUP6 ADD PUSH2 0x12FE JUMP JUMPDEST SWAP2 POP PUSH1 0x40 DUP5 ADD CALLDATALOAD SWAP1 POP SWAP3 POP SWAP3 POP SWAP3 JUMP JUMPDEST PUSH1 0x0 PUSH1 0x20 DUP3 DUP5 SUB SLT ISZERO PUSH2 0x1459 JUMPI PUSH1 0x0 DUP1 REVERT JUMPDEST POP CALLDATALOAD SWAP2 SWAP1 POP JUMP JUMPDEST PUSH1 0x0 PUSH1 0x20 DUP3 DUP5 SUB SLT ISZERO PUSH2 0x1472 JUMPI PUSH1 0x0 DUP1 REVERT JUMPDEST PUSH2 0x147B DUP3 PUSH2 0x12FE JUMP JUMPDEST SWAP4 SWAP3 POP POP POP JUMP JUMPDEST PUSH1 0x0 DUP1 DUP4 PUSH1 0x1F DUP5 ADD SLT PUSH2 0x1494 JUMPI PUSH1 0x0 DUP1 REVERT JUMPDEST POP DUP2 CALLDATALOAD PUSH8 0xFFFFFFFFFFFFFFFF DUP2 GT ISZERO PUSH2 0x14AC JUMPI PUSH1 0x0 DUP1 REVERT JUMPDEST PUSH1 0x20 DUP4 ADD SWAP2 POP DUP4 PUSH1 0x20 DUP3 DUP6 ADD ADD GT ISZERO PUSH2 0x14C4 JUMPI PUSH1 0x0 DUP1 REVERT JUMPDEST SWAP3 POP SWAP3 SWAP1 POP JUMP JUMPDEST PUSH1 0x0 DUP1 PUSH1 0x0 PUSH1 0x40 DUP5 DUP7 SUB SLT ISZERO PUSH2 0x14E0 JUMPI PUSH1 0x0 DUP1 REVERT JUMPDEST DUP4 CALLDATALOAD SWAP3 POP PUSH1 0x20 DUP5 ADD CALLDATALOAD PUSH8 0xFFFFFFFFFFFFFFFF DUP2 GT ISZERO PUSH2 0x14FE JUMPI PUSH1 0x0 DUP1 REVERT JUMPDEST PUSH2 0x150A DUP7 DUP3 DUP8 ADD PUSH2 0x1482 JUMP JUMPDEST SWAP5 SWAP8 SWAP1 SWAP7 POP SWAP4 SWAP5 POP POP POP POP JUMP JUMPDEST PUSH1 0x0 DUP1 PUSH1 0x0 DUP1 PUSH1 0x0 PUSH1 0x80 DUP7 DUP9 SUB SLT ISZERO PUSH2 0x152F JUMPI PUSH1 0x0 DUP1 REVERT JUMPDEST PUSH2 0x1538 DUP7 PUSH2 0x12FE JUMP JUMPDEST SWAP5 POP PUSH1 0x20 DUP7 ADD CALLDATALOAD SWAP4 POP PUSH1 0x40 DUP7 ADD CALLDATALOAD PUSH8 0xFFFFFFFFFFFFFFFF DUP2 GT ISZERO PUSH2 0x155B JUMPI PUSH1 0x0 DUP1 REVERT JUMPDEST PUSH2 0x1567 DUP9 DUP3 DUP10 ADD PUSH2 0x1482 JUMP JUMPDEST SWAP7 SWAP10 SWAP6 SWAP9 POP SWAP7 PUSH1 0x60 ADD CALLDATALOAD SWAP5 SWAP4 POP POP POP POP JUMP JUMPDEST PUSH1 0x0 DUP1 PUSH1 0x40 DUP4 DUP6 SUB SLT ISZERO PUSH2 0x158C JUMPI PUSH1 0x0 DUP1 REVERT JUMPDEST PUSH2 0x1595 DUP4 PUSH2 0x12FE JUMP JUMPDEST SWAP2 POP PUSH2 0x15A3 PUSH1 0x20 DUP5 ADD PUSH2 0x12FE JUMP JUMPDEST SWAP1 POP SWAP3 POP SWAP3 SWAP1 POP JUMP JUMPDEST PUSH1 0x1 DUP2 DUP2 SHR SWAP1 DUP3 AND DUP1 PUSH2 0x15C0 JUMPI PUSH1 0x7F DUP3 AND SWAP2 POP JUMPDEST PUSH1 0x20 DUP3 LT DUP2 SUB PUSH2 0x15E0 JUMPI PUSH4 0x4E487B71 PUSH1 0xE0 SHL PUSH1 0x0 MSTORE PUSH1 0x22 PUSH1 0x4 MSTORE PUSH1 0x24 PUSH1 0x0 REVERT JUMPDEST POP SWAP2 SWAP1 POP JUMP JUMPDEST PUSH4 0x4E487B71 PUSH1 0xE0 SHL PUSH1 0x0 MSTORE PUSH1 0x11 PUSH1 0x4 MSTORE PUSH1 0x24 PUSH1 0x0 REVERT JUMPDEST PUSH1 0x0 DUP3 PUSH2 0x1619 JUMPI PUSH4 0x4E487B71 PUSH1 0xE0 SHL PUSH1 0x0 MSTORE PUSH1 0x12 PUSH1 0x4 MSTORE PUSH1 0x24 PUSH1 0x0 REVERT JUMPDEST POP DIV SWAP1 JUMP JUMPDEST PUSH1 0x20 DUP1 DUP3 MSTORE PUSH1 0x28 SWAP1 DUP3 ADD MSTORE PUSH32 0x42544E47476F6C64546F6B656E3A20696E73756666696369656E7420676F6C64 PUSH1 0x40 DUP3 ADD MSTORE PUSH8 0x206261636B696E67 PUSH1 0xC0 SHL PUSH1 0x60 DUP3 ADD MSTORE PUSH1 0x80 ADD SWAP1 JUMP JUMPDEST DUP2 DUP2 SUB DUP2 DUP2 GT ISZERO PUSH2 0x526 JUMPI PUSH2 0x526 PUSH2 0x15E6 JUMP JUMPDEST DUP1 DUP3 ADD DUP1 DUP3 GT ISZERO PUSH2 0x526 JUMPI PUSH2 0x526 PUSH2 0x15E6 JUMP JUMPDEST DUP2 DUP4 DUP3 CALLDATACOPY PUSH1 0x0 SWAP2 ADD SWAP1 DUP2 MSTORE SWAP2 SWAP1 POP JUMP JUMPDEST DUP4 DUP2 MSTORE PUSH1 0x40 PUSH1 0x20 DUP3 ADD MSTORE DUP2 PUSH1 0x40 DUP3 ADD MSTORE DUP2 DUP4 PUSH1 0x60 DUP4 ADD CALLDATACOPY PUSH1 0x0 DUP2 DUP4 ADD PUSH1 0x60 SWAP1 DUP2 ADD SWAP2 SWAP1 SWAP2 MSTORE PUSH1 0x1F SWAP1 SWAP3 ADD PUSH1 0x1F NOT AND ADD ADD SWAP3 SWAP2 POP POP JUMP INVALID LOG2 PUSH5 0x6970667358 0x22 SLT KECCAK256 DUP9 0xB1 0x4F 0xBB 0xBE SWAP15 0xC4 0x24 0x5C MOD PUSH10 0x50E3C194A55B9A652945 LOG0 0xD2 EXP 0xD2 PUSH1 0xC0 0x2D SMOD DUP12 0xCA 0xD5 PUSH5 0x736F6C6343 STOP ADDMOD EQ STOP CALLER "},"methodIdentifiers":{"GRAMS_PER_BTNG()":"242824c3","MAX_SUPPLY()":"32cb6b0c","allowance(address,address)":"dd62ed3e","approve(address,uint256)":"095ea7b3","balanceOf(address)":"70a08231","burn(uint256)":"42966c68","burnFrom(address,uint256)":"79cc6790","custodyContract()":"e1b5655b","decimals()":"313ce567","getGoldBacking(address)":"716aef1b","getTotalGoldBacking()":"59150da3","goldBalance(address)":"6d02423f","mintGoldBacked(address,uint256,string,uint256)":"cbbfbdc1","name()":"06fdde03","owner()":"8da5cb5b","pause()":"8456cb59","paused()":"5c975abb","processedGoldBatches(string)":"0aa8df4b","processedRedemptions(string)":"eec4c552","redeemGold(uint256,string)":"b8428ca1","renounceOwnership()":"715018a6","symbol()":"95d89b41","totalGoldBacked()":"9a88a756","totalSupply()":"18160ddd","transfer(address,uint256)":"a9059cbb","transferFrom(address,address,uint256)":"23b872dd","transferOwnership(address)":"f2fde38b","unpause()":"3f4ba83a","updateCustodyContract(address)":"71dbd560","verifyGoldBacking()":"911b9bfc"}}}}}