{
  "_format": "hh-sol-artifact-1",
  "contractName": "BTNGGoldToken",
  "sourceName": "contracts/BTNGGoldToken.sol",
  "abi": [
    {
      "inputs": [
        {
          "internalType": "address",
          "name": "initialCustody",
          "type": "address"
        }
      ],
      "stateMutability": "nonpayable",
      "type": "constructor"
    },
    {
      "inputs": [
        {
          "internalType": "address",
          "name": "spender",
          "type": "address"
        },
        {
          "internalType": "uint256",
          "name": "allowance",
          "type": "uint256"
        },
        {
          "internalType": "uint256",
          "name": "needed",
          "type": "uint256"
        }
      ],
      "name": "ERC20InsufficientAllowance",
      "type": "error"
    },
    {
      "inputs": [
        {
          "internalType": "address",
          "name": "sender",
          "type": "address"
        },
        {
          "internalType": "uint256",
          "name": "balance",
          "type": "uint256"
        },
        {
          "internalType": "uint256",
          "name": "needed",
          "type": "uint256"
        }
      ],
      "name": "ERC20InsufficientBalance",
      "type": "error"
    },
    {
      "inputs": [
        {
          "internalType": "address",
          "name": "approver",
          "type": "address"
        }
      ],
      "name": "ERC20InvalidApprover",
      "type": "error"
    },
    {
      "inputs": [
        {
          "internalType": "address",
          "name": "receiver",
          "type": "address"
        }
      ],
      "name": "ERC20InvalidReceiver",
      "type": "error"
    },
    {
      "inputs": [
        {
          "internalType": "address",
          "name": "sender",
          "type": "address"
        }
      ],
      "name": "ERC20InvalidSender",
      "type": "error"
    },
    {
      "inputs": [
        {
          "internalType": "address",
          "name": "spender",
          "type": "address"
        }
      ],
      "name": "ERC20InvalidSpender",
      "type": "error"
    },
    {
      "inputs": [],
      "name": "EnforcedPause",
      "type": "error"
    },
    {
      "inputs": [],
      "name": "ExpectedPause",
      "type": "error"
    },
    {
      "inputs": [
        {
          "internalType": "address",
          "name": "owner",
          "type": "address"
        }
      ],
      "name": "OwnableInvalidOwner",
      "type": "error"
    },
    {
      "inputs": [
        {
          "internalType": "address",
          "name": "account",
          "type": "address"
        }
      ],
      "name": "OwnableUnauthorizedAccount",
      "type": "error"
    },
    {
      "inputs": [],
      "name": "ReentrancyGuardReentrantCall",
      "type": "error"
    },
    {
      "anonymous": false,
      "inputs": [
        {
          "indexed": true,
          "internalType": "address",
          "name": "owner",
          "type": "address"
        },
        {
          "indexed": true,
          "internalType": "address",
          "name": "spender",
          "type": "address"
        },
        {
          "indexed": false,
          "internalType": "uint256",
          "name": "value",
          "type": "uint256"
        }
      ],
      "name": "Approval",
      "type": "event"
    },
    {
      "anonymous": false,
      "inputs": [
        {
          "indexed": true,
          "internalType": "address",
          "name": "oldCustody",
          "type": "address"
        },
        {
          "indexed": true,
          "internalType": "address",
          "name": "newCustody",
          "type": "address"
        }
      ],
      "name": "CustodyContractUpdated",
      "type": "event"
    },
    {
      "anonymous": false,
      "inputs": [
        {
          "indexed": true,
          "internalType": "address",
          "name": "to",
          "type": "address"
        },
        {
          "indexed": false,
          "internalType": "uint256",
          "name": "amount",
          "type": "uint256"
        },
        {
          "indexed": false,
          "internalType": "string",
          "name": "goldBatchId",
          "type": "string"
        }
      ],
      "name": "GoldMinted",
      "type": "event"
    },
    {
      "anonymous": false,
      "inputs": [
        {
          "indexed": true,
          "internalType": "address",
          "name": "from",
          "type": "address"
        },
        {
          "indexed": false,
          "internalType": "uint256",
          "name": "amount",
          "type": "uint256"
        },
        {
          "indexed": false,
          "internalType": "string",
          "name": "redemptionId",
          "type": "string"
        }
      ],
      "name": "GoldRedeemed",
      "type": "event"
    },
    {
      "anonymous": false,
      "inputs": [
        {
          "indexed": true,
          "internalType": "address",
          "name": "previousOwner",
          "type": "address"
        },
        {
          "indexed": true,
          "internalType": "address",
          "name": "newOwner",
          "type": "address"
        }
      ],
      "name": "OwnershipTransferred",
      "type": "event"
    },
    {
      "anonymous": false,
      "inputs": [
        {
          "indexed": false,
          "internalType": "address",
          "name": "account",
          "type": "address"
        }
      ],
      "name": "Paused",
      "type": "event"
    },
    {
      "anonymous": false,
      "inputs": [
        {
          "indexed": true,
          "internalType": "address",
          "name": "from",
          "type": "address"
        },
        {
          "indexed": true,
          "internalType": "address",
          "name": "to",
          "type": "address"
        },
        {
          "indexed": false,
          "internalType": "uint256",
          "name": "value",
          "type": "uint256"
        }
      ],
      "name": "Transfer",
      "type": "event"
    },
    {
      "anonymous": false,
      "inputs": [
        {
          "indexed": false,
          "internalType": "address",
          "name": "account",
          "type": "address"
        }
      ],
      "name": "Unpaused",
      "type": "event"
    },
    {
      "inputs": [],
      "name": "GRAMS_PER_BTNG",
      "outputs": [
        {
          "internalType": "uint256",
          "name": "",
          "type": "uint256"
        }
      ],
      "stateMutability": "view",
      "type": "function"
    },
    {
      "inputs": [],
      "name": "MAX_SUPPLY",
      "outputs": [
        {
          "internalType": "uint256",
          "name": "",
          "type": "uint256"
        }
      ],
      "stateMutability": "view",
      "type": "function"
    },
    {
      "inputs": [
        {
          "internalType": "address",
          "name": "owner",
          "type": "address"
        },
        {
          "internalType": "address",
          "name": "spender",
          "type": "address"
        }
      ],
      "name": "allowance",
      "outputs": [
        {
          "internalType": "uint256",
          "name": "",
          "type": "uint256"
        }
      ],
      "stateMutability": "view",
      "type": "function"
    },
    {
      "inputs": [
        {
          "internalType": "address",
          "name": "spender",
          "type": "address"
        },
        {
          "internalType": "uint256",
          "name": "value",
          "type": "uint256"
        }
      ],
      "name": "approve",
      "outputs": [
        {
          "internalType": "bool",
          "name": "",
          "type": "bool"
        }
      ],
      "stateMutability": "nonpayable",
      "type": "function"
    },
    {
      "inputs": [
        {
          "internalType": "address",
          "name": "account",
          "type": "address"
        }
      ],
      "name": "balanceOf",
      "outputs": [
        {
          "internalType": "uint256",
          "name": "",
          "type": "uint256"
        }
      ],
      "stateMutability": "view",
      "type": "function"
    },
    {
      "inputs": [
        {
          "internalType": "uint256",
          "name": "value",
          "type": "uint256"
        }
      ],
      "name": "burn",
      "outputs": [],
      "stateMutability": "nonpayable",
      "type": "function"
    },
    {
      "inputs": [
        {
          "internalType": "address",
          "name": "account",
          "type": "address"
        },
        {
          "internalType": "uint256",
          "name": "value",
          "type": "uint256"
        }
      ],
      "name": "burnFrom",
      "outputs": [],
      "stateMutability": "nonpayable",
      "type": "function"
    },
    {
      "inputs": [],
      "name": "custodyContract",
      "outputs": [
        {
          "internalType": "address",
          "name": "",
          "type": "address"
        }
      ],
      "stateMutability": "view",
      "type": "function"
    },
    {
      "inputs": [],
      "name": "decimals",
      "outputs": [
        {
          "internalType": "uint8",
          "name": "",
          "type": "uint8"
        }
      ],
      "stateMutability": "view",
      "type": "function"
    },
    {
      "inputs": [
        {
          "internalType": "address",
          "name": "account",
          "type": "address"
        }
      ],
      "name": "getGoldBacking",
      "outputs": [
        {
          "internalType": "uint256",
          "name": "",
          "type": "uint256"
        }
      ],
      "stateMutability": "view",
      "type": "function"
    },
    {
      "inputs": [],
      "name": "getTotalGoldBacking",
      "outputs": [
        {
          "internalType": "uint256",
          "name": "",
          "type": "uint256"
        }
      ],
      "stateMutability": "view",
      "type": "function"
    },
    {
      "inputs": [
        {
          "internalType": "address",
          "name": "",
          "type": "address"
        }
      ],
      "name": "goldBalance",
      "outputs": [
        {
          "internalType": "uint256",
          "name": "",
          "type": "uint256"
        }
      ],
      "stateMutability": "view",
      "type": "function"
    },
    {
      "inputs": [
        {
          "internalType": "address",
          "name": "to",
          "type": "address"
        },
        {
          "internalType": "uint256",
          "name": "amount",
          "type": "uint256"
        },
        {
          "internalType": "string",
          "name": "goldBatchId",
          "type": "string"
        },
        {
          "internalType": "uint256",
          "name": "goldGrams",
          "type": "uint256"
        }
      ],
      "name": "mintGoldBacked",
      "outputs": [],
      "stateMutability": "nonpayable",
      "type": "function"
    },
    {
      "inputs": [],
      "name": "name",
      "outputs": [
        {
          "internalType": "string",
          "name": "",
          "type": "string"
        }
      ],
      "stateMutability": "view",
      "type": "function"
    },
    {
      "inputs": [],
      "name": "owner",
      "outputs": [
        {
          "internalType": "address",
          "name": "",
          "type": "address"
        }
      ],
      "stateMutability": "view",
      "type": "function"
    },
    {
      "inputs": [],
      "name": "pause",
      "outputs": [],
      "stateMutability": "nonpayable",
      "type": "function"
    },
    {
      "inputs": [],
      "name": "paused",
      "outputs": [
        {
          "internalType": "bool",
          "name": "",
          "type": "bool"
        }
      ],
      "stateMutability": "view",
      "type": "function"
    },
    {
      "inputs": [
        {
          "internalType": "string",
          "name": "",
          "type": "string"
        }
      ],
      "name": "processedGoldBatches",
      "outputs": [
        {
          "internalType": "bool",
          "name": "",
          "type": "bool"
        }
      ],
      "stateMutability": "view",
      "type": "function"
    },
    {
      "inputs": [
        {
          "internalType": "string",
          "name": "",
          "type": "string"
        }
      ],
      "name": "processedRedemptions",
      "outputs": [
        {
          "internalType": "bool",
          "name": "",
          "type": "bool"
        }
      ],
      "stateMutability": "view",
      "type": "function"
    },
    {
      "inputs": [
        {
          "internalType": "uint256",
          "name": "amount",
          "type": "uint256"
        },
        {
          "internalType": "string",
          "name": "redemptionId",
          "type": "string"
        }
      ],
      "name": "redeemGold",
      "outputs": [],
      "stateMutability": "nonpayable",
      "type": "function"
    },
    {
      "inputs": [],
      "name": "renounceOwnership",
      "outputs": [],
      "stateMutability": "nonpayable",
      "type": "function"
    },
    {
      "inputs": [],
      "name": "symbol",
      "outputs": [
        {
          "internalType": "string",
          "name": "",
          "type": "string"
        }
      ],
      "stateMutability": "view",
      "type": "function"
    },
    {
      "inputs": [],
      "name": "totalGoldBacked",
      "outputs": [
        {
          "internalType": "uint256",
          "name": "",
          "type": "uint256"
        }
      ],
      "stateMutability": "view",
      "type": "function"
    },
    {
      "inputs": [],
      "name": "totalSupply",
      "outputs": [
        {
          "internalType": "uint256",
          "name": "",
          "type": "uint256"
        }
      ],
      "stateMutability": "view",
      "type": "function"
    },
    {
      "inputs": [
        {
          "internalType": "address",
          "name": "to",
          "type": "address"
        },
        {
          "internalType": "uint256",
          "name": "amount",
          "type": "uint256"
        }
      ],
      "name": "transfer",
      "outputs": [
        {
          "internalType": "bool",
          "name": "",
          "type": "bool"
        }
      ],
      "stateMutability": "nonpayable",
      "type": "function"
    },
    {
      "inputs": [
        {
          "internalType": "address",
          "name": "from",
          "type": "address"
        },
        {
          "internalType": "address",
          "name": "to",
          "type": "address"
        },
        {
          "internalType": "uint256",
          "name": "amount",
          "type": "uint256"
        }
      ],
      "name": "transferFrom",
      "outputs": [
        {
          "internalType": "bool",
          "name": "",
          "type": "bool"
        }
      ],
      "stateMutability": "nonpayable",
      "type": "function"
    },
    {
      "inputs": [
        {
          "internalType": "address",
          "name": "newOwner",
          "type": "address"
        }
      ],
      "name": "transferOwnership",
      "outputs": [],
      "stateMutability": "nonpayable",
      "type": "function"
    },
    {
      "inputs": [],
      "name": "unpause",
      "outputs": [],
      "stateMutability": "nonpayable",
      "type": "function"
    },
    {
      "inputs": [
        {
          "internalType": "address",
          "name": "newCustody",
          "type": "address"
        }
      ],
      "name": "updateCustodyContract",
      "outputs": [],
      "stateMutability": "nonpayable",
      "type": "function"
    },
    {
      "inputs": [],
      "name": "verifyGoldBacking",
      "outputs": [
        {
          "internalType": "bool",
          "name": "",
          "type": "bool"
        }
      ],
      "stateMutability": "view",
      "type": "function"
    }
  ],
  "bytecode": "0x60806040523480156200001157600080fd5b5060405162001a1d38038062001a1d833981016040819052620000349162000162565b336040518060400160405280600f81526020016e212a27239023b7b632102a37b5b2b760891b8152506040518060400160405280600481526020016342544e4760e01b81525081600390816200008b919062000239565b5060046200009a828262000239565b5050506001600160a01b038116620000cc57604051631e4fbdf760e01b81526000600482015260240160405180910390fd5b620000d78162000110565b5060016006556001600160a01b038116156200010957600780546001600160a01b0319166001600160a01b0383161790555b5062000305565b600580546001600160a01b038381166001600160a01b0319831681179093556040519116919082907f8be0079c531659141344cd1fd0a4f28419497f9722a3daafe3b4186f6b6457e090600090a35050565b6000602082840312156200017557600080fd5b81516001600160a01b03811681146200018d57600080fd5b9392505050565b634e487b7160e01b600052604160045260246000fd5b600181811c90821680620001bf57607f821691505b602082108103620001e057634e487b7160e01b600052602260045260246000fd5b50919050565b601f8211156200023457600081815260208120601f850160051c810160208610156200020f5750805b601f850160051c820191505b8181101562000230578281556001016200021b565b5050505b505050565b81516001600160401b0381111562000255576200025562000194565b6200026d81620002668454620001aa565b84620001e6565b602080601f831160018114620002a557600084156200028c5750858301515b600019600386901b1c1916600185901b17855562000230565b600085815260208120601f198616915b82811015620002d657888601518255948401946001909101908401620002b5565b5085821015620002f55787850151600019600388901b60f8161c191681555b5050505050600190811b01905550565b61170880620003156000396000f3fe608060405234801561001057600080fd5b50600436106101da5760003560e01c8063716aef1b116101045780639a88a756116100a2578063dd62ed3e11610071578063dd62ed3e146103f3578063e1b5655b1461042c578063eec4c5521461043f578063f2fde38b1461046d57600080fd5b80639a88a756146103b1578063a9059cbb146103ba578063b8428ca1146103cd578063cbbfbdc1146103e057600080fd5b80638456cb59116100de5780638456cb59146103745780638da5cb5b1461037c578063911b9bfc146103a157806395d89b41146103a957600080fd5b8063716aef1b1461032557806371dbd5601461034e57806379cc67901461036157600080fd5b806332cb6b0c1161017c5780635c975abb1161014b5780635c975abb146102c25780636d02423f146102d457806370a08231146102f4578063715018a61461031d57600080fd5b806332cb6b0c1461028a5780633f4ba83a1461029d57806342966c68146102a757806359150da3146102ba57600080fd5b806318160ddd116101b857806318160ddd1461024e57806323b872dd14610260578063242824c314610273578063313ce5671461027b57600080fd5b806306fdde03146101df578063095ea7b3146101fd5780630aa8df4b14610220575b600080fd5b6101e7610480565b6040516101f491906112b0565b60405180910390f35b61021061020b36600461131a565b610512565b60405190151581526020016101f4565b61021061022e36600461135a565b805160208183018101805160098252928201919093012091525460ff1681565b6002545b6040519081526020016101f4565b61021061026e36600461140b565b61052c565b610252600181565b604051601281526020016101f4565b6102526b01b24513071a43532d00000081565b6102a56105fd565b005b6102a56102b5366004611447565b61060f565b600854610252565b600554600160a01b900460ff16610210565b6102526102e2366004611460565b600b6020526000908152604090205481565b610252610302366004611460565b6001600160a01b031660009081526020819052604090205490565b6102a561061c565b610252610333366004611460565b6001600160a01b03166000908152600b602052604090205490565b6102a561035c366004611460565b61062e565b6102a561036f36600461131a565b6106ed565b6102a5610706565b6005546001600160a01b03165b6040516001600160a01b0390911681526020016101f4565b610210610716565b6101e761073d565b61025260085481565b6102106103c836600461131a565b61074c565b6102a56103db3660046114cb565b610800565b6102a56103ee366004611517565b610a26565b610252610401366004611579565b6001600160a01b03918216600090815260016020908152604080832093909416825291909152205490565b600754610389906001600160a01b031681565b61021061044d36600461135a565b8051602081830181018051600a8252928201919093012091525460ff1681565b6102a561047b366004611460565b610d57565b60606003805461048f906115ac565b80601f01602080910402602001604051908101604052809291908181526020018280546104bb906115ac565b80156105085780601f106104dd57610100808354040283529160200191610508565b820191906000526020600020905b8154815290600101906020018083116104eb57829003601f168201915b5050505050905090565b600033610520818585610d92565b60019150505b92915050565b6000610536610d9f565b600061054a670de0b6b3a7640000846115fc565b6001600160a01b0386166000908152600b602052604090205490915081111561058e5760405162461bcd60e51b81526004016105859061161e565b60405180910390fd5b6001600160a01b0385166000908152600b6020526040812080548392906105b6908490611666565b90915550506001600160a01b0384166000908152600b6020526040812080548392906105e3908490611679565b909155506105f49050858585610dca565b95945050505050565b610605610dee565b61060d610e1b565b565b6106193382610e70565b50565b610624610dee565b61060d6000610ea6565b610636610dee565b6001600160a01b03811661069b5760405162461bcd60e51b815260206004820152602660248201527f42544e47476f6c64546f6b656e3a20696e76616c696420637573746f6479206160448201526564647265737360d01b6064820152608401610585565b600780546001600160a01b038381166001600160a01b0319831681179093556040519116919082907f755e356008e46f7f9733fedde8b72fdbe111d6956c3166ed6960a130b7208dac90600090a35050565b6106f8823383610ef8565b6107028282610e70565b5050565b61070e610dee565b61060d610f77565b6000670de0b6b3a764000061072a60025490565b61073491906115fc565b60085414905090565b60606004805461048f906115ac565b6000610756610d9f565b600061076a670de0b6b3a7640000846115fc565b336000908152600b602052604090205490915081111561079c5760405162461bcd60e51b81526004016105859061161e565b336000908152600b6020526040812080548392906107bb908490611666565b90915550506001600160a01b0384166000908152600b6020526040812080548392906107e8908490611679565b909155506107f890508484610fba565b949350505050565b610808610d9f565b610810610fc8565b600a828260405161082292919061168c565b9081526040519081900360200190205460ff16156108965760405162461bcd60e51b815260206004820152602b60248201527f42544e47476f6c64546f6b656e3a20726564656d7074696f6e20616c7265616460448201526a1e481c1c9bd8d95cdcd95960aa1b6064820152608401610585565b336000908152602081905260409020548311156109015760405162461bcd60e51b815260206004820152602360248201527f42544e47476f6c64546f6b656e3a20696e73756666696369656e742062616c616044820152626e636560e81b6064820152608401610585565b610913670de0b6b3a7640000846115fc565b336000908152600b602052604090205410156109415760405162461bcd60e51b81526004016105859061161e565b6001600a838360405161095592919061168c565b908152604051908190036020019020805491151560ff199092169190911790556000610989670de0b6b3a7640000856115fc565b9050806008600082825461099d9190611666565b9091555050336000908152600b6020526040812080548392906109c1908490611666565b909155506109d190503385610e70565b336001600160a01b03167f87e5ad42c3dc976c4282f20db8f08e6de3ed90e3d6550d99b728198447032b67858585604051610a0e9392919061169c565b60405180910390a250610a216001600655565b505050565b6007546001600160a01b03163314610a965760405162461bcd60e51b815260206004820152602d60248201527f42544e47476f6c64546f6b656e3a2063616c6c6572206973206e6f742063757360448201526c1d1bd91e4818dbdb9d1c9858dd609a1b6064820152608401610585565b610a9e610d9f565b8360008111610afe5760405162461bcd60e51b815260206004820152602660248201527f42544e47476f6c64546f6b656e3a20616d6f756e74206d75737420626520706f60448201526573697469766560d01b6064820152608401610585565b600254610b17906b01b24513071a43532d000000611666565b811115610b705760405162461bcd60e51b815260206004820152602160248201527f42544e47476f6c64546f6b656e3a2065786365656473206d617820737570706c6044820152607960f81b6064820152608401610585565b610b78610fc8565b60098484604051610b8a92919061168c565b9081526040519081900360200190205460ff1615610bfe5760405162461bcd60e51b815260206004820152602b60248201527f42544e47476f6c64546f6b656e3a20676f6c6420626174636820616c7265616460448201526a1e481c1c9bd8d95cdcd95960aa1b6064820152608401610585565b610c10670de0b6b3a7640000866115fc565b8214610c785760405162461bcd60e51b815260206004820152603160248201527f42544e47476f6c64546f6b656e3a20676f6c64206772616d73206d757374206d604482015270185d18da081d1bdad95b88185b5bdd5b9d607a1b6064820152608401610585565b600160098585604051610c8c92919061168c565b908152602001604051809103902060006101000a81548160ff0219169083151502179055508160086000828254610cc39190611679565b90915550506001600160a01b0386166000908152600b602052604081208054849290610cf0908490611679565b90915550610d0090508686610ff2565b856001600160a01b03167f5c6182ed76486d13a3d29be1bcd623409823e33da7738d8c29066ed63c677325868686604051610d3d9392919061169c565b60405180910390a2610d4f6001600655565b505050505050565b610d5f610dee565b6001600160a01b038116610d8957604051631e4fbdf760e01b815260006004820152602401610585565b61061981610ea6565b610a218383836001611028565b600554600160a01b900460ff161561060d5760405163d93c066560e01b815260040160405180910390fd5b600033610dd8858285610ef8565b610de38585856110fd565b506001949350505050565b6005546001600160a01b0316331461060d5760405163118cdaa760e01b8152336004820152602401610585565b610e2361115c565b6005805460ff60a01b191690557f5db9ee0a495bf2e6ff9c91a7834c1ba4fdd244a5e8aa4e537bd38aeae4b073aa335b6040516001600160a01b03909116815260200160405180910390a1565b6001600160a01b038216610e9a57604051634b637e8f60e11b815260006004820152602401610585565b61070282600083611186565b600580546001600160a01b038381166001600160a01b0319831681179093556040519116919082907f8be0079c531659141344cd1fd0a4f28419497f9722a3daafe3b4186f6b6457e090600090a35050565b6001600160a01b03838116600090815260016020908152604080832093861683529290522054600019811015610f715781811015610f6257604051637dc7a0d960e11b81526001600160a01b03841660048201526024810182905260448101839052606401610585565b610f7184848484036000611028565b50505050565b610f7f610d9f565b6005805460ff60a01b1916600160a01b1790557f62e78cea01bee320cd4e420270b5ea74000d11b0c9f74754ebdbfc544b05a258610e533390565b6000336105208185856110fd565b600260065403610feb57604051633ee5aeb560e01b815260040160405180910390fd5b6002600655565b6001600160a01b03821661101c5760405163ec442f0560e01b815260006004820152602401610585565b61070260008383611186565b6001600160a01b0384166110525760405163e602df0560e01b815260006004820152602401610585565b6001600160a01b03831661107c57604051634a1406b160e11b815260006004820152602401610585565b6001600160a01b0380851660009081526001602090815260408083209387168352929052208290558015610f7157826001600160a01b0316846001600160a01b03167f8c5be1e5ebec7d5bd14f71427d1e84f3dd0314c0f7b2291e5b200ac8c7c3b925846040516110ef91815260200190565b60405180910390a350505050565b6001600160a01b03831661112757604051634b637e8f60e11b815260006004820152602401610585565b6001600160a01b0382166111515760405163ec442f0560e01b815260006004820152602401610585565b610a21838383611186565b600554600160a01b900460ff1661060d57604051638dfc202b60e01b815260040160405180910390fd5b6001600160a01b0383166111b15780600260008282546111a69190611679565b909155506112239050565b6001600160a01b038316600090815260208190526040902054818110156112045760405163391434e360e21b81526001600160a01b03851660048201526024810182905260448101839052606401610585565b6001600160a01b03841660009081526020819052604090209082900390555b6001600160a01b03821661123f5760028054829003905561125e565b6001600160a01b03821660009081526020819052604090208054820190555b816001600160a01b0316836001600160a01b03167fddf252ad1be2c89b69c2b068fc378daa952ba7f163c4a11628f55a4df523b3ef836040516112a391815260200190565b60405180910390a3505050565b600060208083528351808285015260005b818110156112dd578581018301518582016040015282016112c1565b506000604082860101526040601f19601f8301168501019250505092915050565b80356001600160a01b038116811461131557600080fd5b919050565b6000806040838503121561132d57600080fd5b611336836112fe565b946020939093013593505050565b634e487b7160e01b600052604160045260246000fd5b60006020828403121561136c57600080fd5b813567ffffffffffffffff8082111561138457600080fd5b818401915084601f83011261139857600080fd5b8135818111156113aa576113aa611344565b604051601f8201601f19908116603f011681019083821181831017156113d2576113d2611344565b816040528281528760208487010111156113eb57600080fd5b826020860160208301376000928101602001929092525095945050505050565b60008060006060848603121561142057600080fd5b611429846112fe565b9250611437602085016112fe565b9150604084013590509250925092565b60006020828403121561145957600080fd5b5035919050565b60006020828403121561147257600080fd5b61147b826112fe565b9392505050565b60008083601f84011261149457600080fd5b50813567ffffffffffffffff8111156114ac57600080fd5b6020830191508360208285010111156114c457600080fd5b9250929050565b6000806000604084860312156114e057600080fd5b83359250602084013567ffffffffffffffff8111156114fe57600080fd5b61150a86828701611482565b9497909650939450505050565b60008060008060006080868803121561152f57600080fd5b611538866112fe565b945060208601359350604086013567ffffffffffffffff81111561155b57600080fd5b61156788828901611482565b96999598509660600135949350505050565b6000806040838503121561158c57600080fd5b611595836112fe565b91506115a3602084016112fe565b90509250929050565b600181811c908216806115c057607f821691505b6020821081036115e057634e487b7160e01b600052602260045260246000fd5b50919050565b634e487b7160e01b600052601160045260246000fd5b60008261161957634e487b7160e01b600052601260045260246000fd5b500490565b60208082526028908201527f42544e47476f6c64546f6b656e3a20696e73756666696369656e7420676f6c64604082015267206261636b696e6760c01b606082015260800190565b81810381811115610526576105266115e6565b80820180821115610526576105266115e6565b8183823760009101908152919050565b83815260406020820152816040820152818360608301376000818301606090810191909152601f909201601f191601019291505056fea2646970667358221220b2b2b172fd40189fc67880f2ee0cecebd387952fe15195859fab42518653a47c64736f6c63430008140033",
  "linkReferences": {},
  "deployedLinkReferences": {}
}