{
  "_format": "hh-sol-artifact-1",
  "contractName": "BTNGCustody",
  "sourceName": "contracts/BTNGCustody.sol",
  "abi": [
    {
      "inputs": [
        {
          "internalType": "address",
          "name": "_goldToken",
          "type": "address"
        },
        {
          "internalType": "address",
          "name": "_oracle",
          "type": "address"
        }
      ],
      "stateMutability": "nonpayable",
      "type": "constructor"
    },
    {
      "inputs": [],
      "name": "EnforcedPause",
      "type": "error"
    },
    {
      "inputs": [],
      "name": "ExpectedPause",
      "type": "error"
    },
    {
      "inputs": [
        {
          "internalType": "address",
          "name": "owner",
          "type": "address"
        }
      ],
      "name": "OwnableInvalidOwner",
      "type": "error"
    },
    {
      "inputs": [
        {
          "internalType": "address",
          "name": "account",
          "type": "address"
        }
      ],
      "name": "OwnableUnauthorizedAccount",
      "type": "error"
    },
    {
      "inputs": [],
      "name": "ReentrancyGuardReentrantCall",
      "type": "error"
    },
    {
      "anonymous": false,
      "inputs": [
        {
          "indexed": true,
          "internalType": "address",
          "name": "custodian",
          "type": "address"
        }
      ],
      "name": "CustodianAdded",
      "type": "event"
    },
    {
      "anonymous": false,
      "inputs": [
        {
          "indexed": true,
          "internalType": "address",
          "name": "custodian",
          "type": "address"
        }
      ],
      "name": "CustodianRemoved",
      "type": "event"
    },
    {
      "anonymous": false,
      "inputs": [
        {
          "indexed": false,
          "internalType": "string",
          "name": "batchId",
          "type": "string"
        },
        {
          "indexed": false,
          "internalType": "uint256",
          "name": "grams",
          "type": "uint256"
        },
        {
          "indexed": false,
          "internalType": "address",
          "name": "custodian",
          "type": "address"
        }
      ],
      "name": "GoldDeposited",
      "type": "event"
    },
    {
      "anonymous": false,
      "inputs": [
        {
          "indexed": false,
          "internalType": "string",
          "name": "batchId",
          "type": "string"
        },
        {
          "indexed": false,
          "internalType": "uint256",
          "name": "grams",
          "type": "uint256"
        },
        {
          "indexed": false,
          "internalType": "address",
          "name": "custodian",
          "type": "address"
        }
      ],
      "name": "GoldWithdrawn",
      "type": "event"
    },
    {
      "anonymous": false,
      "inputs": [
        {
          "indexed": true,
          "internalType": "address",
          "name": "requester",
          "type": "address"
        },
        {
          "indexed": false,
          "internalType": "uint256",
          "name": "amount",
          "type": "uint256"
        },
        {
          "indexed": false,
          "internalType": "string",
          "name": "batchId",
          "type": "string"
        }
      ],
      "name": "MintRequest",
      "type": "event"
    },
    {
      "anonymous": false,
      "inputs": [
        {
          "indexed": true,
          "internalType": "address",
          "name": "oldOracle",
          "type": "address"
        },
        {
          "indexed": true,
          "internalType": "address",
          "name": "newOracle",
          "type": "address"
        }
      ],
      "name": "OracleUpdated",
      "type": "event"
    },
    {
      "anonymous": false,
      "inputs": [
        {
          "indexed": true,
          "internalType": "address",
          "name": "previousOwner",
          "type": "address"
        },
        {
          "indexed": true,
          "internalType": "address",
          "name": "newOwner",
          "type": "address"
        }
      ],
      "name": "OwnershipTransferred",
      "type": "event"
    },
    {
      "anonymous": false,
      "inputs": [
        {
          "indexed": false,
          "internalType": "address",
          "name": "account",
          "type": "address"
        }
      ],
      "name": "Paused",
      "type": "event"
    },
    {
      "anonymous": false,
      "inputs": [
        {
          "indexed": true,
          "internalType": "address",
          "name": "requester",
          "type": "address"
        },
        {
          "indexed": false,
          "internalType": "uint256",
          "name": "amount",
          "type": "uint256"
        },
        {
          "indexed": false,
          "internalType": "string",
          "name": "redemptionId",
          "type": "string"
        }
      ],
      "name": "RedemptionRequest",
      "type": "event"
    },
    {
      "anonymous": false,
      "inputs": [
        {
          "indexed": false,
          "internalType": "address",
          "name": "account",
          "type": "address"
        }
      ],
      "name": "Unpaused",
      "type": "event"
    },
    {
      "inputs": [
        {
          "internalType": "address",
          "name": "custodian",
          "type": "address"
        }
      ],
      "name": "addCustodian",
      "outputs": [],
      "stateMutability": "nonpayable",
      "type": "function"
    },
    {
      "inputs": [
        {
          "internalType": "address",
          "name": "",
          "type": "address"
        }
      ],
      "name": "authorizedCustodians",
      "outputs": [
        {
          "internalType": "bool",
          "name": "",
          "type": "bool"
        }
      ],
      "stateMutability": "view",
      "type": "function"
    },
    {
      "inputs": [
        {
          "internalType": "string",
          "name": "batchId",
          "type": "string"
        },
        {
          "internalType": "uint256",
          "name": "grams",
          "type": "uint256"
        },
        {
          "internalType": "string",
          "name": "certificateHash",
          "type": "string"
        }
      ],
      "name": "depositGold",
      "outputs": [],
      "stateMutability": "nonpayable",
      "type": "function"
    },
    {
      "inputs": [
        {
          "internalType": "address",
          "name": "to",
          "type": "address"
        },
        {
          "internalType": "uint256",
          "name": "amount",
          "type": "uint256"
        },
        {
          "internalType": "string",
          "name": "batchId",
          "type": "string"
        }
      ],
      "name": "executeMint",
      "outputs": [],
      "stateMutability": "nonpayable",
      "type": "function"
    },
    {
      "inputs": [
        {
          "internalType": "string",
          "name": "redemptionId",
          "type": "string"
        }
      ],
      "name": "executeRedemption",
      "outputs": [],
      "stateMutability": "nonpayable",
      "type": "function"
    },
    {
      "inputs": [
        {
          "internalType": "string",
          "name": "batchId",
          "type": "string"
        }
      ],
      "name": "getGoldBatch",
      "outputs": [
        {
          "internalType": "uint256",
          "name": "grams",
          "type": "uint256"
        },
        {
          "internalType": "address",
          "name": "custodian",
          "type": "address"
        },
        {
          "internalType": "uint256",
          "name": "timestamp",
          "type": "uint256"
        },
        {
          "internalType": "bool",
          "name": "isDeposited",
          "type": "bool"
        },
        {
          "internalType": "bool",
          "name": "isWithdrawn",
          "type": "bool"
        },
        {
          "internalType": "string",
          "name": "certificateHash",
          "type": "string"
        }
      ],
      "stateMutability": "view",
      "type": "function"
    },
    {
      "inputs": [
        {
          "internalType": "string",
          "name": "redemptionId",
          "type": "string"
        }
      ],
      "name": "getRedemptionRequest",
      "outputs": [
        {
          "internalType": "address",
          "name": "requester",
          "type": "address"
        },
        {
          "internalType": "uint256",
          "name": "amount",
          "type": "uint256"
        },
        {
          "internalType": "uint256",
          "name": "timestamp",
          "type": "uint256"
        },
        {
          "internalType": "bool",
          "name": "isProcessed",
          "type": "bool"
        },
        {
          "internalType": "string",
          "name": "deliveryAddress",
          "type": "string"
        }
      ],
      "stateMutability": "view",
      "type": "function"
    },
    {
      "inputs": [],
      "name": "getTotalReserves",
      "outputs": [
        {
          "internalType": "uint256",
          "name": "",
          "type": "uint256"
        }
      ],
      "stateMutability": "view",
      "type": "function"
    },
    {
      "inputs": [
        {
          "internalType": "string",
          "name": "",
          "type": "string"
        }
      ],
      "name": "goldBatches",
      "outputs": [
        {
          "internalType": "string",
          "name": "batchId",
          "type": "string"
        },
        {
          "internalType": "uint256",
          "name": "grams",
          "type": "uint256"
        },
        {
          "internalType": "address",
          "name": "custodian",
          "type": "address"
        },
        {
          "internalType": "uint256",
          "name": "timestamp",
          "type": "uint256"
        },
        {
          "internalType": "bool",
          "name": "isDeposited",
          "type": "bool"
        },
        {
          "internalType": "bool",
          "name": "isWithdrawn",
          "type": "bool"
        },
        {
          "internalType": "string",
          "name": "certificateHash",
          "type": "string"
        }
      ],
      "stateMutability": "view",
      "type": "function"
    },
    {
      "inputs": [],
      "name": "goldToken",
      "outputs": [
        {
          "internalType": "contract BTNGGoldToken",
          "name": "",
          "type": "address"
        }
      ],
      "stateMutability": "view",
      "type": "function"
    },
    {
      "inputs": [
        {
          "internalType": "address",
          "name": "account",
          "type": "address"
        }
      ],
      "name": "isCustodian",
      "outputs": [
        {
          "internalType": "bool",
          "name": "",
          "type": "bool"
        }
      ],
      "stateMutability": "view",
      "type": "function"
    },
    {
      "inputs": [],
      "name": "minCustodyThreshold",
      "outputs": [
        {
          "internalType": "uint256",
          "name": "",
          "type": "uint256"
        }
      ],
      "stateMutability": "view",
      "type": "function"
    },
    {
      "inputs": [],
      "name": "oracle",
      "outputs": [
        {
          "internalType": "address",
          "name": "",
          "type": "address"
        }
      ],
      "stateMutability": "view",
      "type": "function"
    },
    {
      "inputs": [],
      "name": "owner",
      "outputs": [
        {
          "internalType": "address",
          "name": "",
          "type": "address"
        }
      ],
      "stateMutability": "view",
      "type": "function"
    },
    {
      "inputs": [],
      "name": "pause",
      "outputs": [],
      "stateMutability": "nonpayable",
      "type": "function"
    },
    {
      "inputs": [],
      "name": "paused",
      "outputs": [
        {
          "internalType": "bool",
          "name": "",
          "type": "bool"
        }
      ],
      "stateMutability": "view",
      "type": "function"
    },
    {
      "inputs": [
        {
          "internalType": "string",
          "name": "",
          "type": "string"
        }
      ],
      "name": "redemptionRequests",
      "outputs": [
        {
          "internalType": "address",
          "name": "requester",
          "type": "address"
        },
        {
          "internalType": "uint256",
          "name": "amount",
          "type": "uint256"
        },
        {
          "internalType": "string",
          "name": "redemptionId",
          "type": "string"
        },
        {
          "internalType": "uint256",
          "name": "timestamp",
          "type": "uint256"
        },
        {
          "internalType": "bool",
          "name": "isProcessed",
          "type": "bool"
        },
        {
          "internalType": "string",
          "name": "deliveryAddress",
          "type": "string"
        }
      ],
      "stateMutability": "view",
      "type": "function"
    },
    {
      "inputs": [
        {
          "internalType": "address",
          "name": "custodian",
          "type": "address"
        }
      ],
      "name": "removeCustodian",
      "outputs": [],
      "stateMutability": "nonpayable",
      "type": "function"
    },
    {
      "inputs": [],
      "name": "renounceOwnership",
      "outputs": [],
      "stateMutability": "nonpayable",
      "type": "function"
    },
    {
      "inputs": [
        {
          "internalType": "uint256",
          "name": "amount",
          "type": "uint256"
        },
        {
          "internalType": "string",
          "name": "batchId",
          "type": "string"
        }
      ],
      "name": "requestMint",
      "outputs": [],
      "stateMutability": "nonpayable",
      "type": "function"
    },
    {
      "inputs": [
        {
          "internalType": "uint256",
          "name": "amount",
          "type": "uint256"
        },
        {
          "internalType": "string",
          "name": "redemptionId",
          "type": "string"
        },
        {
          "internalType": "string",
          "name": "deliveryAddress",
          "type": "string"
        }
      ],
      "name": "requestRedemption",
      "outputs": [],
      "stateMutability": "nonpayable",
      "type": "function"
    },
    {
      "inputs": [],
      "name": "totalGoldReserves",
      "outputs": [
        {
          "internalType": "uint256",
          "name": "",
          "type": "uint256"
        }
      ],
      "stateMutability": "view",
      "type": "function"
    },
    {
      "inputs": [
        {
          "internalType": "address",
          "name": "newOwner",
          "type": "address"
        }
      ],
      "name": "transferOwnership",
      "outputs": [],
      "stateMutability": "nonpayable",
      "type": "function"
    },
    {
      "inputs": [],
      "name": "unpause",
      "outputs": [],
      "stateMutability": "nonpayable",
      "type": "function"
    },
    {
      "inputs": [
        {
          "internalType": "address",
          "name": "newToken",
          "type": "address"
        }
      ],
      "name": "updateGoldToken",
      "outputs": [],
      "stateMutability": "nonpayable",
      "type": "function"
    },
    {
      "inputs": [
        {
          "internalType": "uint256",
          "name": "newThreshold",
          "type": "uint256"
        }
      ],
      "name": "updateMinThreshold",
      "outputs": [],
      "stateMutability": "nonpayable",
      "type": "function"
    },
    {
      "inputs": [
        {
          "internalType": "address",
          "name": "newOracle",
          "type": "address"
        }
      ],
      "name": "updateOracle",
      "outputs": [],
      "stateMutability": "nonpayable",
      "type": "function"
    },
    {
      "inputs": [
        {
          "internalType": "string",
          "name": "batchId",
          "type": "string"
        }
      ],
      "name": "withdrawGold",
      "outputs": [],
      "stateMutability": "nonpayable",
      "type": "function"
    }
  ],
  "bytecode": "0x60806040526103e86008553480156200001757600080fd5b5060405162002781380380620027818339810160408190526200003a91620001b0565b33806200006257604051631e4fbdf760e01b8152600060048201526024015b60405180910390fd5b6200006d8162000143565b50600180556001600160a01b038116620000d65760405162461bcd60e51b815260206004820152602360248201527f42544e47437573746f64793a20696e76616c6964206f7261636c65206164647260448201526265737360e81b606482015260840162000059565b6001600160a01b038216156200010257600280546001600160a01b0319166001600160a01b0384161790555b600380546001600160a01b0319166001600160a01b039290921691909117905550336000908152600660205260409020805460ff19166001179055620001e8565b600080546001600160a01b038381166001600160a01b0319831681178455604051919092169283917f8be0079c531659141344cd1fd0a4f28419497f9722a3daafe3b4186f6b6457e09190a35050565b80516001600160a01b0381168114620001ab57600080fd5b919050565b60008060408385031215620001c457600080fd5b620001cf8362000193565b9150620001df6020840162000193565b90509250929050565b61258980620001f86000396000f3fe608060405234801561001057600080fd5b50600436106101c45760003560e01c8063822f4dec116100f9578063c2fdcbd311610097578063d94d1ec511610071578063d94d1ec5146103ea578063eb0e5f9d1461040f578063f2fde38b14610422578063fb9ca1331461043557600080fd5b8063c2fdcbd31461038e578063cf2d2a99146103b4578063d43bfc4b146103c757600080fd5b80638da5cb5b116100d35780638da5cb5b1461033c5780638f52c13f1461034d57806394002b5714610372578063969ddf8a1461038557600080fd5b8063822f4dec146103185780638456cb591461032157806385d95b811461032957600080fd5b80633f4ba83a11610166578063675cd37311610140578063675cd373146102bf578063715018a6146102d257806373693934146102da5780637dc0d1d0146102ed57600080fd5b80633f4ba83a14610292578063474caf251461029a5780635c975abb146102ad57600080fd5b80631cb44dfc116101a25780631cb44dfc146102045780631e2cdd0d14610217578063242693d31461024457806335c80c8c1461025657600080fd5b806309f28d63146101c95780630f12a66a146101de57806317dfb538146101f1575b600080fd5b6101dc6101d7366004611d5a565b610448565b005b6101dc6101ec366004611df0565b6106fe565b6101dc6101ff366004611e12565b6107b7565b6101dc610212366004611df0565b610ad3565b61022a610225366004611e6e565b610b8f565b60405161023b959493929190611ef6565b60405180910390f35b6007545b60405190815260200161023b565b610282610264366004611df0565b6001600160a01b031660009081526006602052604090205460ff1690565b604051901515815260200161023b565b6101dc610d4d565b6101dc6102a8366004611f36565b610d5f565b600054600160a01b900460ff16610282565b6101dc6102cd366004611f82565b610ea8565b6101dc61115c565b6101dc6102e8366004611fdc565b61116e565b600354610300906001600160a01b031681565b6040516001600160a01b03909116815260200161023b565b61024860085481565b6101dc61117b565b6101dc610337366004611df0565b61118b565b6000546001600160a01b0316610300565b61036061035b366004611e6e565b6112ad565b60405161023b96959493929190611ff5565b600254610300906001600160a01b031681565b61024860075481565b6103a161039c366004612054565b611488565b60405161023b9796959493929190612105565b6101dc6103c2366004611e6e565b6115f4565b6102826103d5366004611df0565b60066020526000908152604090205460ff1681565b6103fd6103f8366004612054565b611706565b60405161023b96959493929190612165565b6101dc61041d366004611e6e565b611868565b6101dc610430366004611df0565b611a5b565b6101dc610443366004611df0565b611a99565b610450611b7d565b610458611ba8565b600085116104815760405162461bcd60e51b8152600401610478906121b9565b60405180910390fd5b826104d95760405162461bcd60e51b815260206004820152602260248201527f42544e47437573746f64793a20696e76616c696420726564656d7074696f6e20604482015261125160f21b6064820152608401610478565b806105345760405162461bcd60e51b815260206004820152602560248201527f42544e47437573746f64793a20696e76616c69642064656c6976657279206164604482015264647265737360d81b6064820152608401610478565b600584846040516105469291906121fd565b9081526040519081900360200190206004015460ff16156105795760405162461bcd60e51b81526004016104789061220d565b6040518060c00160405280336001600160a01b0316815260200186815260200185858080601f01602080910402602001604051908101604052809392919081815260200183838082843760009201829052509385525050426020808501919091526040808501939093528251601f8701829004820281018201909352858352606090930192869150859081908401838280828437600092019190915250505091525060405160059061062e90879087906121fd565b9081526040805160209281900383019020835181546001600160a01b0319166001600160a01b03909116178155918301516001830155820151600282019061067690826122de565b5060608201516003820155608082015160048201805460ff191691151591909117905560a082015160058201906106ad90826122de565b50506040513391507ff03c5dfd71c4a8fda8647ffb47c2271d7c5184fb6274e63e3454a29fd3e8fe66906106e6908890889088906123c7565b60405180910390a26106f760018055565b5050505050565b610706611bd2565b6001600160a01b03811660009081526006602052604090205460ff1661076e5760405162461bcd60e51b815260206004820152601c60248201527f42544e47437573746f64793a206e6f74206120637573746f6469616e000000006044820152606401610478565b6001600160a01b038116600081815260066020526040808220805460ff19169055517fe56fad1050f87a7ec9e65a20510a87b77226964eaa7ef7c25351f5c1782113119190a250565b3360009081526006602052604090205460ff166107e65760405162461bcd60e51b8152600401610478906123ea565b6107ee611b7d565b6107f6611ba8565b836108435760405162461bcd60e51b815260206004820152601d60248201527f42544e47437573746f64793a20696e76616c69642062617463682049440000006044820152606401610478565b6000831161089f5760405162461bcd60e51b815260206004820152602360248201527f42544e47437573746f64793a206772616d73206d75737420626520706f73697460448201526269766560e81b6064820152608401610478565b600485856040516108b19291906121fd565b9081526040519081900360200190206004015460ff16156109205760405162461bcd60e51b8152602060048201526024808201527f42544e47437573746f64793a20626174636820616c7265616479206465706f736044820152631a5d195960e21b6064820152608401610478565b6040518060e0016040528086868080601f01602080910402602001604051908101604052809392919081815260200183838082843760009201829052509385525050506020808301879052336040808501919091524260608501526001608085015260a08401929092528151601f860182900482028101820190925284825260c090920191859085908190840183828082843760009201919091525050509152506040516004906109d490889088906121fd565b908152604051908190036020019020815181906109f190826122de565b506020820151600182015560408201516002820180546001600160a01b039092166001600160a01b031990921691909117905560608201516003820155608082015160048201805460a085015115156101000261ff00199315159390931661ffff199091161791909117905560c08201516005820190610a7190826122de565b509050508260076000828254610a87919061244f565b90915550506040517fb7f1b8ff8a6a0bf5dc987d23b2c61d2727522e7b2aab316148eb897a8e8aa8d190610ac2908790879087903390612468565b60405180910390a16106f760018055565b610adb611bd2565b6001600160a01b038116610b3d5760405162461bcd60e51b815260206004820152602360248201527f42544e47437573746f64793a20696e76616c6964206f7261636c65206164647260448201526265737360e81b6064820152608401610478565b600380546001600160a01b038381166001600160a01b0319831681179093556040519116919082907f078c3b417dadf69374a59793b829c52001247130433427049317bde56607b1b790600090a35050565b6000806000806060600060058888604051610bab9291906121fd565b90815260408051918290036020908101832060c08401835280546001600160a01b031684526001810154918401919091526002810180549192840191610bf090612256565b80601f0160208091040260200160405190810160405280929190818152602001828054610c1c90612256565b8015610c695780601f10610c3e57610100808354040283529160200191610c69565b820191906000526020600020905b815481529060010190602001808311610c4c57829003601f168201915b505050918352505060038201546020820152600482015460ff1615156040820152600582018054606090920191610c9f90612256565b80601f0160208091040260200160405190810160405280929190818152602001828054610ccb90612256565b8015610d185780601f10610ced57610100808354040283529160200191610d18565b820191906000526020600020905b815481529060010190602001808311610cfb57829003601f168201915b505050919092525050815160208301516060840151608085015160a090950151929d919c509a50929850965090945050505050565b610d55611bd2565b610d5d611bff565b565b610d67611b7d565b610d6f611ba8565b60008311610d8f5760405162461bcd60e51b8152600401610478906121b9565b600060048383604051610da39291906121fd565b908152604051908190036020019020600481015490915060ff168015610dd357506004810154610100900460ff16155b610e1f5760405162461bcd60e51b815260206004820152601f60248201527f42544e47437573746f64793a20696e76616c696420676f6c64206261746368006044820152606401610478565b610e31670de0b6b3a76400008561249d565b81600101541015610e545760405162461bcd60e51b8152600401610478906124bf565b336001600160a01b03167fa2edbe09f5d0124cd7ed19736d687e9c048c42bcea6df3d6381fafb2e1ffbb01858585604051610e91939291906123c7565b60405180910390a250610ea360018055565b505050565b6003546001600160a01b03163314610f0c5760405162461bcd60e51b815260206004820152602160248201527f42544e47437573746f64793a2063616c6c6572206973206e6f74206f7261636c6044820152606560f81b6064820152608401610478565b610f14611b7d565b610f26670de0b6b3a76400008461249d565b806007541015610f885760405162461bcd60e51b815260206004820152602760248201527f42544e47437573746f64793a20696e73756666696369656e7420676f6c6420726044820152666573657276657360c81b6064820152608401610478565b60085481600754610f999190612506565b1015610ffc5760405162461bcd60e51b815260206004820152602c60248201527f42544e47437573746f64793a20776f756c642076696f6c617465206d696e696d60448201526b1d5b481d1a1c995cda1bdb1960a21b6064820152608401610478565b611004611ba8565b6000600484846040516110189291906121fd565b908152604051908190036020019020600481015490915060ff16801561104857506004810154610100900460ff16155b6110945760405162461bcd60e51b815260206004820152601f60248201527f42544e47437573746f64793a20696e76616c696420676f6c64206261746368006044820152606401610478565b60006110a8670de0b6b3a76400008761249d565b905080826001015410156110ce5760405162461bcd60e51b8152600401610478906124bf565b808260010160008282546110e29190612506565b909155505060025460405163cbbfbdc160e01b81526001600160a01b039091169063cbbfbdc19061111f908a908a908a908a908890600401612519565b600060405180830381600087803b15801561113957600080fd5b505af115801561114d573d6000803e3d6000fd5b5050505050506106f760018055565b611164611bd2565b610d5d6000611c54565b611176611bd2565b600855565b611183611bd2565b610d5d611ca4565b611193611bd2565b6001600160a01b0381166111f85760405162461bcd60e51b815260206004820152602660248201527f42544e47437573746f64793a20696e76616c696420637573746f6469616e206160448201526564647265737360d01b6064820152608401610478565b6001600160a01b03811660009081526006602052604090205460ff16156112615760405162461bcd60e51b815260206004820152601e60248201527f42544e47437573746f64793a20616c726561647920637573746f6469616e00006044820152606401610478565b6001600160a01b038116600081815260066020526040808220805460ff19166001179055517f73cf676213e5bee58b8715fc95e7b73fc9b9f988e18e7d07a58fe0d5054afae69190a250565b600080600080600060606000600489896040516112cb9291906121fd565b90815260200160405180910390206040518060e00160405290816000820180546112f490612256565b80601f016020809104026020016040519081016040528092919081815260200182805461132090612256565b801561136d5780601f106113425761010080835404028352916020019161136d565b820191906000526020600020905b81548152906001019060200180831161135057829003601f168201915b50505091835250506001820154602082015260028201546001600160a01b0316604082015260038201546060820152600482015460ff8082161515608084015261010090910416151560a082015260058201805460c0909201916113d090612256565b80601f01602080910402602001604051908101604052809291908181526020018280546113fc90612256565b80156114495780601f1061141e57610100808354040283529160200191611449565b820191906000526020600020905b81548152906001019060200180831161142c57829003601f168201915b50505091909252505050602081015160408201516060830151608084015160a085015160c090950151939e929d50909b50995091975095509350505050565b80516020818301810180516004825292820191909301209152805481906114ae90612256565b80601f01602080910402602001604051908101604052809291908181526020018280546114da90612256565b80156115275780601f106114fc57610100808354040283529160200191611527565b820191906000526020600020905b81548152906001019060200180831161150a57829003601f168201915b505050506001830154600284015460038501546004860154600587018054969794966001600160a01b039094169550919360ff808316946101009093041692909161157190612256565b80601f016020809104026020016040519081016040528092919081815260200182805461159d90612256565b80156115ea5780601f106115bf576101008083540402835291602001916115ea565b820191906000526020600020905b8154815290600101906020018083116115cd57829003601f168201915b5050505050905087565b3360009081526006602052604090205460ff166116235760405162461bcd60e51b8152600401610478906123ea565b61162b611b7d565b611633611ba8565b6000600583836040516116479291906121fd565b908152604051908190036020019020600481015490915060ff161561167e5760405162461bcd60e51b81526004016104789061220d565b6004808201805460ff191660019081179091556002549083015460405163b8428ca160e01b81526001600160a01b039092169263b8428ca1926116c6929188918891016123c7565b600060405180830381600087803b1580156116e057600080fd5b505af11580156116f4573d6000803e3d6000fd5b505050505061170260018055565b5050565b80516020818301810180516005825292820191909301209152805460018201546002830180546001600160a01b0390931693919261174390612256565b80601f016020809104026020016040519081016040528092919081815260200182805461176f90612256565b80156117bc5780601f10611791576101008083540402835291602001916117bc565b820191906000526020600020905b81548152906001019060200180831161179f57829003601f168201915b50505050600383015460048401546005850180549495929460ff9092169350906117e590612256565b80601f016020809104026020016040519081016040528092919081815260200182805461181190612256565b801561185e5780601f106118335761010080835404028352916020019161185e565b820191906000526020600020905b81548152906001019060200180831161184157829003601f168201915b5050505050905086565b3360009081526006602052604090205460ff166118975760405162461bcd60e51b8152600401610478906123ea565b61189f611b7d565b6118a7611ba8565b6000600483836040516118bb9291906121fd565b908152604051908190036020019020600481015490915060ff166119215760405162461bcd60e51b815260206004820181905260248201527f42544e47437573746f64793a206261746368206e6f74206465706f73697465646044820152606401610478565b6004810154610100900460ff16156119875760405162461bcd60e51b8152602060048201526024808201527f42544e47437573746f64793a20626174636820616c72656164792077697468646044820152633930bbb760e11b6064820152608401610478565b60028101546001600160a01b031633146119e35760405162461bcd60e51b815260206004820181905260248201527f42544e47437573746f64793a206e6f7420626174636820637573746f6469616e6044820152606401610478565b60048101805461ff001916610100179055600181015460078054600090611a0b908490612506565b909155505060018101546040517fe4d8a078ed3a6256ae824d0c73bd42ffeca35ebd56a9609ed09036a3be7f4b6f91611a4991869186913390612468565b60405180910390a15061170260018055565b611a63611bd2565b6001600160a01b038116611a8d57604051631e4fbdf760e01b815260006004820152602401610478565b611a9681611c54565b50565b611aa1611bd2565b6001600160a01b038116611b025760405162461bcd60e51b815260206004820152602260248201527f42544e47437573746f64793a20696e76616c696420746f6b656e206164647265604482015261737360f01b6064820152608401610478565b6002546001600160a01b031615611b5b5760405162461bcd60e51b815260206004820152601e60248201527f42544e47437573746f64793a20746f6b656e20616c72656164792073657400006044820152606401610478565b600280546001600160a01b0319166001600160a01b0392909216919091179055565b600054600160a01b900460ff1615610d5d5760405163d93c066560e01b815260040160405180910390fd5b600260015403611bcb57604051633ee5aeb560e01b815260040160405180910390fd5b6002600155565b6000546001600160a01b03163314610d5d5760405163118cdaa760e01b8152336004820152602401610478565b611c07611ce7565b6000805460ff60a01b191690557f5db9ee0a495bf2e6ff9c91a7834c1ba4fdd244a5e8aa4e537bd38aeae4b073aa335b6040516001600160a01b03909116815260200160405180910390a1565b600080546001600160a01b038381166001600160a01b0319831681178455604051919092169283917f8be0079c531659141344cd1fd0a4f28419497f9722a3daafe3b4186f6b6457e09190a35050565b611cac611b7d565b6000805460ff60a01b1916600160a01b1790557f62e78cea01bee320cd4e420270b5ea74000d11b0c9f74754ebdbfc544b05a258611c373390565b600054600160a01b900460ff16610d5d57604051638dfc202b60e01b815260040160405180910390fd5b60008083601f840112611d2357600080fd5b50813567ffffffffffffffff811115611d3b57600080fd5b602083019150836020828501011115611d5357600080fd5b9250929050565b600080600080600060608688031215611d7257600080fd5b85359450602086013567ffffffffffffffff80821115611d9157600080fd5b611d9d89838a01611d11565b90965094506040880135915080821115611db657600080fd5b50611dc388828901611d11565b969995985093965092949392505050565b80356001600160a01b0381168114611deb57600080fd5b919050565b600060208284031215611e0257600080fd5b611e0b82611dd4565b9392505050565b600080600080600060608688031215611e2a57600080fd5b853567ffffffffffffffff80821115611e4257600080fd5b611e4e89838a01611d11565b9097509550602088013594506040880135915080821115611db657600080fd5b60008060208385031215611e8157600080fd5b823567ffffffffffffffff811115611e9857600080fd5b611ea485828601611d11565b90969095509350505050565b6000815180845260005b81811015611ed657602081850181015186830182015201611eba565b506000602082860101526020601f19601f83011685010191505092915050565b60018060a01b0386168152846020820152836040820152821515606082015260a060808201526000611f2b60a0830184611eb0565b979650505050505050565b600080600060408486031215611f4b57600080fd5b83359250602084013567ffffffffffffffff811115611f6957600080fd5b611f7586828701611d11565b9497909650939450505050565b60008060008060608587031215611f9857600080fd5b611fa185611dd4565b935060208501359250604085013567ffffffffffffffff811115611fc457600080fd5b611fd087828801611d11565b95989497509550505050565b600060208284031215611fee57600080fd5b5035919050565b86815260018060a01b03861660208201528460408201528315156060820152821515608082015260c060a0820152600061203260c0830184611eb0565b98975050505050505050565b634e487b7160e01b600052604160045260246000fd5b60006020828403121561206657600080fd5b813567ffffffffffffffff8082111561207e57600080fd5b818401915084601f83011261209257600080fd5b8135818111156120a4576120a461203e565b604051601f8201601f19908116603f011681019083821181831017156120cc576120cc61203e565b816040528281528760208487010111156120e557600080fd5b826020860160208301376000928101602001929092525095945050505050565b60e08152600061211860e083018a611eb0565b602083018990526001600160a01b038816604084015260608301879052851515608084015284151560a084015282810360c08401526121578185611eb0565b9a9950505050505050505050565b60018060a01b038716815285602082015260c06040820152600061218c60c0830187611eb0565b856060840152841515608084015282810360a08401526121ac8185611eb0565b9998505050505050505050565b60208082526024908201527f42544e47437573746f64793a20616d6f756e74206d75737420626520706f73696040820152637469766560e01b606082015260800190565b8183823760009101908152919050565b60208082526029908201527f42544e47437573746f64793a20726564656d7074696f6e20616c7265616479206040820152681c1c9bd8d95cdcd95960ba1b606082015260800190565b600181811c9082168061226a57607f821691505b60208210810361228a57634e487b7160e01b600052602260045260246000fd5b50919050565b601f821115610ea357600081815260208120601f850160051c810160208610156122b75750805b601f850160051c820191505b818110156122d6578281556001016122c3565b505050505050565b815167ffffffffffffffff8111156122f8576122f861203e565b61230c816123068454612256565b84612290565b602080601f83116001811461234157600084156123295750858301515b600019600386901b1c1916600185901b1785556122d6565b600085815260208120601f198616915b8281101561237057888601518255948401946001909101908401612351565b508582101561238e5787850151600019600388901b60f8161c191681555b5050505050600190811b01905550565b81835281816020850137506000828201602090810191909152601f909101601f19169091010190565b8381526040602082015260006123e160408301848661239e565b95945050505050565b6020808252602f908201527f42544e47437573746f64793a2063616c6c6572206973206e6f7420617574686f60408201526e3934bd32b21031bab9ba37b234b0b760891b606082015260800190565b634e487b7160e01b600052601160045260246000fd5b8082018082111561246257612462612439565b92915050565b60608152600061247c60608301868861239e565b6020830194909452506001600160a01b039190911660409091015292915050565b6000826124ba57634e487b7160e01b600052601260045260246000fd5b500490565b60208082526027908201527f42544e47437573746f64793a20696e73756666696369656e7420676f6c6420696040820152660dc40c4c2e8c6d60cb1b606082015260800190565b8181038181111561246257612462612439565b60018060a01b038616815284602082015260806040820152600061254160808301858761239e565b9050826060830152969550505050505056fea26469706673582212203848e10a96fda714809fac9581ee995c0d4ded7e6eb62b00ac0ae2fadf7ec3f564736f6c63430008140033",
  "linkReferences": {},
  "deployedLinkReferences": {}
}