{
  "_format": "hh-sol-artifact-1",
  "contractName": "BTNGGoldOracle",
  "sourceName": "contracts/BTNGGoldOracle.sol",
  "abi": [
    {
      "inputs": [],
      "stateMutability": "nonpayable",
      "type": "constructor"
    },
    {
      "inputs": [],
      "name": "EnforcedPause",
      "type": "error"
    },
    {
      "inputs": [],
      "name": "ExpectedPause",
      "type": "error"
    },
    {
      "inputs": [
        {
          "internalType": "address",
          "name": "owner",
          "type": "address"
        }
      ],
      "name": "OwnableInvalidOwner",
      "type": "error"
    },
    {
      "inputs": [
        {
          "internalType": "address",
          "name": "account",
          "type": "address"
        }
      ],
      "name": "OwnableUnauthorizedAccount",
      "type": "error"
    },
    {
      "inputs": [],
      "name": "ReentrancyGuardReentrantCall",
      "type": "error"
    },
    {
      "anonymous": false,
      "inputs": [
        {
          "indexed": false,
          "internalType": "uint256",
          "name": "oldPrice",
          "type": "uint256"
        },
        {
          "indexed": false,
          "internalType": "uint256",
          "name": "newPrice",
          "type": "uint256"
        },
        {
          "indexed": false,
          "internalType": "uint256",
          "name": "timestamp",
          "type": "uint256"
        }
      ],
      "name": "GoldPriceUpdated",
      "type": "event"
    },
    {
      "anonymous": false,
      "inputs": [
        {
          "indexed": true,
          "internalType": "address",
          "name": "feeder",
          "type": "address"
        }
      ],
      "name": "OracleFeederAdded",
      "type": "event"
    },
    {
      "anonymous": false,
      "inputs": [
        {
          "indexed": true,
          "internalType": "address",
          "name": "feeder",
          "type": "address"
        }
      ],
      "name": "OracleFeederRemoved",
      "type": "event"
    },
    {
      "anonymous": false,
      "inputs": [
        {
          "indexed": true,
          "internalType": "address",
          "name": "previousOwner",
          "type": "address"
        },
        {
          "indexed": true,
          "internalType": "address",
          "name": "newOwner",
          "type": "address"
        }
      ],
      "name": "OwnershipTransferred",
      "type": "event"
    },
    {
      "anonymous": false,
      "inputs": [
        {
          "indexed": false,
          "internalType": "address",
          "name": "account",
          "type": "address"
        }
      ],
      "name": "Paused",
      "type": "event"
    },
    {
      "anonymous": false,
      "inputs": [
        {
          "indexed": false,
          "internalType": "string",
          "name": "countryCode",
          "type": "string"
        },
        {
          "indexed": false,
          "internalType": "uint256",
          "name": "newReserves",
          "type": "uint256"
        }
      ],
      "name": "ReserveDataUpdated",
      "type": "event"
    },
    {
      "anonymous": false,
      "inputs": [
        {
          "indexed": false,
          "internalType": "address",
          "name": "account",
          "type": "address"
        }
      ],
      "name": "Unpaused",
      "type": "event"
    },
    {
      "anonymous": false,
      "inputs": [
        {
          "indexed": false,
          "internalType": "bytes32",
          "name": "requestId",
          "type": "bytes32"
        },
        {
          "indexed": false,
          "internalType": "bool",
          "name": "isValid",
          "type": "bool"
        }
      ],
      "name": "VerificationCompleted",
      "type": "event"
    },
    {
      "inputs": [],
      "name": "MAX_PRICE_AGE",
      "outputs": [
        {
          "internalType": "uint256",
          "name": "",
          "type": "uint256"
        }
      ],
      "stateMutability": "view",
      "type": "function"
    },
    {
      "inputs": [],
      "name": "MAX_RESERVE_AGE",
      "outputs": [
        {
          "internalType": "uint256",
          "name": "",
          "type": "uint256"
        }
      ],
      "stateMutability": "view",
      "type": "function"
    },
    {
      "inputs": [],
      "name": "PRICE_DECIMALS",
      "outputs": [
        {
          "internalType": "uint256",
          "name": "",
          "type": "uint256"
        }
      ],
      "stateMutability": "view",
      "type": "function"
    },
    {
      "inputs": [
        {
          "internalType": "uint256",
          "name": "",
          "type": "uint256"
        }
      ],
      "name": "activeCountries",
      "outputs": [
        {
          "internalType": "string",
          "name": "",
          "type": "string"
        }
      ],
      "stateMutability": "view",
      "type": "function"
    },
    {
      "inputs": [
        {
          "internalType": "address",
          "name": "feeder",
          "type": "address"
        }
      ],
      "name": "addFeeder",
      "outputs": [],
      "stateMutability": "nonpayable",
      "type": "function"
    },
    {
      "inputs": [
        {
          "internalType": "address",
          "name": "",
          "type": "address"
        }
      ],
      "name": "authorizedFeeders",
      "outputs": [
        {
          "internalType": "bool",
          "name": "",
          "type": "bool"
        }
      ],
      "stateMutability": "view",
      "type": "function"
    },
    {
      "inputs": [
        {
          "internalType": "string",
          "name": "countryCode",
          "type": "string"
        },
        {
          "internalType": "uint256",
          "name": "population",
          "type": "uint256"
        }
      ],
      "name": "calculateSovereignValue",
      "outputs": [
        {
          "internalType": "uint256",
          "name": "",
          "type": "uint256"
        }
      ],
      "stateMutability": "view",
      "type": "function"
    },
    {
      "inputs": [
        {
          "internalType": "string",
          "name": "",
          "type": "string"
        }
      ],
      "name": "countryReserves",
      "outputs": [
        {
          "internalType": "string",
          "name": "countryCode",
          "type": "string"
        },
        {
          "internalType": "uint256",
          "name": "goldTonnes",
          "type": "uint256"
        },
        {
          "internalType": "uint256",
          "name": "lastUpdated",
          "type": "uint256"
        },
        {
          "internalType": "address",
          "name": "updater",
          "type": "address"
        },
        {
          "internalType": "bool",
          "name": "isActive",
          "type": "bool"
        }
      ],
      "stateMutability": "view",
      "type": "function"
    },
    {
      "inputs": [],
      "name": "getActiveCountriesCount",
      "outputs": [
        {
          "internalType": "uint256",
          "name": "",
          "type": "uint256"
        }
      ],
      "stateMutability": "view",
      "type": "function"
    },
    {
      "inputs": [
        {
          "internalType": "uint256",
          "name": "index",
          "type": "uint256"
        }
      ],
      "name": "getActiveCountry",
      "outputs": [
        {
          "internalType": "string",
          "name": "",
          "type": "string"
        }
      ],
      "stateMutability": "view",
      "type": "function"
    },
    {
      "inputs": [
        {
          "internalType": "string",
          "name": "countryCode",
          "type": "string"
        }
      ],
      "name": "getCountryReserve",
      "outputs": [
        {
          "internalType": "uint256",
          "name": "goldTonnes",
          "type": "uint256"
        },
        {
          "internalType": "uint256",
          "name": "lastUpdated",
          "type": "uint256"
        },
        {
          "internalType": "bool",
          "name": "isActive",
          "type": "bool"
        }
      ],
      "stateMutability": "view",
      "type": "function"
    },
    {
      "inputs": [],
      "name": "getGoldPrice",
      "outputs": [
        {
          "internalType": "uint256",
          "name": "",
          "type": "uint256"
        }
      ],
      "stateMutability": "view",
      "type": "function"
    },
    {
      "inputs": [],
      "name": "getTotalAfricanReserves",
      "outputs": [
        {
          "internalType": "uint256",
          "name": "",
          "type": "uint256"
        }
      ],
      "stateMutability": "view",
      "type": "function"
    },
    {
      "inputs": [
        {
          "internalType": "bytes32",
          "name": "requestId",
          "type": "bytes32"
        }
      ],
      "name": "getVerificationResult",
      "outputs": [
        {
          "internalType": "bool",
          "name": "",
          "type": "bool"
        }
      ],
      "stateMutability": "view",
      "type": "function"
    },
    {
      "inputs": [
        {
          "internalType": "address",
          "name": "account",
          "type": "address"
        }
      ],
      "name": "isFeeder",
      "outputs": [
        {
          "internalType": "bool",
          "name": "",
          "type": "bool"
        }
      ],
      "stateMutability": "view",
      "type": "function"
    },
    {
      "inputs": [],
      "name": "latestGoldPrice",
      "outputs": [
        {
          "internalType": "uint256",
          "name": "price",
          "type": "uint256"
        },
        {
          "internalType": "uint256",
          "name": "timestamp",
          "type": "uint256"
        },
        {
          "internalType": "address",
          "name": "updater",
          "type": "address"
        }
      ],
      "stateMutability": "view",
      "type": "function"
    },
    {
      "inputs": [],
      "name": "owner",
      "outputs": [
        {
          "internalType": "address",
          "name": "",
          "type": "address"
        }
      ],
      "stateMutability": "view",
      "type": "function"
    },
    {
      "inputs": [],
      "name": "pause",
      "outputs": [],
      "stateMutability": "nonpayable",
      "type": "function"
    },
    {
      "inputs": [],
      "name": "paused",
      "outputs": [
        {
          "internalType": "bool",
          "name": "",
          "type": "bool"
        }
      ],
      "stateMutability": "view",
      "type": "function"
    },
    {
      "inputs": [
        {
          "internalType": "address",
          "name": "feeder",
          "type": "address"
        }
      ],
      "name": "removeFeeder",
      "outputs": [],
      "stateMutability": "nonpayable",
      "type": "function"
    },
    {
      "inputs": [],
      "name": "renounceOwnership",
      "outputs": [],
      "stateMutability": "nonpayable",
      "type": "function"
    },
    {
      "inputs": [
        {
          "internalType": "bytes32",
          "name": "requestId",
          "type": "bytes32"
        },
        {
          "internalType": "uint8",
          "name": "operationType",
          "type": "uint8"
        },
        {
          "internalType": "uint256",
          "name": "amount",
          "type": "uint256"
        },
        {
          "internalType": "string",
          "name": "goldBatchId",
          "type": "string"
        }
      ],
      "name": "requestVerification",
      "outputs": [],
      "stateMutability": "nonpayable",
      "type": "function"
    },
    {
      "inputs": [
        {
          "internalType": "address",
          "name": "newOwner",
          "type": "address"
        }
      ],
      "name": "transferOwnership",
      "outputs": [],
      "stateMutability": "nonpayable",
      "type": "function"
    },
    {
      "inputs": [],
      "name": "unpause",
      "outputs": [],
      "stateMutability": "nonpayable",
      "type": "function"
    },
    {
      "inputs": [
        {
          "internalType": "string",
          "name": "countryCode",
          "type": "string"
        },
        {
          "internalType": "uint256",
          "name": "goldTonnes",
          "type": "uint256"
        }
      ],
      "name": "updateCountryReserve",
      "outputs": [],
      "stateMutability": "nonpayable",
      "type": "function"
    },
    {
      "inputs": [
        {
          "internalType": "uint256",
          "name": "newPrice",
          "type": "uint256"
        }
      ],
      "name": "updateGoldPrice",
      "outputs": [],
      "stateMutability": "nonpayable",
      "type": "function"
    },
    {
      "inputs": [
        {
          "internalType": "bytes32",
          "name": "",
          "type": "bytes32"
        }
      ],
      "name": "verificationRequests",
      "outputs": [
        {
          "internalType": "bool",
          "name": "",
          "type": "bool"
        }
      ],
      "stateMutability": "view",
      "type": "function"
    },
    {
      "inputs": [
        {
          "internalType": "bytes32",
          "name": "",
          "type": "bytes32"
        }
      ],
      "name": "verificationResults",
      "outputs": [
        {
          "internalType": "bool",
          "name": "",
          "type": "bool"
        }
      ],
      "stateMutability": "view",
      "type": "function"
    }
  ],
  "bytecode": "0x60806040523480156200001157600080fd5b5033806200003957604051631e4fbdf760e01b81526000600482015260240160405180910390fd5b620000448162000074565b506001808055336000908152600260205260409020805460ff191690911790556200006e620000c4565b6200054d565b600080546001600160a01b038381166001600160a01b0319831681178455604051919092169283917f8be0079c531659141344cd1fd0a4f28419497f9722a3daafe3b4186f6b6457e09190a35050565b604080518082019091526002815261222d60f11b6020820152620000ed90630a58ed006200024b565b604080518082019091526002815261454760f01b602082015262000116906304ba05a06200024b565b6040805180820190915260028152614c5960f01b60208201526200013f906306f32cc06200024b565b6040805180820190915260028152615a4160f01b60208201526200016890630777ed206200024b565b60408051808201909152600281526108e960f31b602082015262000190906284c0606200024b565b6040805180820190915260028152614e4760f01b6020820152620001b99063014689c06200024b565b6040805180820190915260028152614d4160f01b6020820152620001e29063015138206200024b565b6040805180820190915260028152612a2760f11b60208201526200020a906267c2806200024b565b60408051606081018252640165a0bc0080825242602083018190523392909301829052600455600591909155600680546001600160a01b0319169091179055565b6003826040516200025d9190620003ab565b9081526040519081900360200190206003015460ff600160a01b909104166200030057600780546001810182556000919091527fa66cc928b5edb82af9bd49922954155ab7b0942694bea4ce44661d9a8736c68801620002be838262000481565b506001600383604051620002d39190620003ab565b9081526040519081900360200190206003018054911515600160a01b0260ff60a01b199092169190911790555b6040805160a08101825283815260208101839052428183015233606082015260016080820152905160039062000338908590620003ab565b9081526040519081900360200190208151819062000357908262000481565b5060208201516001820155604082015160028201556060820151600390910180546080909301511515600160a01b026001600160a81b03199093166001600160a01b03909216919091179190911790555050565b6000825160005b81811015620003ce5760208186018101518583015201620003b2565b506000920191825250919050565b634e487b7160e01b600052604160045260246000fd5b600181811c908216806200040757607f821691505b6020821081036200042857634e487b7160e01b600052602260045260246000fd5b50919050565b601f8211156200047c57600081815260208120601f850160051c81016020861015620004575750805b601f850160051c820191505b81811015620004785782815560010162000463565b5050505b505050565b81516001600160401b038111156200049d576200049d620003dc565b620004b581620004ae8454620003f2565b846200042e565b602080601f831160018114620004ed5760008415620004d45750858301515b600019600386901b1c1916600185901b17855562000478565b600085815260208120601f198616915b828110156200051e57888601518255948401946001909101908401620004fd565b50858210156200053d5787850151600019600388901b60f8161c191681555b5050505050600190811b01905550565b611cf0806200055d6000396000f3fe608060405234801561001057600080fd5b50600436106101c45760003560e01c80637e5d70a0116100f9578063921ec9e711610097578063da6bae1011610071578063da6bae1014610424578063eebc56f11461042c578063f1a640f81461043f578063f2fde38b1461044757600080fd5b8063921ec9e7146103ef5780639d7f7e86146103f7578063d5ed6e951461040157600080fd5b80638cbb7cf3116100d35780638cbb7cf31461039b5780638da5cb5b146103ae5780638e1207dc146103c95780638e95b7d8146103dc57600080fd5b80637e5d70a0146103445780638456cb59146103675780638b610d291461036f57600080fd5b80633ecafe55116101665780635c975abb116101405780635c975abb146102f0578063657be87614610302578063715018a61461033257806378ec537f1461033a57600080fd5b80633ecafe55146102a45780633f4ba83a146102c4578063509dddd2146102cc57600080fd5b8063155fb6ae116101a2578063155fb6ae1461023757806316b54dba1461024a57806318e34f411461028957806336beb6971461029157600080fd5b8063024ac97a146101c95780630f3908c8146101ef57806312ace01614610222575b600080fd5b6101dc6101d73660046115bf565b61045a565b6040519081526020015b60405180910390f35b6102126101fd36600461160b565b60086020526000908152604090205460ff1681565b60405190151581526020016101e6565b6102356102303660046115bf565b610613565b005b610235610245366004611624565b610751565b6004546005546006546102659291906001600160a01b031683565b6040805193845260208401929092526001600160a01b0316908201526060016101e6565b6007546101dc565b61021261029f36600461160b565b610873565b6102b76102b236600461160b565b6108f1565b6040516101e691906116a4565b6102356109fe565b6102df6102da3660046116cd565b610a10565b6040516101e695949392919061177e565b600054600160a01b900460ff16610212565b6103156103103660046117c0565b610ae2565b6040805193845260208401929092521515908201526060016101e6565b610235610c1e565b6101dc62093a8081565b61021261035236600461160b565b60096020526000908152604090205460ff1681565b610235610c30565b61021261037d366004611624565b6001600160a01b031660009081526002602052604090205460ff1690565b6102b76103a936600461160b565b610c40565b6000546040516001600160a01b0390911681526020016101e6565b6102356103d7366004611624565b610cec565b6102356103ea366004611802565b610db3565b6101dc610ef2565b6101dc6201518081565b61021261040f366004611624565b60026020526000908152604090205460ff1681565b6101dc610f64565b61023561043a36600461160b565b610fd9565b6101dc600881565b610235610455366004611624565b61116e565b6000806003858560405161046f929190611872565b90815260200160405180910390206040518060a001604052908160008201805461049890611882565b80601f01602080910402602001604051908101604052809291908181526020018280546104c490611882565b80156105115780601f106104e657610100808354040283529160200191610511565b820191906000526020600020905b8154815290600101906020018083116104f457829003601f168201915b505050918352505060018201546020820152600282015460408201526003909101546001600160a01b0381166060830152600160a01b900460ff16151560809182015281015190915061057f5760405162461bcd60e51b8152600401610576906118b6565b60405180910390fd5b600083116105da5760405162461bcd60e51b815260206004820152602260248201527f42544e47476f6c644f7261636c653a20696e76616c696420706f70756c61746960448201526137b760f11b6064820152608401610576565b60008160200151620f42406105ef919061190d565b9050836105ff82620f424061190d565b610609919061192a565b9695505050505050565b3360009081526002602052604090205460ff168061063b57506000546001600160a01b031633145b6106575760405162461bcd60e51b81526004016105769061194c565b61065f6111ac565b8282600281146106bd5760405162461bcd60e51b8152602060048201526024808201527f42544e47476f6c644f7261636c653a20696e76616c696420636f756e74727920604482015263636f646560e01b6064820152608401610576565b6106c56111d7565b61070685858080601f016020809104026020016040519081016040528093929190818152602001838380828437600092019190915250879250611201915050565b7f5e2cd780624c186d7147aafeefc1d4d928298d0e92d06fe8a51b58453ca23c3b8585856040516107399392919061199b565b60405180910390a161074a60018055565b5050505050565b610759611356565b6001600160a01b0381166107be5760405162461bcd60e51b815260206004820152602660248201527f42544e47476f6c644f7261636c653a20696e76616c696420666565646572206160448201526564647265737360d01b6064820152608401610576565b6001600160a01b03811660009081526002602052604090205460ff16156108275760405162461bcd60e51b815260206004820152601e60248201527f42544e47476f6c644f7261636c653a20616c72656164792066656564657200006044820152606401610576565b6001600160a01b038116600081815260026020526040808220805460ff19166001179055517f8c81ae2eb19dd8dfc5503227f8f66bcddd4b7e1e98705dab87a19882139e3efc9190a250565b60008181526008602052604081205460ff166108db5760405162461bcd60e51b815260206004820152602160248201527f42544e47476f6c644f7261636c653a2072657175657374206e6f7420666f756e6044820152601960fa1b6064820152608401610576565b5060009081526009602052604090205460ff1690565b60075460609082106109515760405162461bcd60e51b815260206004820152602360248201527f42544e47476f6c644f7261636c653a20696e646578206f7574206f6620626f756044820152626e647360e81b6064820152608401610576565b60078281548110610964576109646119d4565b90600052602060002001805461097990611882565b80601f01602080910402602001604051908101604052809291908181526020018280546109a590611882565b80156109f25780601f106109c7576101008083540402835291602001916109f2565b820191906000526020600020905b8154815290600101906020018083116109d557829003601f168201915b50505050509050919050565b610a06611356565b610a0e611383565b565b8051602081830181018051600382529282019190930120915280548190610a3690611882565b80601f0160208091040260200160405190810160405280929190818152602001828054610a6290611882565b8015610aaf5780601f10610a8457610100808354040283529160200191610aaf565b820191906000526020600020905b815481529060010190602001808311610a9257829003601f168201915b5050505060018301546002840154600390940154929390929091506001600160a01b03811690600160a01b900460ff1685565b60008060008060038686604051610afa929190611872565b90815260200160405180910390206040518060a0016040529081600082018054610b2390611882565b80601f0160208091040260200160405190810160405280929190818152602001828054610b4f90611882565b8015610b9c5780601f10610b7157610100808354040283529160200191610b9c565b820191906000526020600020905b815481529060010190602001808311610b7f57829003601f168201915b505050918352505060018201546020820152600282015460408201526003909101546001600160a01b0381166060830152600160a01b900460ff161515608091820152810151909150610c015760405162461bcd60e51b8152600401610576906118b6565b806020015181604001518260800151935093509350509250925092565b610c26611356565b610a0e60006113d8565b610c38611356565b610a0e611428565b60078181548110610c5057600080fd5b906000526020600020016000915090508054610c6b90611882565b80601f0160208091040260200160405190810160405280929190818152602001828054610c9790611882565b8015610ce45780601f10610cb957610100808354040283529160200191610ce4565b820191906000526020600020905b815481529060010190602001808311610cc757829003601f168201915b505050505081565b610cf4611356565b6001600160a01b03811660009081526002602052604090205460ff16610d6a5760405162461bcd60e51b815260206004820152602560248201527f42544e47476f6c644f7261636c653a20666565646572206e6f7420617574686f6044820152641c9a5e995960da1b6064820152608401610576565b6001600160a01b038116600081815260026020526040808220805460ff19169055517f136a7f3bb21600ee4b3762da10d05876225f1b505cf9edec351d85d1804179a99190a250565b3360009081526002602052604090205460ff1680610ddb57506000546001600160a01b031633145b610df75760405162461bcd60e51b81526004016105769061194c565b610dff6111ac565b60008581526008602052604090205460ff1615610e6d5760405162461bcd60e51b815260206004820152602660248201527f42544e47476f6c644f7261636c653a207265717565737420616c72656164792060448201526565786973747360d01b6064820152608401610576565b6000858152600860205260408120805460ff19166001179055610e928585858561146b565b600087815260096020908152604091829020805460ff191684151590811790915582518a8152918201529192507fa289beb80c68c0f30d87dd708a039781dd73018ea8370cd36dbd9cc5ebe9fb74910160405180910390a1505050505050565b600080805b600754811015610f5e57600360078281548110610f1657610f166119d4565b90600052602060002001604051610f2d91906119ea565b90815260200160405180910390206001015482610f4a9190611a60565b915080610f5681611a73565b915050610ef7565b50919050565b6005546000906201518090610f799042611a8c565b1115610fd25760405162461bcd60e51b815260206004820152602260248201527f42544e47476f6c644f7261636c653a20676f6c6420707269636520746f6f206f6044820152611b1960f21b6064820152608401610576565b5060045490565b3360009081526002602052604090205460ff168061100157506000546001600160a01b031633145b61101d5760405162461bcd60e51b81526004016105769061194c565b6110256111ac565b80600081116110765760405162461bcd60e51b815260206004820152601d60248201527f42544e47476f6c644f7261636c653a20696e76616c69642070726963650000006044820152606401610576565b6110826008600a611b83565b61108f90620186a061190d565b81106110dd5760405162461bcd60e51b815260206004820152601e60248201527f42544e47476f6c644f7261636c653a20707269636520746f6f206869676800006044820152606401610576565b6110e56111d7565b60048054604080516060808201835286825242602080840182905233938501849052958890556005819055600680546001600160a01b03191690931790925582518481529485018790529184015290917f335642da7e1798d4ee939606b2f4f78284d0a4694deca6a8192cc93d976eb9b3910160405180910390a15061116a60018055565b5050565b611176611356565b6001600160a01b0381166111a057604051631e4fbdf760e01b815260006004820152602401610576565b6111a9816113d8565b50565b600054600160a01b900460ff1615610a0e5760405163d93c066560e01b815260040160405180910390fd5b6002600154036111fa57604051633ee5aeb560e01b815260040160405180910390fd5b6002600155565b6003826040516112119190611b8f565b9081526040519081900360200190206003015460ff600160a01b909104166112af57600780546001810182556000919091527fa66cc928b5edb82af9bd49922954155ab7b0942694bea4ce44661d9a8736c6880161126f8382611bfa565b5060016003836040516112829190611b8f565b9081526040519081900360200190206003018054911515600160a01b0260ff60a01b199092169190911790555b6040805160a0810182528381526020810183905242818301523360608201526001608082015290516003906112e5908590611b8f565b908152604051908190036020019020815181906113029082611bfa565b5060208201516001820155604082015160028201556060820151600390910180546080909301511515600160a01b026001600160a81b03199093166001600160a01b03909216919091179190911790555050565b6000546001600160a01b03163314610a0e5760405163118cdaa760e01b8152336004820152602401610576565b61138b61154c565b6000805460ff60a01b191690557f5db9ee0a495bf2e6ff9c91a7834c1ba4fdd244a5e8aa4e537bd38aeae4b073aa335b6040516001600160a01b03909116815260200160405180910390a1565b600080546001600160a01b038381166001600160a01b0319831681178455604051919092169283917f8be0079c531659141344cd1fd0a4f28419497f9722a3daafe3b4186f6b6457e09190a35050565b6114306111ac565b6000805460ff60a01b1916600160a01b1790557f62e78cea01bee320cd4e420270b5ea74000d11b0c9f74754ebdbfc544b05a2586113bb3390565b60008360000361147d57506000611544565b600554620151809061148f9042611a8c565b111561149d57506000611544565b8460ff16600003611540576000805b600754811015611513576003600782815481106114cb576114cb6119d4565b906000526020600020016040516114e291906119ea565b908152602001604051809103902060010154826114ff9190611a60565b91508061150b81611a73565b9150506114ac565b506000611528670de0b6b3a76400008761192a565b90508181111561153d57600092505050611544565b50505b5060015b949350505050565b600054600160a01b900460ff16610a0e57604051638dfc202b60e01b815260040160405180910390fd5b60008083601f84011261158857600080fd5b50813567ffffffffffffffff8111156115a057600080fd5b6020830191508360208285010111156115b857600080fd5b9250929050565b6000806000604084860312156115d457600080fd5b833567ffffffffffffffff8111156115eb57600080fd5b6115f786828701611576565b909790965060209590950135949350505050565b60006020828403121561161d57600080fd5b5035919050565b60006020828403121561163657600080fd5b81356001600160a01b038116811461164d57600080fd5b9392505050565b60005b8381101561166f578181015183820152602001611657565b50506000910152565b60008151808452611690816020860160208601611654565b601f01601f19169290920160200192915050565b60208152600061164d6020830184611678565b634e487b7160e01b600052604160045260246000fd5b6000602082840312156116df57600080fd5b813567ffffffffffffffff808211156116f757600080fd5b818401915084601f83011261170b57600080fd5b81358181111561171d5761171d6116b7565b604051601f8201601f19908116603f01168101908382118183101715611745576117456116b7565b8160405282815287602084870101111561175e57600080fd5b826020860160208301376000928101602001929092525095945050505050565b60a08152600061179160a0830188611678565b60208301969096525060408101939093526001600160a01b039190911660608301521515608090910152919050565b600080602083850312156117d357600080fd5b823567ffffffffffffffff8111156117ea57600080fd5b6117f685828601611576565b90969095509350505050565b60008060008060006080868803121561181a57600080fd5b85359450602086013560ff8116811461183257600080fd5b935060408601359250606086013567ffffffffffffffff81111561185557600080fd5b61186188828901611576565b969995985093965092949392505050565b8183823760009101908152919050565b600181811c9082168061189657607f821691505b602082108103610f5e57634e487b7160e01b600052602260045260246000fd5b60208082526021908201527f42544e47476f6c644f7261636c653a20636f756e747279206e6f7420666f756e6040820152601960fa1b606082015260800190565b634e487b7160e01b600052601160045260246000fd5b8082028115828204841417611924576119246118f7565b92915050565b60008261194757634e487b7160e01b600052601260045260246000fd5b500490565b6020808252602f908201527f42544e47476f6c644f7261636c653a2063616c6c6572206973206e6f7420617560408201526e3a3437b934bd32b2103332b2b232b960891b606082015260800190565b604081528260408201528284606083013760006060848301015260006060601f19601f8601168301019050826020830152949350505050565b634e487b7160e01b600052603260045260246000fd5b60008083546119f881611882565b60018281168015611a105760018114611a2557611a54565b60ff1984168752821515830287019450611a54565b8760005260208060002060005b85811015611a4b5781548a820152908401908201611a32565b50505082870194505b50929695505050505050565b80820180821115611924576119246118f7565b600060018201611a8557611a856118f7565b5060010190565b81810381811115611924576119246118f7565b600181815b80851115611ada578160001904821115611ac057611ac06118f7565b80851615611acd57918102915b93841c9390800290611aa4565b509250929050565b600082611af157506001611924565b81611afe57506000611924565b8160018114611b145760028114611b1e57611b3a565b6001915050611924565b60ff841115611b2f57611b2f6118f7565b50506001821b611924565b5060208310610133831016604e8410600b8410161715611b5d575081810a611924565b611b678383611a9f565b8060001904821115611b7b57611b7b6118f7565b029392505050565b600061164d8383611ae2565b60008251611ba1818460208701611654565b9190910192915050565b601f821115611bf557600081815260208120601f850160051c81016020861015611bd25750805b601f850160051c820191505b81811015611bf157828155600101611bde565b5050505b505050565b815167ffffffffffffffff811115611c1457611c146116b7565b611c2881611c228454611882565b84611bab565b602080601f831160018114611c5d5760008415611c455750858301515b600019600386901b1c1916600185901b178555611bf1565b600085815260208120601f198616915b82811015611c8c57888601518255948401946001909101908401611c6d565b5085821015611caa5787850151600019600388901b60f8161c191681555b5050505050600190811b0190555056fea26469706673582212207f0ee31cdbeca934d5b7d35964318245784321de7f52c107cca4b85ded8eabbd64736f6c63430008140033",
  "linkReferences": {},
  "deployedLinkReferences": {}
}