{
  "_format": "hh-sol-artifact-1",
  "contractName": "BTNGGoldDeployment",
  "sourceName": "contracts/BTNGGoldDeployment.sol",
  "abi": [
    {
      "inputs": [],
      "stateMutability": "nonpayable",
      "type": "constructor"
    },
    {
      "anonymous": false,
      "inputs": [
        {
          "indexed": true,
          "internalType": "address",
          "name": "token",
          "type": "address"
        },
        {
          "indexed": true,
          "internalType": "address",
          "name": "custody",
          "type": "address"
        },
        {
          "indexed": true,
          "internalType": "address",
          "name": "oracle",
          "type": "address"
        },
        {
          "indexed": false,
          "internalType": "address",
          "name": "owner",
          "type": "address"
        }
      ],
      "name": "SystemDeployed",
      "type": "event"
    },
    {
      "inputs": [],
      "name": "custody",
      "outputs": [
        {
          "internalType": "contract BTNGCustody",
          "name": "",
          "type": "address"
        }
      ],
      "stateMutability": "view",
      "type": "function"
    },
    {
      "inputs": [],
      "name": "custodyAddress",
      "outputs": [
        {
          "internalType": "address",
          "name": "",
          "type": "address"
        }
      ],
      "stateMutability": "view",
      "type": "function"
    },
    {
      "inputs": [],
      "name": "getContractAddresses",
      "outputs": [
        {
          "internalType": "address",
          "name": "token",
          "type": "address"
        },
        {
          "internalType": "address",
          "name": "custody_",
          "type": "address"
        },
        {
          "internalType": "address",
          "name": "oracle_",
          "type": "address"
        }
      ],
      "stateMutability": "view",
      "type": "function"
    },
    {
      "inputs": [],
      "name": "goldToken",
      "outputs": [
        {
          "internalType": "contract BTNGGoldToken",
          "name": "",
          "type": "address"
        }
      ],
      "stateMutability": "view",
      "type": "function"
    },
    {
      "inputs": [],
      "name": "oracle",
      "outputs": [
        {
          "internalType": "contract BTNGGoldOracle",
          "name": "",
          "type": "address"
        }
      ],
      "stateMutability": "view",
      "type": "function"
    },
    {
      "inputs": [],
      "name": "oracleAddress",
      "outputs": [
        {
          "internalType": "address",
          "name": "",
          "type": "address"
        }
      ],
      "stateMutability": "view",
      "type": "function"
    },
    {
      "inputs": [],
      "name": "owner",
      "outputs": [
        {
          "internalType": "address",
          "name": "",
          "type": "address"
        }
      ],
      "stateMutability": "view",
      "type": "function"
    },
    {
      "inputs": [],
      "name": "tokenAddress",
      "outputs": [
        {
          "internalType": "address",
          "name": "",
          "type": "address"
        }
      ],
      "stateMutability": "view",
      "type": "function"
    }
  ],
  "bytecode": "0x608060405234801561001057600080fd5b50600380546001600160a01b0319163317905560405161002f90610392565b604051809103906000f08015801561004b573d6000803e3d6000fd5b50600280546001600160a01b03929092166001600160a01b03199283168117909155600480549092168117909155604051600091906100899061039f565b6001600160a01b03928316815291166020820152604001604051809103906000f0801580156100bc573d6000803e3d6000fd5b50600180546001600160a01b03929092166001600160a01b031992831681179091556005805490921681179091556040516100f6906103ac565b6001600160a01b039091168152602001604051809103906000f080158015610122573d6000803e3d6000fd5b50600080546001600160a01b039283166001600160a01b031991821681179092556006805490911682179055600454604051919216906101619061039f565b6001600160a01b03928316815291166020820152604001604051809103906000f080158015610194573d6000803e3d6000fd5b50600180546001600160a01b039283166001600160a01b03199182168117909255600580549091168217905560005460405163038edeab60e51b81526004810192909252909116906371dbd56090602401600060405180830381600087803b1580156101ff57600080fd5b505af1158015610213573d6000803e3d6000fd5b505060025460035460405163f2fde38b60e01b81526001600160a01b0391821660048201529116925063f2fde38b9150602401600060405180830381600087803b15801561026057600080fd5b505af1158015610274573d6000803e3d6000fd5b505060015460035460405163f2fde38b60e01b81526001600160a01b0391821660048201529116925063f2fde38b9150602401600060405180830381600087803b1580156102c157600080fd5b505af11580156102d5573d6000803e3d6000fd5b505060005460035460405163f2fde38b60e01b81526001600160a01b0391821660048201529116925063f2fde38b9150602401600060405180830381600087803b15801561032257600080fd5b505af1158015610336573d6000803e3d6000fd5b50506004546005546006546003546040516001600160a01b0391821681529381169550918216935016907fdd055ee7760ecf10aa18e140081a15b676bee2601a49640b6d219dec2f84c9ef9060200160405180910390a46103b9565b61224d8061056083390190565b612781806127ad83390190565b611a1d80614f2e83390190565b610198806103c86000396000f3fe608060405234801561001057600080fd5b50600436106100885760003560e01c8063953874d21161005b578063953874d2146100f65780639d76ea5814610129578063a89ae4ba1461013c578063dda79b751461014f57600080fd5b80637dc0d1d01461008d578063875601eb146100bd5780638da5cb5b146100d057806394002b57146100e3575b600080fd5b6002546100a0906001600160a01b031681565b6040516001600160a01b0390911681526020015b60405180910390f35b6005546100a0906001600160a01b031681565b6003546100a0906001600160a01b031681565b6000546100a0906001600160a01b031681565b600654600554600454604080516001600160a01b03948516815292841660208401529216918101919091526060016100b4565b6006546100a0906001600160a01b031681565b6004546100a0906001600160a01b031681565b6001546100a0906001600160a01b03168156fea26469706673582212205fd6b2728a77d6c228cda75d509be62d644fa5ef021dbb9a8bacddac9558f9f364736f6c6343000814003360806040523480156200001157600080fd5b5033806200003957604051631e4fbdf760e01b81526000600482015260240160405180910390fd5b620000448162000074565b506001808055336000908152600260205260409020805460ff191690911790556200006e620000c4565b6200054d565b600080546001600160a01b038381166001600160a01b0319831681178455604051919092169283917f8be0079c531659141344cd1fd0a4f28419497f9722a3daafe3b4186f6b6457e09190a35050565b604080518082019091526002815261222d60f11b6020820152620000ed90630a58ed006200024b565b604080518082019091526002815261454760f01b602082015262000116906304ba05a06200024b565b6040805180820190915260028152614c5960f01b60208201526200013f906306f32cc06200024b565b6040805180820190915260028152615a4160f01b60208201526200016890630777ed206200024b565b60408051808201909152600281526108e960f31b602082015262000190906284c0606200024b565b6040805180820190915260028152614e4760f01b6020820152620001b99063014689c06200024b565b6040805180820190915260028152614d4160f01b6020820152620001e29063015138206200024b565b6040805180820190915260028152612a2760f11b60208201526200020a906267c2806200024b565b60408051606081018252640165a0bc0080825242602083018190523392909301829052600455600591909155600680546001600160a01b0319169091179055565b6003826040516200025d9190620003ab565b9081526040519081900360200190206003015460ff600160a01b909104166200030057600780546001810182556000919091527fa66cc928b5edb82af9bd49922954155ab7b0942694bea4ce44661d9a8736c68801620002be838262000481565b506001600383604051620002d39190620003ab565b9081526040519081900360200190206003018054911515600160a01b0260ff60a01b199092169190911790555b6040805160a08101825283815260208101839052428183015233606082015260016080820152905160039062000338908590620003ab565b9081526040519081900360200190208151819062000357908262000481565b5060208201516001820155604082015160028201556060820151600390910180546080909301511515600160a01b026001600160a81b03199093166001600160a01b03909216919091179190911790555050565b6000825160005b81811015620003ce5760208186018101518583015201620003b2565b506000920191825250919050565b634e487b7160e01b600052604160045260246000fd5b600181811c908216806200040757607f821691505b6020821081036200042857634e487b7160e01b600052602260045260246000fd5b50919050565b601f8211156200047c57600081815260208120601f850160051c81016020861015620004575750805b601f850160051c820191505b81811015620004785782815560010162000463565b5050505b505050565b81516001600160401b038111156200049d576200049d620003dc565b620004b581620004ae8454620003f2565b846200042e565b602080601f831160018114620004ed5760008415620004d45750858301515b600019600386901b1c1916600185901b17855562000478565b600085815260208120601f198616915b828110156200051e57888601518255948401946001909101908401620004fd565b50858210156200053d5787850151600019600388901b60f8161c191681555b5050505050600190811b01905550565b611cf0806200055d6000396000f3fe608060405234801561001057600080fd5b50600436106101c45760003560e01c80637e5d70a0116100f9578063921ec9e711610097578063da6bae1011610071578063da6bae1014610424578063eebc56f11461042c578063f1a640f81461043f578063f2fde38b1461044757600080fd5b8063921ec9e7146103ef5780639d7f7e86146103f7578063d5ed6e951461040157600080fd5b80638cbb7cf3116100d35780638cbb7cf31461039b5780638da5cb5b146103ae5780638e1207dc146103c95780638e95b7d8146103dc57600080fd5b80637e5d70a0146103445780638456cb59146103675780638b610d291461036f57600080fd5b80633ecafe55116101665780635c975abb116101405780635c975abb146102f0578063657be87614610302578063715018a61461033257806378ec537f1461033a57600080fd5b80633ecafe55146102a45780633f4ba83a146102c4578063509dddd2146102cc57600080fd5b8063155fb6ae116101a2578063155fb6ae1461023757806316b54dba1461024a57806318e34f411461028957806336beb6971461029157600080fd5b8063024ac97a146101c95780630f3908c8146101ef57806312ace01614610222575b600080fd5b6101dc6101d73660046115bf565b61045a565b6040519081526020015b60405180910390f35b6102126101fd36600461160b565b60086020526000908152604090205460ff1681565b60405190151581526020016101e6565b6102356102303660046115bf565b610613565b005b610235610245366004611624565b610751565b6004546005546006546102659291906001600160a01b031683565b6040805193845260208401929092526001600160a01b0316908201526060016101e6565b6007546101dc565b61021261029f36600461160b565b610873565b6102b76102b236600461160b565b6108f1565b6040516101e691906116a4565b6102356109fe565b6102df6102da3660046116cd565b610a10565b6040516101e695949392919061177e565b600054600160a01b900460ff16610212565b6103156103103660046117c0565b610ae2565b6040805193845260208401929092521515908201526060016101e6565b610235610c1e565b6101dc62093a8081565b61021261035236600461160b565b60096020526000908152604090205460ff1681565b610235610c30565b61021261037d366004611624565b6001600160a01b031660009081526002602052604090205460ff1690565b6102b76103a936600461160b565b610c40565b6000546040516001600160a01b0390911681526020016101e6565b6102356103d7366004611624565b610cec565b6102356103ea366004611802565b610db3565b6101dc610ef2565b6101dc6201518081565b61021261040f366004611624565b60026020526000908152604090205460ff1681565b6101dc610f64565b61023561043a36600461160b565b610fd9565b6101dc600881565b610235610455366004611624565b61116e565b6000806003858560405161046f929190611872565b90815260200160405180910390206040518060a001604052908160008201805461049890611882565b80601f01602080910402602001604051908101604052809291908181526020018280546104c490611882565b80156105115780601f106104e657610100808354040283529160200191610511565b820191906000526020600020905b8154815290600101906020018083116104f457829003601f168201915b505050918352505060018201546020820152600282015460408201526003909101546001600160a01b0381166060830152600160a01b900460ff16151560809182015281015190915061057f5760405162461bcd60e51b8152600401610576906118b6565b60405180910390fd5b600083116105da5760405162461bcd60e51b815260206004820152602260248201527f42544e47476f6c644f7261636c653a20696e76616c696420706f70756c61746960448201526137b760f11b6064820152608401610576565b60008160200151620f42406105ef919061190d565b9050836105ff82620f424061190d565b610609919061192a565b9695505050505050565b3360009081526002602052604090205460ff168061063b57506000546001600160a01b031633145b6106575760405162461bcd60e51b81526004016105769061194c565b61065f6111ac565b8282600281146106bd5760405162461bcd60e51b8152602060048201526024808201527f42544e47476f6c644f7261636c653a20696e76616c696420636f756e74727920604482015263636f646560e01b6064820152608401610576565b6106c56111d7565b61070685858080601f016020809104026020016040519081016040528093929190818152602001838380828437600092019190915250879250611201915050565b7f5e2cd780624c186d7147aafeefc1d4d928298d0e92d06fe8a51b58453ca23c3b8585856040516107399392919061199b565b60405180910390a161074a60018055565b5050505050565b610759611356565b6001600160a01b0381166107be5760405162461bcd60e51b815260206004820152602660248201527f42544e47476f6c644f7261636c653a20696e76616c696420666565646572206160448201526564647265737360d01b6064820152608401610576565b6001600160a01b03811660009081526002602052604090205460ff16156108275760405162461bcd60e51b815260206004820152601e60248201527f42544e47476f6c644f7261636c653a20616c72656164792066656564657200006044820152606401610576565b6001600160a01b038116600081815260026020526040808220805460ff19166001179055517f8c81ae2eb19dd8dfc5503227f8f66bcddd4b7e1e98705dab87a19882139e3efc9190a250565b60008181526008602052604081205460ff166108db5760405162461bcd60e51b815260206004820152602160248201527f42544e47476f6c644f7261636c653a2072657175657374206e6f7420666f756e6044820152601960fa1b6064820152608401610576565b5060009081526009602052604090205460ff1690565b60075460609082106109515760405162461bcd60e51b815260206004820152602360248201527f42544e47476f6c644f7261636c653a20696e646578206f7574206f6620626f756044820152626e647360e81b6064820152608401610576565b60078281548110610964576109646119d4565b90600052602060002001805461097990611882565b80601f01602080910402602001604051908101604052809291908181526020018280546109a590611882565b80156109f25780601f106109c7576101008083540402835291602001916109f2565b820191906000526020600020905b8154815290600101906020018083116109d557829003601f168201915b50505050509050919050565b610a06611356565b610a0e611383565b565b8051602081830181018051600382529282019190930120915280548190610a3690611882565b80601f0160208091040260200160405190810160405280929190818152602001828054610a6290611882565b8015610aaf5780601f10610a8457610100808354040283529160200191610aaf565b820191906000526020600020905b815481529060010190602001808311610a9257829003601f168201915b5050505060018301546002840154600390940154929390929091506001600160a01b03811690600160a01b900460ff1685565b60008060008060038686604051610afa929190611872565b90815260200160405180910390206040518060a0016040529081600082018054610b2390611882565b80601f0160208091040260200160405190810160405280929190818152602001828054610b4f90611882565b8015610b9c5780601f10610b7157610100808354040283529160200191610b9c565b820191906000526020600020905b815481529060010190602001808311610b7f57829003601f168201915b505050918352505060018201546020820152600282015460408201526003909101546001600160a01b0381166060830152600160a01b900460ff161515608091820152810151909150610c015760405162461bcd60e51b8152600401610576906118b6565b806020015181604001518260800151935093509350509250925092565b610c26611356565b610a0e60006113d8565b610c38611356565b610a0e611428565b60078181548110610c5057600080fd5b906000526020600020016000915090508054610c6b90611882565b80601f0160208091040260200160405190810160405280929190818152602001828054610c9790611882565b8015610ce45780601f10610cb957610100808354040283529160200191610ce4565b820191906000526020600020905b815481529060010190602001808311610cc757829003601f168201915b505050505081565b610cf4611356565b6001600160a01b03811660009081526002602052604090205460ff16610d6a5760405162461bcd60e51b815260206004820152602560248201527f42544e47476f6c644f7261636c653a20666565646572206e6f7420617574686f6044820152641c9a5e995960da1b6064820152608401610576565b6001600160a01b038116600081815260026020526040808220805460ff19169055517f136a7f3bb21600ee4b3762da10d05876225f1b505cf9edec351d85d1804179a99190a250565b3360009081526002602052604090205460ff1680610ddb57506000546001600160a01b031633145b610df75760405162461bcd60e51b81526004016105769061194c565b610dff6111ac565b60008581526008602052604090205460ff1615610e6d5760405162461bcd60e51b815260206004820152602660248201527f42544e47476f6c644f7261636c653a207265717565737420616c72656164792060448201526565786973747360d01b6064820152608401610576565b6000858152600860205260408120805460ff19166001179055610e928585858561146b565b600087815260096020908152604091829020805460ff191684151590811790915582518a8152918201529192507fa289beb80c68c0f30d87dd708a039781dd73018ea8370cd36dbd9cc5ebe9fb74910160405180910390a1505050505050565b600080805b600754811015610f5e57600360078281548110610f1657610f166119d4565b90600052602060002001604051610f2d91906119ea565b90815260200160405180910390206001015482610f4a9190611a60565b915080610f5681611a73565b915050610ef7565b50919050565b6005546000906201518090610f799042611a8c565b1115610fd25760405162461bcd60e51b815260206004820152602260248201527f42544e47476f6c644f7261636c653a20676f6c6420707269636520746f6f206f6044820152611b1960f21b6064820152608401610576565b5060045490565b3360009081526002602052604090205460ff168061100157506000546001600160a01b031633145b61101d5760405162461bcd60e51b81526004016105769061194c565b6110256111ac565b80600081116110765760405162461bcd60e51b815260206004820152601d60248201527f42544e47476f6c644f7261636c653a20696e76616c69642070726963650000006044820152606401610576565b6110826008600a611b83565b61108f90620186a061190d565b81106110dd5760405162461bcd60e51b815260206004820152601e60248201527f42544e47476f6c644f7261636c653a20707269636520746f6f206869676800006044820152606401610576565b6110e56111d7565b60048054604080516060808201835286825242602080840182905233938501849052958890556005819055600680546001600160a01b03191690931790925582518481529485018790529184015290917f335642da7e1798d4ee939606b2f4f78284d0a4694deca6a8192cc93d976eb9b3910160405180910390a15061116a60018055565b5050565b611176611356565b6001600160a01b0381166111a057604051631e4fbdf760e01b815260006004820152602401610576565b6111a9816113d8565b50565b600054600160a01b900460ff1615610a0e5760405163d93c066560e01b815260040160405180910390fd5b6002600154036111fa57604051633ee5aeb560e01b815260040160405180910390fd5b6002600155565b6003826040516112119190611b8f565b9081526040519081900360200190206003015460ff600160a01b909104166112af57600780546001810182556000919091527fa66cc928b5edb82af9bd49922954155ab7b0942694bea4ce44661d9a8736c6880161126f8382611bfa565b5060016003836040516112829190611b8f565b9081526040519081900360200190206003018054911515600160a01b0260ff60a01b199092169190911790555b6040805160a0810182528381526020810183905242818301523360608201526001608082015290516003906112e5908590611b8f565b908152604051908190036020019020815181906113029082611bfa565b5060208201516001820155604082015160028201556060820151600390910180546080909301511515600160a01b026001600160a81b03199093166001600160a01b03909216919091179190911790555050565b6000546001600160a01b03163314610a0e5760405163118cdaa760e01b8152336004820152602401610576565b61138b61154c565b6000805460ff60a01b191690557f5db9ee0a495bf2e6ff9c91a7834c1ba4fdd244a5e8aa4e537bd38aeae4b073aa335b6040516001600160a01b03909116815260200160405180910390a1565b600080546001600160a01b038381166001600160a01b0319831681178455604051919092169283917f8be0079c531659141344cd1fd0a4f28419497f9722a3daafe3b4186f6b6457e09190a35050565b6114306111ac565b6000805460ff60a01b1916600160a01b1790557f62e78cea01bee320cd4e420270b5ea74000d11b0c9f74754ebdbfc544b05a2586113bb3390565b60008360000361147d57506000611544565b600554620151809061148f9042611a8c565b111561149d57506000611544565b8460ff16600003611540576000805b600754811015611513576003600782815481106114cb576114cb6119d4565b906000526020600020016040516114e291906119ea565b908152602001604051809103902060010154826114ff9190611a60565b91508061150b81611a73565b9150506114ac565b506000611528670de0b6b3a76400008761192a565b90508181111561153d57600092505050611544565b50505b5060015b949350505050565b600054600160a01b900460ff16610a0e57604051638dfc202b60e01b815260040160405180910390fd5b60008083601f84011261158857600080fd5b50813567ffffffffffffffff8111156115a057600080fd5b6020830191508360208285010111156115b857600080fd5b9250929050565b6000806000604084860312156115d457600080fd5b833567ffffffffffffffff8111156115eb57600080fd5b6115f786828701611576565b909790965060209590950135949350505050565b60006020828403121561161d57600080fd5b5035919050565b60006020828403121561163657600080fd5b81356001600160a01b038116811461164d57600080fd5b9392505050565b60005b8381101561166f578181015183820152602001611657565b50506000910152565b60008151808452611690816020860160208601611654565b601f01601f19169290920160200192915050565b60208152600061164d6020830184611678565b634e487b7160e01b600052604160045260246000fd5b6000602082840312156116df57600080fd5b813567ffffffffffffffff808211156116f757600080fd5b818401915084601f83011261170b57600080fd5b81358181111561171d5761171d6116b7565b604051601f8201601f19908116603f01168101908382118183101715611745576117456116b7565b8160405282815287602084870101111561175e57600080fd5b826020860160208301376000928101602001929092525095945050505050565b60a08152600061179160a0830188611678565b60208301969096525060408101939093526001600160a01b039190911660608301521515608090910152919050565b600080602083850312156117d357600080fd5b823567ffffffffffffffff8111156117ea57600080fd5b6117f685828601611576565b90969095509350505050565b60008060008060006080868803121561181a57600080fd5b85359450602086013560ff8116811461183257600080fd5b935060408601359250606086013567ffffffffffffffff81111561185557600080fd5b61186188828901611576565b969995985093965092949392505050565b8183823760009101908152919050565b600181811c9082168061189657607f821691505b602082108103610f5e57634e487b7160e01b600052602260045260246000fd5b60208082526021908201527f42544e47476f6c644f7261636c653a20636f756e747279206e6f7420666f756e6040820152601960fa1b606082015260800190565b634e487b7160e01b600052601160045260246000fd5b8082028115828204841417611924576119246118f7565b92915050565b60008261194757634e487b7160e01b600052601260045260246000fd5b500490565b6020808252602f908201527f42544e47476f6c644f7261636c653a2063616c6c6572206973206e6f7420617560408201526e3a3437b934bd32b2103332b2b232b960891b606082015260800190565b604081528260408201528284606083013760006060848301015260006060601f19601f8601168301019050826020830152949350505050565b634e487b7160e01b600052603260045260246000fd5b60008083546119f881611882565b60018281168015611a105760018114611a2557611a54565b60ff1984168752821515830287019450611a54565b8760005260208060002060005b85811015611a4b5781548a820152908401908201611a32565b50505082870194505b50929695505050505050565b80820180821115611924576119246118f7565b600060018201611a8557611a856118f7565b5060010190565b81810381811115611924576119246118f7565b600181815b80851115611ada578160001904821115611ac057611ac06118f7565b80851615611acd57918102915b93841c9390800290611aa4565b509250929050565b600082611af157506001611924565b81611afe57506000611924565b8160018114611b145760028114611b1e57611b3a565b6001915050611924565b60ff841115611b2f57611b2f6118f7565b50506001821b611924565b5060208310610133831016604e8410600b8410161715611b5d575081810a611924565b611b678383611a9f565b8060001904821115611b7b57611b7b6118f7565b029392505050565b600061164d8383611ae2565b60008251611ba1818460208701611654565b9190910192915050565b601f821115611bf557600081815260208120601f850160051c81016020861015611bd25750805b601f850160051c820191505b81811015611bf157828155600101611bde565b5050505b505050565b815167ffffffffffffffff811115611c1457611c146116b7565b611c2881611c228454611882565b84611bab565b602080601f831160018114611c5d5760008415611c455750858301515b600019600386901b1c1916600185901b178555611bf1565b600085815260208120601f198616915b82811015611c8c57888601518255948401946001909101908401611c6d565b5085821015611caa5787850151600019600388901b60f8161c191681555b5050505050600190811b0190555056fea26469706673582212207f0ee31cdbeca934d5b7d35964318245784321de7f52c107cca4b85ded8eabbd64736f6c6343000814003360806040526103e86008553480156200001757600080fd5b5060405162002781380380620027818339810160408190526200003a91620001b0565b33806200006257604051631e4fbdf760e01b8152600060048201526024015b60405180910390fd5b6200006d8162000143565b50600180556001600160a01b038116620000d65760405162461bcd60e51b815260206004820152602360248201527f42544e47437573746f64793a20696e76616c6964206f7261636c65206164647260448201526265737360e81b606482015260840162000059565b6001600160a01b038216156200010257600280546001600160a01b0319166001600160a01b0384161790555b600380546001600160a01b0319166001600160a01b039290921691909117905550336000908152600660205260409020805460ff19166001179055620001e8565b600080546001600160a01b038381166001600160a01b0319831681178455604051919092169283917f8be0079c531659141344cd1fd0a4f28419497f9722a3daafe3b4186f6b6457e09190a35050565b80516001600160a01b0381168114620001ab57600080fd5b919050565b60008060408385031215620001c457600080fd5b620001cf8362000193565b9150620001df6020840162000193565b90509250929050565b61258980620001f86000396000f3fe608060405234801561001057600080fd5b50600436106101c45760003560e01c8063822f4dec116100f9578063c2fdcbd311610097578063d94d1ec511610071578063d94d1ec5146103ea578063eb0e5f9d1461040f578063f2fde38b14610422578063fb9ca1331461043557600080fd5b8063c2fdcbd31461038e578063cf2d2a99146103b4578063d43bfc4b146103c757600080fd5b80638da5cb5b116100d35780638da5cb5b1461033c5780638f52c13f1461034d57806394002b5714610372578063969ddf8a1461038557600080fd5b8063822f4dec146103185780638456cb591461032157806385d95b811461032957600080fd5b80633f4ba83a11610166578063675cd37311610140578063675cd373146102bf578063715018a6146102d257806373693934146102da5780637dc0d1d0146102ed57600080fd5b80633f4ba83a14610292578063474caf251461029a5780635c975abb146102ad57600080fd5b80631cb44dfc116101a25780631cb44dfc146102045780631e2cdd0d14610217578063242693d31461024457806335c80c8c1461025657600080fd5b806309f28d63146101c95780630f12a66a146101de57806317dfb538146101f1575b600080fd5b6101dc6101d7366004611d5a565b610448565b005b6101dc6101ec366004611df0565b6106fe565b6101dc6101ff366004611e12565b6107b7565b6101dc610212366004611df0565b610ad3565b61022a610225366004611e6e565b610b8f565b60405161023b959493929190611ef6565b60405180910390f35b6007545b60405190815260200161023b565b610282610264366004611df0565b6001600160a01b031660009081526006602052604090205460ff1690565b604051901515815260200161023b565b6101dc610d4d565b6101dc6102a8366004611f36565b610d5f565b600054600160a01b900460ff16610282565b6101dc6102cd366004611f82565b610ea8565b6101dc61115c565b6101dc6102e8366004611fdc565b61116e565b600354610300906001600160a01b031681565b6040516001600160a01b03909116815260200161023b565b61024860085481565b6101dc61117b565b6101dc610337366004611df0565b61118b565b6000546001600160a01b0316610300565b61036061035b366004611e6e565b6112ad565b60405161023b96959493929190611ff5565b600254610300906001600160a01b031681565b61024860075481565b6103a161039c366004612054565b611488565b60405161023b9796959493929190612105565b6101dc6103c2366004611e6e565b6115f4565b6102826103d5366004611df0565b60066020526000908152604090205460ff1681565b6103fd6103f8366004612054565b611706565b60405161023b96959493929190612165565b6101dc61041d366004611e6e565b611868565b6101dc610430366004611df0565b611a5b565b6101dc610443366004611df0565b611a99565b610450611b7d565b610458611ba8565b600085116104815760405162461bcd60e51b8152600401610478906121b9565b60405180910390fd5b826104d95760405162461bcd60e51b815260206004820152602260248201527f42544e47437573746f64793a20696e76616c696420726564656d7074696f6e20604482015261125160f21b6064820152608401610478565b806105345760405162461bcd60e51b815260206004820152602560248201527f42544e47437573746f64793a20696e76616c69642064656c6976657279206164604482015264647265737360d81b6064820152608401610478565b600584846040516105469291906121fd565b9081526040519081900360200190206004015460ff16156105795760405162461bcd60e51b81526004016104789061220d565b6040518060c00160405280336001600160a01b0316815260200186815260200185858080601f01602080910402602001604051908101604052809392919081815260200183838082843760009201829052509385525050426020808501919091526040808501939093528251601f8701829004820281018201909352858352606090930192869150859081908401838280828437600092019190915250505091525060405160059061062e90879087906121fd565b9081526040805160209281900383019020835181546001600160a01b0319166001600160a01b03909116178155918301516001830155820151600282019061067690826122de565b5060608201516003820155608082015160048201805460ff191691151591909117905560a082015160058201906106ad90826122de565b50506040513391507ff03c5dfd71c4a8fda8647ffb47c2271d7c5184fb6274e63e3454a29fd3e8fe66906106e6908890889088906123c7565b60405180910390a26106f760018055565b5050505050565b610706611bd2565b6001600160a01b03811660009081526006602052604090205460ff1661076e5760405162461bcd60e51b815260206004820152601c60248201527f42544e47437573746f64793a206e6f74206120637573746f6469616e000000006044820152606401610478565b6001600160a01b038116600081815260066020526040808220805460ff19169055517fe56fad1050f87a7ec9e65a20510a87b77226964eaa7ef7c25351f5c1782113119190a250565b3360009081526006602052604090205460ff166107e65760405162461bcd60e51b8152600401610478906123ea565b6107ee611b7d565b6107f6611ba8565b836108435760405162461bcd60e51b815260206004820152601d60248201527f42544e47437573746f64793a20696e76616c69642062617463682049440000006044820152606401610478565b6000831161089f5760405162461bcd60e51b815260206004820152602360248201527f42544e47437573746f64793a206772616d73206d75737420626520706f73697460448201526269766560e81b6064820152608401610478565b600485856040516108b19291906121fd565b9081526040519081900360200190206004015460ff16156109205760405162461bcd60e51b8152602060048201526024808201527f42544e47437573746f64793a20626174636820616c7265616479206465706f736044820152631a5d195960e21b6064820152608401610478565b6040518060e0016040528086868080601f01602080910402602001604051908101604052809392919081815260200183838082843760009201829052509385525050506020808301879052336040808501919091524260608501526001608085015260a08401929092528151601f860182900482028101820190925284825260c090920191859085908190840183828082843760009201919091525050509152506040516004906109d490889088906121fd565b908152604051908190036020019020815181906109f190826122de565b506020820151600182015560408201516002820180546001600160a01b039092166001600160a01b031990921691909117905560608201516003820155608082015160048201805460a085015115156101000261ff00199315159390931661ffff199091161791909117905560c08201516005820190610a7190826122de565b509050508260076000828254610a87919061244f565b90915550506040517fb7f1b8ff8a6a0bf5dc987d23b2c61d2727522e7b2aab316148eb897a8e8aa8d190610ac2908790879087903390612468565b60405180910390a16106f760018055565b610adb611bd2565b6001600160a01b038116610b3d5760405162461bcd60e51b815260206004820152602360248201527f42544e47437573746f64793a20696e76616c6964206f7261636c65206164647260448201526265737360e81b6064820152608401610478565b600380546001600160a01b038381166001600160a01b0319831681179093556040519116919082907f078c3b417dadf69374a59793b829c52001247130433427049317bde56607b1b790600090a35050565b6000806000806060600060058888604051610bab9291906121fd565b90815260408051918290036020908101832060c08401835280546001600160a01b031684526001810154918401919091526002810180549192840191610bf090612256565b80601f0160208091040260200160405190810160405280929190818152602001828054610c1c90612256565b8015610c695780601f10610c3e57610100808354040283529160200191610c69565b820191906000526020600020905b815481529060010190602001808311610c4c57829003601f168201915b505050918352505060038201546020820152600482015460ff1615156040820152600582018054606090920191610c9f90612256565b80601f0160208091040260200160405190810160405280929190818152602001828054610ccb90612256565b8015610d185780601f10610ced57610100808354040283529160200191610d18565b820191906000526020600020905b815481529060010190602001808311610cfb57829003601f168201915b505050919092525050815160208301516060840151608085015160a090950151929d919c509a50929850965090945050505050565b610d55611bd2565b610d5d611bff565b565b610d67611b7d565b610d6f611ba8565b60008311610d8f5760405162461bcd60e51b8152600401610478906121b9565b600060048383604051610da39291906121fd565b908152604051908190036020019020600481015490915060ff168015610dd357506004810154610100900460ff16155b610e1f5760405162461bcd60e51b815260206004820152601f60248201527f42544e47437573746f64793a20696e76616c696420676f6c64206261746368006044820152606401610478565b610e31670de0b6b3a76400008561249d565b81600101541015610e545760405162461bcd60e51b8152600401610478906124bf565b336001600160a01b03167fa2edbe09f5d0124cd7ed19736d687e9c048c42bcea6df3d6381fafb2e1ffbb01858585604051610e91939291906123c7565b60405180910390a250610ea360018055565b505050565b6003546001600160a01b03163314610f0c5760405162461bcd60e51b815260206004820152602160248201527f42544e47437573746f64793a2063616c6c6572206973206e6f74206f7261636c6044820152606560f81b6064820152608401610478565b610f14611b7d565b610f26670de0b6b3a76400008461249d565b806007541015610f885760405162461bcd60e51b815260206004820152602760248201527f42544e47437573746f64793a20696e73756666696369656e7420676f6c6420726044820152666573657276657360c81b6064820152608401610478565b60085481600754610f999190612506565b1015610ffc5760405162461bcd60e51b815260206004820152602c60248201527f42544e47437573746f64793a20776f756c642076696f6c617465206d696e696d60448201526b1d5b481d1a1c995cda1bdb1960a21b6064820152608401610478565b611004611ba8565b6000600484846040516110189291906121fd565b908152604051908190036020019020600481015490915060ff16801561104857506004810154610100900460ff16155b6110945760405162461bcd60e51b815260206004820152601f60248201527f42544e47437573746f64793a20696e76616c696420676f6c64206261746368006044820152606401610478565b60006110a8670de0b6b3a76400008761249d565b905080826001015410156110ce5760405162461bcd60e51b8152600401610478906124bf565b808260010160008282546110e29190612506565b909155505060025460405163cbbfbdc160e01b81526001600160a01b039091169063cbbfbdc19061111f908a908a908a908a908890600401612519565b600060405180830381600087803b15801561113957600080fd5b505af115801561114d573d6000803e3d6000fd5b5050505050506106f760018055565b611164611bd2565b610d5d6000611c54565b611176611bd2565b600855565b611183611bd2565b610d5d611ca4565b611193611bd2565b6001600160a01b0381166111f85760405162461bcd60e51b815260206004820152602660248201527f42544e47437573746f64793a20696e76616c696420637573746f6469616e206160448201526564647265737360d01b6064820152608401610478565b6001600160a01b03811660009081526006602052604090205460ff16156112615760405162461bcd60e51b815260206004820152601e60248201527f42544e47437573746f64793a20616c726561647920637573746f6469616e00006044820152606401610478565b6001600160a01b038116600081815260066020526040808220805460ff19166001179055517f73cf676213e5bee58b8715fc95e7b73fc9b9f988e18e7d07a58fe0d5054afae69190a250565b600080600080600060606000600489896040516112cb9291906121fd565b90815260200160405180910390206040518060e00160405290816000820180546112f490612256565b80601f016020809104026020016040519081016040528092919081815260200182805461132090612256565b801561136d5780601f106113425761010080835404028352916020019161136d565b820191906000526020600020905b81548152906001019060200180831161135057829003601f168201915b50505091835250506001820154602082015260028201546001600160a01b0316604082015260038201546060820152600482015460ff8082161515608084015261010090910416151560a082015260058201805460c0909201916113d090612256565b80601f01602080910402602001604051908101604052809291908181526020018280546113fc90612256565b80156114495780601f1061141e57610100808354040283529160200191611449565b820191906000526020600020905b81548152906001019060200180831161142c57829003601f168201915b50505091909252505050602081015160408201516060830151608084015160a085015160c090950151939e929d50909b50995091975095509350505050565b80516020818301810180516004825292820191909301209152805481906114ae90612256565b80601f01602080910402602001604051908101604052809291908181526020018280546114da90612256565b80156115275780601f106114fc57610100808354040283529160200191611527565b820191906000526020600020905b81548152906001019060200180831161150a57829003601f168201915b505050506001830154600284015460038501546004860154600587018054969794966001600160a01b039094169550919360ff808316946101009093041692909161157190612256565b80601f016020809104026020016040519081016040528092919081815260200182805461159d90612256565b80156115ea5780601f106115bf576101008083540402835291602001916115ea565b820191906000526020600020905b8154815290600101906020018083116115cd57829003601f168201915b5050505050905087565b3360009081526006602052604090205460ff166116235760405162461bcd60e51b8152600401610478906123ea565b61162b611b7d565b611633611ba8565b6000600583836040516116479291906121fd565b908152604051908190036020019020600481015490915060ff161561167e5760405162461bcd60e51b81526004016104789061220d565b6004808201805460ff191660019081179091556002549083015460405163b8428ca160e01b81526001600160a01b039092169263b8428ca1926116c6929188918891016123c7565b600060405180830381600087803b1580156116e057600080fd5b505af11580156116f4573d6000803e3d6000fd5b505050505061170260018055565b5050565b80516020818301810180516005825292820191909301209152805460018201546002830180546001600160a01b0390931693919261174390612256565b80601f016020809104026020016040519081016040528092919081815260200182805461176f90612256565b80156117bc5780601f10611791576101008083540402835291602001916117bc565b820191906000526020600020905b81548152906001019060200180831161179f57829003601f168201915b50505050600383015460048401546005850180549495929460ff9092169350906117e590612256565b80601f016020809104026020016040519081016040528092919081815260200182805461181190612256565b801561185e5780601f106118335761010080835404028352916020019161185e565b820191906000526020600020905b81548152906001019060200180831161184157829003601f168201915b5050505050905086565b3360009081526006602052604090205460ff166118975760405162461bcd60e51b8152600401610478906123ea565b61189f611b7d565b6118a7611ba8565b6000600483836040516118bb9291906121fd565b908152604051908190036020019020600481015490915060ff166119215760405162461bcd60e51b815260206004820181905260248201527f42544e47437573746f64793a206261746368206e6f74206465706f73697465646044820152606401610478565b6004810154610100900460ff16156119875760405162461bcd60e51b8152602060048201526024808201527f42544e47437573746f64793a20626174636820616c72656164792077697468646044820152633930bbb760e11b6064820152608401610478565b60028101546001600160a01b031633146119e35760405162461bcd60e51b815260206004820181905260248201527f42544e47437573746f64793a206e6f7420626174636820637573746f6469616e6044820152606401610478565b60048101805461ff001916610100179055600181015460078054600090611a0b908490612506565b909155505060018101546040517fe4d8a078ed3a6256ae824d0c73bd42ffeca35ebd56a9609ed09036a3be7f4b6f91611a4991869186913390612468565b60405180910390a15061170260018055565b611a63611bd2565b6001600160a01b038116611a8d57604051631e4fbdf760e01b815260006004820152602401610478565b611a9681611c54565b50565b611aa1611bd2565b6001600160a01b038116611b025760405162461bcd60e51b815260206004820152602260248201527f42544e47437573746f64793a20696e76616c696420746f6b656e206164647265604482015261737360f01b6064820152608401610478565b6002546001600160a01b031615611b5b5760405162461bcd60e51b815260206004820152601e60248201527f42544e47437573746f64793a20746f6b656e20616c72656164792073657400006044820152606401610478565b600280546001600160a01b0319166001600160a01b0392909216919091179055565b600054600160a01b900460ff1615610d5d5760405163d93c066560e01b815260040160405180910390fd5b600260015403611bcb57604051633ee5aeb560e01b815260040160405180910390fd5b6002600155565b6000546001600160a01b03163314610d5d5760405163118cdaa760e01b8152336004820152602401610478565b611c07611ce7565b6000805460ff60a01b191690557f5db9ee0a495bf2e6ff9c91a7834c1ba4fdd244a5e8aa4e537bd38aeae4b073aa335b6040516001600160a01b03909116815260200160405180910390a1565b600080546001600160a01b038381166001600160a01b0319831681178455604051919092169283917f8be0079c531659141344cd1fd0a4f28419497f9722a3daafe3b4186f6b6457e09190a35050565b611cac611b7d565b6000805460ff60a01b1916600160a01b1790557f62e78cea01bee320cd4e420270b5ea74000d11b0c9f74754ebdbfc544b05a258611c373390565b600054600160a01b900460ff16610d5d57604051638dfc202b60e01b815260040160405180910390fd5b60008083601f840112611d2357600080fd5b50813567ffffffffffffffff811115611d3b57600080fd5b602083019150836020828501011115611d5357600080fd5b9250929050565b600080600080600060608688031215611d7257600080fd5b85359450602086013567ffffffffffffffff80821115611d9157600080fd5b611d9d89838a01611d11565b90965094506040880135915080821115611db657600080fd5b50611dc388828901611d11565b969995985093965092949392505050565b80356001600160a01b0381168114611deb57600080fd5b919050565b600060208284031215611e0257600080fd5b611e0b82611dd4565b9392505050565b600080600080600060608688031215611e2a57600080fd5b853567ffffffffffffffff80821115611e4257600080fd5b611e4e89838a01611d11565b9097509550602088013594506040880135915080821115611db657600080fd5b60008060208385031215611e8157600080fd5b823567ffffffffffffffff811115611e9857600080fd5b611ea485828601611d11565b90969095509350505050565b6000815180845260005b81811015611ed657602081850181015186830182015201611eba565b506000602082860101526020601f19601f83011685010191505092915050565b60018060a01b0386168152846020820152836040820152821515606082015260a060808201526000611f2b60a0830184611eb0565b979650505050505050565b600080600060408486031215611f4b57600080fd5b83359250602084013567ffffffffffffffff811115611f6957600080fd5b611f7586828701611d11565b9497909650939450505050565b60008060008060608587031215611f9857600080fd5b611fa185611dd4565b935060208501359250604085013567ffffffffffffffff811115611fc457600080fd5b611fd087828801611d11565b95989497509550505050565b600060208284031215611fee57600080fd5b5035919050565b86815260018060a01b03861660208201528460408201528315156060820152821515608082015260c060a0820152600061203260c0830184611eb0565b98975050505050505050565b634e487b7160e01b600052604160045260246000fd5b60006020828403121561206657600080fd5b813567ffffffffffffffff8082111561207e57600080fd5b818401915084601f83011261209257600080fd5b8135818111156120a4576120a461203e565b604051601f8201601f19908116603f011681019083821181831017156120cc576120cc61203e565b816040528281528760208487010111156120e557600080fd5b826020860160208301376000928101602001929092525095945050505050565b60e08152600061211860e083018a611eb0565b602083018990526001600160a01b038816604084015260608301879052851515608084015284151560a084015282810360c08401526121578185611eb0565b9a9950505050505050505050565b60018060a01b038716815285602082015260c06040820152600061218c60c0830187611eb0565b856060840152841515608084015282810360a08401526121ac8185611eb0565b9998505050505050505050565b60208082526024908201527f42544e47437573746f64793a20616d6f756e74206d75737420626520706f73696040820152637469766560e01b606082015260800190565b8183823760009101908152919050565b60208082526029908201527f42544e47437573746f64793a20726564656d7074696f6e20616c7265616479206040820152681c1c9bd8d95cdcd95960ba1b606082015260800190565b600181811c9082168061226a57607f821691505b60208210810361228a57634e487b7160e01b600052602260045260246000fd5b50919050565b601f821115610ea357600081815260208120601f850160051c810160208610156122b75750805b601f850160051c820191505b818110156122d6578281556001016122c3565b505050505050565b815167ffffffffffffffff8111156122f8576122f861203e565b61230c816123068454612256565b84612290565b602080601f83116001811461234157600084156123295750858301515b600019600386901b1c1916600185901b1785556122d6565b600085815260208120601f198616915b8281101561237057888601518255948401946001909101908401612351565b508582101561238e5787850151600019600388901b60f8161c191681555b5050505050600190811b01905550565b81835281816020850137506000828201602090810191909152601f909101601f19169091010190565b8381526040602082015260006123e160408301848661239e565b95945050505050565b6020808252602f908201527f42544e47437573746f64793a2063616c6c6572206973206e6f7420617574686f60408201526e3934bd32b21031bab9ba37b234b0b760891b606082015260800190565b634e487b7160e01b600052601160045260246000fd5b8082018082111561246257612462612439565b92915050565b60608152600061247c60608301868861239e565b6020830194909452506001600160a01b039190911660409091015292915050565b6000826124ba57634e487b7160e01b600052601260045260246000fd5b500490565b60208082526027908201527f42544e47437573746f64793a20696e73756666696369656e7420676f6c6420696040820152660dc40c4c2e8c6d60cb1b606082015260800190565b8181038181111561246257612462612439565b60018060a01b038616815284602082015260806040820152600061254160808301858761239e565b9050826060830152969550505050505056fea26469706673582212203848e10a96fda714809fac9581ee995c0d4ded7e6eb62b00ac0ae2fadf7ec3f564736f6c6343000814003360806040523480156200001157600080fd5b5060405162001a1d38038062001a1d833981016040819052620000349162000162565b336040518060400160405280600f81526020016e212a27239023b7b632102a37b5b2b760891b8152506040518060400160405280600481526020016342544e4760e01b81525081600390816200008b919062000239565b5060046200009a828262000239565b5050506001600160a01b038116620000cc57604051631e4fbdf760e01b81526000600482015260240160405180910390fd5b620000d78162000110565b5060016006556001600160a01b038116156200010957600780546001600160a01b0319166001600160a01b0383161790555b5062000305565b600580546001600160a01b038381166001600160a01b0319831681179093556040519116919082907f8be0079c531659141344cd1fd0a4f28419497f9722a3daafe3b4186f6b6457e090600090a35050565b6000602082840312156200017557600080fd5b81516001600160a01b03811681146200018d57600080fd5b9392505050565b634e487b7160e01b600052604160045260246000fd5b600181811c90821680620001bf57607f821691505b602082108103620001e057634e487b7160e01b600052602260045260246000fd5b50919050565b601f8211156200023457600081815260208120601f850160051c810160208610156200020f5750805b601f850160051c820191505b8181101562000230578281556001016200021b565b5050505b505050565b81516001600160401b0381111562000255576200025562000194565b6200026d81620002668454620001aa565b84620001e6565b602080601f831160018114620002a557600084156200028c5750858301515b600019600386901b1c1916600185901b17855562000230565b600085815260208120601f198616915b82811015620002d657888601518255948401946001909101908401620002b5565b5085821015620002f55787850151600019600388901b60f8161c191681555b5050505050600190811b01905550565b61170880620003156000396000f3fe608060405234801561001057600080fd5b50600436106101da5760003560e01c8063716aef1b116101045780639a88a756116100a2578063dd62ed3e11610071578063dd62ed3e146103f3578063e1b5655b1461042c578063eec4c5521461043f578063f2fde38b1461046d57600080fd5b80639a88a756146103b1578063a9059cbb146103ba578063b8428ca1146103cd578063cbbfbdc1146103e057600080fd5b80638456cb59116100de5780638456cb59146103745780638da5cb5b1461037c578063911b9bfc146103a157806395d89b41146103a957600080fd5b8063716aef1b1461032557806371dbd5601461034e57806379cc67901461036157600080fd5b806332cb6b0c1161017c5780635c975abb1161014b5780635c975abb146102c25780636d02423f146102d457806370a08231146102f4578063715018a61461031d57600080fd5b806332cb6b0c1461028a5780633f4ba83a1461029d57806342966c68146102a757806359150da3146102ba57600080fd5b806318160ddd116101b857806318160ddd1461024e57806323b872dd14610260578063242824c314610273578063313ce5671461027b57600080fd5b806306fdde03146101df578063095ea7b3146101fd5780630aa8df4b14610220575b600080fd5b6101e7610480565b6040516101f491906112b0565b60405180910390f35b61021061020b36600461131a565b610512565b60405190151581526020016101f4565b61021061022e36600461135a565b805160208183018101805160098252928201919093012091525460ff1681565b6002545b6040519081526020016101f4565b61021061026e36600461140b565b61052c565b610252600181565b604051601281526020016101f4565b6102526b01b24513071a43532d00000081565b6102a56105fd565b005b6102a56102b5366004611447565b61060f565b600854610252565b600554600160a01b900460ff16610210565b6102526102e2366004611460565b600b6020526000908152604090205481565b610252610302366004611460565b6001600160a01b031660009081526020819052604090205490565b6102a561061c565b610252610333366004611460565b6001600160a01b03166000908152600b602052604090205490565b6102a561035c366004611460565b61062e565b6102a561036f36600461131a565b6106ed565b6102a5610706565b6005546001600160a01b03165b6040516001600160a01b0390911681526020016101f4565b610210610716565b6101e761073d565b61025260085481565b6102106103c836600461131a565b61074c565b6102a56103db3660046114cb565b610800565b6102a56103ee366004611517565b610a26565b610252610401366004611579565b6001600160a01b03918216600090815260016020908152604080832093909416825291909152205490565b600754610389906001600160a01b031681565b61021061044d36600461135a565b8051602081830181018051600a8252928201919093012091525460ff1681565b6102a561047b366004611460565b610d57565b60606003805461048f906115ac565b80601f01602080910402602001604051908101604052809291908181526020018280546104bb906115ac565b80156105085780601f106104dd57610100808354040283529160200191610508565b820191906000526020600020905b8154815290600101906020018083116104eb57829003601f168201915b5050505050905090565b600033610520818585610d92565b60019150505b92915050565b6000610536610d9f565b600061054a670de0b6b3a7640000846115fc565b6001600160a01b0386166000908152600b602052604090205490915081111561058e5760405162461bcd60e51b81526004016105859061161e565b60405180910390fd5b6001600160a01b0385166000908152600b6020526040812080548392906105b6908490611666565b90915550506001600160a01b0384166000908152600b6020526040812080548392906105e3908490611679565b909155506105f49050858585610dca565b95945050505050565b610605610dee565b61060d610e1b565b565b6106193382610e70565b50565b610624610dee565b61060d6000610ea6565b610636610dee565b6001600160a01b03811661069b5760405162461bcd60e51b815260206004820152602660248201527f42544e47476f6c64546f6b656e3a20696e76616c696420637573746f6479206160448201526564647265737360d01b6064820152608401610585565b600780546001600160a01b038381166001600160a01b0319831681179093556040519116919082907f755e356008e46f7f9733fedde8b72fdbe111d6956c3166ed6960a130b7208dac90600090a35050565b6106f8823383610ef8565b6107028282610e70565b5050565b61070e610dee565b61060d610f77565b6000670de0b6b3a764000061072a60025490565b61073491906115fc565b60085414905090565b60606004805461048f906115ac565b6000610756610d9f565b600061076a670de0b6b3a7640000846115fc565b336000908152600b602052604090205490915081111561079c5760405162461bcd60e51b81526004016105859061161e565b336000908152600b6020526040812080548392906107bb908490611666565b90915550506001600160a01b0384166000908152600b6020526040812080548392906107e8908490611679565b909155506107f890508484610fba565b949350505050565b610808610d9f565b610810610fc8565b600a828260405161082292919061168c565b9081526040519081900360200190205460ff16156108965760405162461bcd60e51b815260206004820152602b60248201527f42544e47476f6c64546f6b656e3a20726564656d7074696f6e20616c7265616460448201526a1e481c1c9bd8d95cdcd95960aa1b6064820152608401610585565b336000908152602081905260409020548311156109015760405162461bcd60e51b815260206004820152602360248201527f42544e47476f6c64546f6b656e3a20696e73756666696369656e742062616c616044820152626e636560e81b6064820152608401610585565b610913670de0b6b3a7640000846115fc565b336000908152600b602052604090205410156109415760405162461bcd60e51b81526004016105859061161e565b6001600a838360405161095592919061168c565b908152604051908190036020019020805491151560ff199092169190911790556000610989670de0b6b3a7640000856115fc565b9050806008600082825461099d9190611666565b9091555050336000908152600b6020526040812080548392906109c1908490611666565b909155506109d190503385610e70565b336001600160a01b03167f87e5ad42c3dc976c4282f20db8f08e6de3ed90e3d6550d99b728198447032b67858585604051610a0e9392919061169c565b60405180910390a250610a216001600655565b505050565b6007546001600160a01b03163314610a965760405162461bcd60e51b815260206004820152602d60248201527f42544e47476f6c64546f6b656e3a2063616c6c6572206973206e6f742063757360448201526c1d1bd91e4818dbdb9d1c9858dd609a1b6064820152608401610585565b610a9e610d9f565b8360008111610afe5760405162461bcd60e51b815260206004820152602660248201527f42544e47476f6c64546f6b656e3a20616d6f756e74206d75737420626520706f60448201526573697469766560d01b6064820152608401610585565b600254610b17906b01b24513071a43532d000000611666565b811115610b705760405162461bcd60e51b815260206004820152602160248201527f42544e47476f6c64546f6b656e3a2065786365656473206d617820737570706c6044820152607960f81b6064820152608401610585565b610b78610fc8565b60098484604051610b8a92919061168c565b9081526040519081900360200190205460ff1615610bfe5760405162461bcd60e51b815260206004820152602b60248201527f42544e47476f6c64546f6b656e3a20676f6c6420626174636820616c7265616460448201526a1e481c1c9bd8d95cdcd95960aa1b6064820152608401610585565b610c10670de0b6b3a7640000866115fc565b8214610c785760405162461bcd60e51b815260206004820152603160248201527f42544e47476f6c64546f6b656e3a20676f6c64206772616d73206d757374206d604482015270185d18da081d1bdad95b88185b5bdd5b9d607a1b6064820152608401610585565b600160098585604051610c8c92919061168c565b908152602001604051809103902060006101000a81548160ff0219169083151502179055508160086000828254610cc39190611679565b90915550506001600160a01b0386166000908152600b602052604081208054849290610cf0908490611679565b90915550610d0090508686610ff2565b856001600160a01b03167f5c6182ed76486d13a3d29be1bcd623409823e33da7738d8c29066ed63c677325868686604051610d3d9392919061169c565b60405180910390a2610d4f6001600655565b505050505050565b610d5f610dee565b6001600160a01b038116610d8957604051631e4fbdf760e01b815260006004820152602401610585565b61061981610ea6565b610a218383836001611028565b600554600160a01b900460ff161561060d5760405163d93c066560e01b815260040160405180910390fd5b600033610dd8858285610ef8565b610de38585856110fd565b506001949350505050565b6005546001600160a01b0316331461060d5760405163118cdaa760e01b8152336004820152602401610585565b610e2361115c565b6005805460ff60a01b191690557f5db9ee0a495bf2e6ff9c91a7834c1ba4fdd244a5e8aa4e537bd38aeae4b073aa335b6040516001600160a01b03909116815260200160405180910390a1565b6001600160a01b038216610e9a57604051634b637e8f60e11b815260006004820152602401610585565b61070282600083611186565b600580546001600160a01b038381166001600160a01b0319831681179093556040519116919082907f8be0079c531659141344cd1fd0a4f28419497f9722a3daafe3b4186f6b6457e090600090a35050565b6001600160a01b03838116600090815260016020908152604080832093861683529290522054600019811015610f715781811015610f6257604051637dc7a0d960e11b81526001600160a01b03841660048201526024810182905260448101839052606401610585565b610f7184848484036000611028565b50505050565b610f7f610d9f565b6005805460ff60a01b1916600160a01b1790557f62e78cea01bee320cd4e420270b5ea74000d11b0c9f74754ebdbfc544b05a258610e533390565b6000336105208185856110fd565b600260065403610feb57604051633ee5aeb560e01b815260040160405180910390fd5b6002600655565b6001600160a01b03821661101c5760405163ec442f0560e01b815260006004820152602401610585565b61070260008383611186565b6001600160a01b0384166110525760405163e602df0560e01b815260006004820152602401610585565b6001600160a01b03831661107c57604051634a1406b160e11b815260006004820152602401610585565b6001600160a01b0380851660009081526001602090815260408083209387168352929052208290558015610f7157826001600160a01b0316846001600160a01b03167f8c5be1e5ebec7d5bd14f71427d1e84f3dd0314c0f7b2291e5b200ac8c7c3b925846040516110ef91815260200190565b60405180910390a350505050565b6001600160a01b03831661112757604051634b637e8f60e11b815260006004820152602401610585565b6001600160a01b0382166111515760405163ec442f0560e01b815260006004820152602401610585565b610a21838383611186565b600554600160a01b900460ff1661060d57604051638dfc202b60e01b815260040160405180910390fd5b6001600160a01b0383166111b15780600260008282546111a69190611679565b909155506112239050565b6001600160a01b038316600090815260208190526040902054818110156112045760405163391434e360e21b81526001600160a01b03851660048201526024810182905260448101839052606401610585565b6001600160a01b03841660009081526020819052604090209082900390555b6001600160a01b03821661123f5760028054829003905561125e565b6001600160a01b03821660009081526020819052604090208054820190555b816001600160a01b0316836001600160a01b03167fddf252ad1be2c89b69c2b068fc378daa952ba7f163c4a11628f55a4df523b3ef836040516112a391815260200190565b60405180910390a3505050565b600060208083528351808285015260005b818110156112dd578581018301518582016040015282016112c1565b506000604082860101526040601f19601f8301168501019250505092915050565b80356001600160a01b038116811461131557600080fd5b919050565b6000806040838503121561132d57600080fd5b611336836112fe565b946020939093013593505050565b634e487b7160e01b600052604160045260246000fd5b60006020828403121561136c57600080fd5b813567ffffffffffffffff8082111561138457600080fd5b818401915084601f83011261139857600080fd5b8135818111156113aa576113aa611344565b604051601f8201601f19908116603f011681019083821181831017156113d2576113d2611344565b816040528281528760208487010111156113eb57600080fd5b826020860160208301376000928101602001929092525095945050505050565b60008060006060848603121561142057600080fd5b611429846112fe565b9250611437602085016112fe565b9150604084013590509250925092565b60006020828403121561145957600080fd5b5035919050565b60006020828403121561147257600080fd5b61147b826112fe565b9392505050565b60008083601f84011261149457600080fd5b50813567ffffffffffffffff8111156114ac57600080fd5b6020830191508360208285010111156114c457600080fd5b9250929050565b6000806000604084860312156114e057600080fd5b83359250602084013567ffffffffffffffff8111156114fe57600080fd5b61150a86828701611482565b9497909650939450505050565b60008060008060006080868803121561152f57600080fd5b611538866112fe565b945060208601359350604086013567ffffffffffffffff81111561155b57600080fd5b61156788828901611482565b96999598509660600135949350505050565b6000806040838503121561158c57600080fd5b611595836112fe565b91506115a3602084016112fe565b90509250929050565b600181811c908216806115c057607f821691505b6020821081036115e057634e487b7160e01b600052602260045260246000fd5b50919050565b634e487b7160e01b600052601160045260246000fd5b60008261161957634e487b7160e01b600052601260045260246000fd5b500490565b60208082526028908201527f42544e47476f6c64546f6b656e3a20696e73756666696369656e7420676f6c64604082015267206261636b696e6760c01b606082015260800190565b81810381811115610526576105266115e6565b80820180821115610526576105266115e6565b8183823760009101908152919050565b83815260406020820152816040820152818360608301376000818301606090810191909152601f909201601f191601019291505056fea2646970667358221220b2b2b172fd40189fc67880f2ee0cecebd387952fe15195859fab42518653a47c64736f6c63430008140033",
  "linkReferences": {},
  "deployedLinkReferences": {}
}